OP01161BIMF2025111912000805854V8AUTOMATIC                                                                                                                                                               
161004634191502025111908000064630000003000+                                                                                                                                                             
161004635547102025111908000064630000003000+                                                                                                                                                             
161005202308502025111908000057130000002000+                                                                                                                                                             
161005215246202025111908000000570000000035+                                                                                                                                                             
161005215703102025111908000057130000000448+                                                                                                                                                             
161005216869702025111908000000570000000054+                                                                                                                                                             
161005218033402025111908000057130000000600+                                                                                                                                                             
161005220440502025111908000309820000001680+                                                                                                                                                             
161005220440702025111908000309820000002560+                                                                                                                                                             
161005221884302025111908000063050000000140+                                                                                                                                                             
161005221884402025111908000063050000000140+                                                                                                                                                             
161005222389702025111908000057130000002944+                                                                                                                                                             
161005222389902025111908000057130000001080+                                                                                                                                                             
161005222390102025111908000057130000002000+                                                                                                                                                             
161005222812702025111908000000570000000024+                                                                                                                                                             
161005222930202025111908000357970000000640+                                                                                                                                                             
161005223119402025111908000057130000002000+                                                                                                                                                             
161005223119502025111908000057130000000400+                                                                                                                                                             
161005223930102025111908000000570000000161+                                                                                                                                                             
161005224089002025111908000000570000000028+                                                                                                                                                             
161005224089102025111908000000570000000364+                                                                                                                                                             
161005224089202025111908000000570000000004+                                                                                                                                                             
161005224089302025111908000000570000000076+                                                                                                                                                             
161005224089402025111908000000570000000080+                                                                                                                                                             
161005224089502025111908000000570000000152+                                                                                                                                                             
161005224089602025111908000000570000000004+                                                                                                                                                             
161005224858302025111908000000570000000039+                                                                                                                                                             
161005224858502025111908000000570000000009+                                                                                                                                                             
161005224936102025111908000000570000000020+                                                                                                                                                             
161005225253002025111908000000570000000876+                                                                                                                                                             
161005225871002025111908000000570000000225+                                                                                                                                                             
161005227247602025111908000000570000000003+                                                                                                                                                             
161005227247702025111908000000570000000555+                                                                                                                                                             
161005227247802025111908000000570000000048+                                                                                                                                                             
161005227247902025111908000000570000000213+                                                                                                                                                             
161005227248002025111908000000570000000144+                                                                                                                                                             
161010027444102025111908000063050000000960+                                                                                                                                                             
161000757768002025111908000063570000006000+                                                                                                                                                             
161001450348702025111908000063570000000400+                                                                                                                                                             
161004634188402025111908000063570000000406+                                                                                                                                                             
161004635024302025111908000028630000000720+                                                                                                                                                             
161004642059202025111908000063570000000200+                                                                                                                                                             
161004644074102025111908000063570000001680+                                                                                                                                                             
161004644456502025111908000063570000002000+                                                                                                                                                             
161005172483302025111908000428630000001920+                                                                                                                                                             
161005183595402025111908000065030000000450+                                                                                                                                                             
161005184424502025111908000065030000000360+                                                                                                                                                             
161005194999002025111908000065030000000240+                                                                                                                                                             
161005199013702025111908000062150000003840+                                                                                                                                                             
161005202897002025111908000063570000000224+                                                                                                                                                             
161005202897102025111908000063570000000224+                                                                                                                                                             
161005203903102025111908000063570000000800+                                                                                                                                                             
161005204043602025111908000065030000000252+                                                                                                                                                             
161005204549602025111908000195490000000450+                                                                                                                                                             
161005204549702025111908000195490000000450+                                                                                                                                                             
161005204652202025111908000028630000000384+                                                                                                                                                             
161005204652402025111908000028630000000350+                                                                                                                                                             
161005209642302025111908000063570000018000+                                                                                                                                                             
161005209642302025111908000152290000009000+                                                                                                                                                             
161005209642502025111908000063570000004500+                                                                                                                                                             
161005210401902025111908000063570000001000+                                                                                                                                                             
161005212838702025111908000431780000000840+                                                                                                                                                             
161005212838802025111908000431780000000840+                                                                                                                                                             
161005212868402025111908000065030000000675+                                                                                                                                                             
161005212868502025111908000065030000000675+                                                                                                                                                             
161005212868702025111908000065030000000675+                                                                                                                                                             
161005212868802025111908000065030000000675+                                                                                                                                                             
161005212884202025111908000028630000002160+                                                                                                                                                             
161005213424002025111908000028630000000980+                                                                                                                                                             
161005214271202025111908000065030000001260+                                                                                                                                                             
161005214735902025111908000028630000000980+                                                                                                                                                             
161005214910002025111908000065030000000320+                                                                                                                                                             
161005216268502025111908000037520000008400+                                                                                                                                                             
161005218454302025111908000028630000000324+                                                                                                                                                             
161005218454402025111908000028630000000252+                                                                                                                                                             
161005219329602025111908000028630000000560+                                                                                                                                                             
161005220455602025111908000063570000001620+                                                                                                                                                             
161005222013402025111908000028630000000160+                                                                                                                                                             
161005222255202025111908000028630000000500+                                                                                                                                                             
161005223322502025111908000431780000000800+                                                                                                                                                             
161005223322602025111908000431780000000800+                                                                                                                                                             
161005223581102025111908000063570000000280+                                                                                                                                                             
161005226876802025111908000431780000000800+                                                                                                                                                             
161010018527202025111908000063570000001134+                                                                                                                                                             
161010019458802025111908000063570000000700+                                                                                                                                                             
161010019585902025111908000063570000000070+                                                                                                                                                             
161010020033202025111908000063570000002700+                                                                                                                                                             
161010021676002025111908000065030000000600+                                                                                                                                                             
161010023289202025111908000152290000000120+                                                                                                                                                             
161010023289302025111908000152290000000120+                                                                                                                                                             
161010023289402025111908000152290000000120+                                                                                                                                                             
161010023289502025111908000152290000000120+                                                                                                                                                             
161010023294102025111908000063570000001120+                                                                                                                                                             
161010024455602025111908000063570000001000+                                                                                                                                                             
161010024455702025111908000063570000001000+                                                                                                                                                             
161010024456702025111908000063570000000200+                                                                                                                                                             
161010024457602025111908000063570000000330+                                                                                                                                                             
161010024458302025111908000063570000000415+                                                                                                                                                             
161010024458602025111908000063570000000384+                                                                                                                                                             
161010024458802025111908000063570000000400+                                                                                                                                                             
161010024459102025111908000063570000000504+                                                                                                                                                             
161010024459402025111908000063570000000576+                                                                                                                                                             
161010024517602025111908000063570000000420+                                                                                                                                                             
161010024517702025111908000063570000000420+                                                                                                                                                             
161010024558702025111908000063570000000560+                                                                                                                                                             
161010024558802025111908000063570000000560+                                                                                                                                                             
161010024559002025111908000063570000000600+                                                                                                                                                             
161010024559202025111908000063570000000600+                                                                                                                                                             
161010025431902025111908000063570000000624+                                                                                                                                                             
161010025705002025111908000063570000002520+                                                                                                                                                             
161010025706102025111908000063570000000144+                                                                                                                                                             
161010025791402025111908000063570000001155+                                                                                                                                                             
161010026271202025111908000063570000001024+                                                                                                                                                             
161010026629702025111908000063570000000396+                                                                                                                                                             
161010026874502025111908000063570000000126+                                                                                                                                                             
161010027030702025111908000063570000000144+                                                                                                                                                             
161010027183302025111908000063570000000060+                                                                                                                                                             
161010027286002025111908000063570000000168+                                                                                                                                                             
161010027601102025111908000063570000000180+                                                                                                                                                             
161010027601502025111908000063570000000180+                                                                                                                                                             
161010027758902025111908000063570000000060+                                                                                                                                                             
161010027759102025111908000063570000000060+                                                                                                                                                             
161010028456502025111908000152290000000120+                                                                                                                                                             
161010028457002025111908000152290000000120+                                                                                                                                                             
161010028457502025111908000152290000000198+                                                                                                                                                             
161010028457702025111908000152290000000072+                                                                                                                                                             
161010028633502025111908000006560000000288+                                                                                                                                                             
161073533087302025111908000063570000004800+                                                                                                                                                             
161005218481402025111908000396070000000056+                                                                                                                                                             
161005222478302025111908000396070000000168+                                                                                                                                                             
161005222478402025111908000396070000000168+                                                                                                                                                             
161005223125402025111908000468360000000908+                                                                                                                                                             
161005223340402025111908000396070000000018+                                                                                                                                                             
161001314258702025111908000057400000000800+                                                                                                                                                             
161004635231702025111908000062730000000480+                                                                                                                                                             
161004635251002025111908000062730000000500+                                                                                                                                                             
161004646154002025111908000057400000001200+                                                                                                                                                             
161005170815102025111908000354110000006000+                                                                                                                                                             
161005179979502025111908000057400000000924+                                                                                                                                                             
161005184885102025111908000057400000000520+                                                                                                                                                             
161005189110302025111908000354110000002100+                                                                                                                                                             
161005189820002025111908000057400000001440+                                                                                                                                                             
161005201885102025111908000354110000000960+                                                                                                                                                             
161005204644002025111908000057400000000364+                                                                                                                                                             
161005204713402025111908000057410000000440+                                                                                                                                                             
161005204935002025111908000057410000002600+                                                                                                                                                             
161005204935102025111908000057410000000300+                                                                                                                                                             
161005204935202025111908000057410000001350+                                                                                                                                                             
161005205620902025111908000057400000002000+                                                                                                                                                             
161005207059302025111908000057410000000400+                                                                                                                                                             
161005209083302025111908000057400000001200+                                                                                                                                                             
161005211235002025111908000057410000000960+                                                                                                                                                             
161005211235102025111908000057410000001440+                                                                                                                                                             
161005212630202025111908000057410000000200+                                                                                                                                                             
161005213154202025111908000057410000000600+                                                                                                                                                             
161005216073502025111908000057410000000240+                                                                                                                                                             
161005216073802025111908000057410000000910+                                                                                                                                                             
161005216074802025111908000057410000000600+                                                                                                                                                             
161005216075402025111908000057410000000240+                                                                                                                                                             
161005216076502025111908000057410000000240+                                                                                                                                                             
161005217409702025111908000057400000003234+                                                                                                                                                             
161005217468502025111908000057410000000080+                                                                                                                                                             
161005217468602025111908000057410000000060+                                                                                                                                                             
161005217468802025111908000057410000000120+                                                                                                                                                             
161005217469402025111908000057410000000120+                                                                                                                                                             
161005217469702025111908000057410000000150+                                                                                                                                                             
161005217621402025111908000057400000000600+                                                                                                                                                             
161005217621702025111908000057400000000200+                                                                                                                                                             
161005218315002025111908000057410000000150+                                                                                                                                                             
161005219669702025111908000057400000001400+                                                                                                                                                             
161005219669902025111908000354110000002640+                                                                                                                                                             
161005220807102025111908000057410000000900+                                                                                                                                                             
161005220807202025111908000057410000000600+                                                                                                                                                             
161005222337602025111908000057410000000240+                                                                                                                                                             
161005223158502025111908000062730000003000+                                                                                                                                                             
161005223169802025111908000057410000000100+                                                                                                                                                             
161005223169902025111908000057410000000100+                                                                                                                                                             
161005223645602025111908000057410000000100+                                                                                                                                                             
161005223733302025111908000057400000000160+                                                                                                                                                             
161005223974102025111908000057410000001200+                                                                                                                                                             
161005224363902025111908000057410000000200+                                                                                                                                                             
161005526680002025111908000062730000003000+                                                                                                                                                             
161005527553202025111908000057410000003000+                                                                                                                                                             
161005527779502025111908000057400000002000+                                                                                                                                                             
161005528216902025111908000057410000000288+                                                                                                                                                             
161005528250102025111908000062730000000120+                                                                                                                                                             
161005348952502025111908000037520000002400+                                                                                                                                                             
161005349062302025111908000037520000000120+                                                                                                                                                             
161005219729302025111908000064080000000640+                                                                                                                                                             
161005221736002025111908000064080000000160+                                                                                                                                                             
161005221736102025111908000064080000000500+                                                                                                                                                             
161005222491202025111908000064080000000560+                                                                                                                                                             
161005223704502025111908000064080000000640+                                                                                                                                                             
161004678414002025111908000371000000006000+                                                                                                                                                             
161005192506102025111908000371000000024000+                                                                                                                                                             
161005196234902025111908000371000000002000+                                                                                                                                                             
161005197893802025111908000371000000004000+                                                                                                                                                             
161005201729502025111908000371000000008000+                                                                                                                                                             
161005217653202025111908000371000000016000+                                                                                                                                                             
CL99161BIMF2025111912000805854V8AUTOMATIC 0000201                                                                                                                                                       
