OP01161BIMF2025111910000405853V8AUTOMATIC                                                                                                                                                               
161000752049602025111908000063720000008000+                                                                                                                                                             
161000752754502025111908000063720000002000+                                                                                                                                                             
161000752848002025111908000063300000003600+                                                                                                                                                             
161000752849102025111908000063720000002500+                                                                                                                                                             
161000752865502025111908000063720000004000+                                                                                                                                                             
161000755208702025111908000063720000004800+                                                                                                                                                             
161000762544502025111908000063720000010000+                                                                                                                                                             
161000775014702025111908000284580000003000+                                                                                                                                                             
161001314118702025111908000063720000002000+                                                                                                                                                             
161001314198702025111908000063720000016000+                                                                                                                                                             
161001450668702025111908000063720000010000+                                                                                                                                                             
161001450678702025111908000063720000020400+                                                                                                                                                             
161001450758702025111908000063720000016100+                                                                                                                                                             
161001450768702025111908000063720000008800+                                                                                                                                                             
161001450848702025111908000063720000012000+                                                                                                                                                             
161004634844802025111908000000590000000060+                                                                                                                                                             
161004634844902025111908000000590000000060+                                                                                                                                                             
161004635428802025111908000063300000000720+                                                                                                                                                             
161004635461102025111908000000590000000040+                                                                                                                                                             
161004635535602025111908000000590000001000+                                                                                                                                                             
161004635540302025111908000000590000000040+                                                                                                                                                             
161004635540402025111908000000590000000020+                                                                                                                                                             
161004635540502025111908000000590000000020+                                                                                                                                                             
161004635542702025111908000000590000000020+                                                                                                                                                             
161004635542802025111908000000590000000020+                                                                                                                                                             
161004635543002025111908000000590000000020+                                                                                                                                                             
161004635543102025111908000000590000000020+                                                                                                                                                             
161004635763702025111908000000590000000280+                                                                                                                                                             
161004635766702025111908000000590000000020+                                                                                                                                                             
161004636040002025111908000284580000001000+                                                                                                                                                             
161004640135602025111908000056930000000864+                                                                                                                                                             
161004641658802025111908000063720000001200+                                                                                                                                                             
161004642981902025111908000063720000006270+                                                                                                                                                             
161004643638502025111908000063720000005440+                                                                                                                                                             
161004643638602025111908000063720000003600+                                                                                                                                                             
161004644010292025111908000369040000001400+                                                                                                                                                             
161004644635902025111908000063720000003500+                                                                                                                                                             
161004645151802025111908000063720000004250+                                                                                                                                                             
161004645589202025111908000056930000000800+                                                                                                                                                             
161004646412402025111908000063720000014400+                                                                                                                                                             
161004651444102025111908000063300000000720+                                                                                                                                                             
161004652740302025111908000063720000001200+                                                                                                                                                             
161004652839202025111908000063300000010000+                                                                                                                                                             
161004653859302025111908000063300000004500+                                                                                                                                                             
161004676360502025111908000063720000002000+                                                                                                                                                             
161004678350002025111908000063300000008000+                                                                                                                                                             
161004678476602025111908000063720000016000+                                                                                                                                                             
161004679005902025111908000063720000002400+                                                                                                                                                             
161004679266002025111908000027000000000168+                                                                                                                                                             
161004680426302025111908000063720000011000+                                                                                                                                                             
161004681831702025111908000036020000004400+                                                                                                                                                             
161004683451802025111908000462990000000600+                                                                                                                                                             
161005001044002025111908000063300000012000+                                                                                                                                                             
161005170815202025111908000063720000000600+                                                                                                                                                             
161005171698802025111908000284580000002000+                                                                                                                                                             
161005174912402025111908000056930000001792+                                                                                                                                                             
161005174995502025111908000063720000001500+                                                                                                                                                             
161005176004702025111908000063300000003000+                                                                                                                                                             
161005176182402025111908000063720000003250+                                                                                                                                                             
161005176445702025111908000063720000000200+                                                                                                                                                             
161005178551602025111908000450910000002450+                                                                                                                                                             
161005180698202025111908000063720000004000+                                                                                                                                                             
161005182260202025111908000063300000006000+                                                                                                                                                             
161005183660202025111908000063300000000720+                                                                                                                                                             
161005183692002025111908000056930000000896+                                                                                                                                                             
161005185542102025111908000462990000001000+                                                                                                                                                             
161005187166702025111908000063720000001000+                                                                                                                                                             
161005187314502025111908000063300000001200+                                                                                                                                                             
161005187609202025111908000027000000000300+                                                                                                                                                             
161005187703902025111908000386910000000080+                                                                                                                                                             
161005189724502025111908000056930000001560+                                                                                                                                                             
161005190078602025111908000063720000000900+                                                                                                                                                             
161005192491802025111908000056930000001152+                                                                                                                                                             
161005192491902025111908000056930000002496+                                                                                                                                                             
161005194999102025111908000063720000001200+                                                                                                                                                             
161005196425402025111908000063300000000120+                                                                                                                                                             
161005197955802025111908000063300000000240+                                                                                                                                                             
161005198012902025111908000027000000001008+                                                                                                                                                             
161005198013102025111908000027000000002208+                                                                                                                                                             
161005198406402025111908000467780000000800+                                                                                                                                                             
161005198406502025111908000467780000000960+                                                                                                                                                             
161005200481102025111908000369040000000650+                                                                                                                                                             
161005200583802025111908000386910000000320+                                                                                                                                                             
161005200591402025111908000386910000000400+                                                                                                                                                             
161005200610602025111908000284580000002000+                                                                                                                                                             
161005200685802025111908000065230000000796+                                                                                                                                                             
161005201710702025111908000284580000000900+                                                                                                                                                             
161005202353102025111908000284580000005999+                                                                                                                                                             
161005202377002025111908000065230000000480+                                                                                                                                                             
161005202588702025111908000063720000003000+                                                                                                                                                             
161005202730602025111908000284580000000500+                                                                                                                                                             
161005203886802025111908000063720000002000+                                                                                                                                                             
161005204415702025111908000063300000000350+                                                                                                                                                             
161005204415702025111908000386910000000420+                                                                                                                                                             
161005204452302025111908000027000000000500+                                                                                                                                                             
161005204472902025111908000284580000001800+                                                                                                                                                             
161005204473702025111908000063720000004800+                                                                                                                                                             
161005204504602025111908000284580000000900+                                                                                                                                                             
161005204580502025111908000284580000002000+                                                                                                                                                             
161005204583102025111908000462990000001350+                                                                                                                                                             
161005204583202025111908000462990000001350+                                                                                                                                                             
161005204789402025111908000063720000003000+                                                                                                                                                             
161005204796002025111908000284580000003000+                                                                                                                                                             
161005204987502025111908000284580000004000+                                                                                                                                                             
161005205413802025111908000284580000000900+                                                                                                                                                             
161005205627002025111908000063720000008800+                                                                                                                                                             
161005206633402025111908000369040000000185+                                                                                                                                                             
161005206740002025111908000063720000002400+                                                                                                                                                             
161005207055402025111908000027000000000050+                                                                                                                                                             
161005207292902025111908000063720000002100+                                                                                                                                                             
161005207293002025111908000063720000003000+                                                                                                                                                             
161005207990002025111908000063720000003000+                                                                                                                                                             
161005208434402025111908000284580000004000+                                                                                                                                                             
161005209085502025111908000027000000000210+                                                                                                                                                             
161005209293602025111908000027000000001560+                                                                                                                                                             
161005209465802025111908000027000000000294+                                                                                                                                                             
161005212735502025111908000369040000001426+                                                                                                                                                             
161005212736602025111908000369040000000538+                                                                                                                                                             
161005212807002025111908000066480000000700+                                                                                                                                                             
161005212807102025111908000066480000000912+                                                                                                                                                             
161005212811902025111908000450910000001910+                                                                                                                                                             
161005212883902025111908000027000000000180+                                                                                                                                                             
161005212884002025111908000027000000000400+                                                                                                                                                             
161005212910102025111908000063720000007000+                                                                                                                                                             
161005213800402025111908000027000000000050+                                                                                                                                                             
161005213800502025111908000027000000000480+                                                                                                                                                             
161005213814402025111908000284580000000960+                                                                                                                                                             
161005213994802025111908000066480000000600+                                                                                                                                                             
161005213995002025111908000066480000000900+                                                                                                                                                             
161005214841702025111908000462990000001200+                                                                                                                                                             
161005214982102025111908000036020000000616+                                                                                                                                                             
161005214982202025111908000036020000000616+                                                                                                                                                             
161005215127202025111908000065230000001920+                                                                                                                                                             
161005215128102025111908000065230000002320+                                                                                                                                                             
161005215450402025111908000386910000001200+                                                                                                                                                             
161005215567302025111908000063720000003000+                                                                                                                                                             
161005215687502025111908000063300000006000+                                                                                                                                                             
161005215788602025111908000369040000000900+                                                                                                                                                             
161005215789102025111908000369040000000736+                                                                                                                                                             
161005215964802025111908000066480000000932+                                                                                                                                                             
161005215964902025111908000066480000001012+                                                                                                                                                             
161005216070702025111908000450910000001440+                                                                                                                                                             
161005216070802025111908000450910000002016+                                                                                                                                                             
161005216218502025111908000066480000000600+                                                                                                                                                             
161005216279202025111908000063720000001150+                                                                                                                                                             
161005216338302025111908000063720000004200+                                                                                                                                                             
161005216424202025111908000063720000003000+                                                                                                                                                             
161005216843302025111908000032410000000600+                                                                                                                                                             
161005216872702025111908000063300000001200+                                                                                                                                                             
161005217297302025111908000056930000000420+                                                                                                                                                             
161005217441102025111908000056930000000864+                                                                                                                                                             
161005217441502025111908000056930000000840+                                                                                                                                                             
161005217461402025111908000450910000001146+                                                                                                                                                             
161005217478002025111908000450910000000864+                                                                                                                                                             
161005217478202025111908000450910000001152+                                                                                                                                                             
161005217651402025111908000252810000000056+                                                                                                                                                             
161005218257502025111908000450910000001528+                                                                                                                                                             
161005218963502025111908000284580000000160+                                                                                                                                                             
161005218967102025111908000027000000000150+                                                                                                                                                             
161005218967202025111908000027000000000180+                                                                                                                                                             
161005218985302025111908000284580000000480+                                                                                                                                                             
161005218989102025111908000066480000000132+                                                                                                                                                             
161005219345602025111908000369040000001625+                                                                                                                                                             
161005219805802025111908000467780000000160+                                                                                                                                                             
161005220188302025111908000063300000000944+                                                                                                                                                             
161005220188402025111908000063300000002100+                                                                                                                                                             
161005220218102025111908000027000000001320+                                                                                                                                                             
161005220517902025111908000369040000000323+                                                                                                                                                             
161005221105902025111908000063300000000300+                                                                                                                                                             
161005221106002025111908000063300000000150+                                                                                                                                                             
161005221106202025111908000063300000000150+                                                                                                                                                             
161005221106502025111908000063300000000600+                                                                                                                                                             
161005221107302025111908000063300000000150+                                                                                                                                                             
161005221107502025111908000063300000000150+                                                                                                                                                             
161005221107602025111908000063300000000250+                                                                                                                                                             
161005221108002025111908000063300000000150+                                                                                                                                                             
161005221207402025111908000462990000001500+                                                                                                                                                             
161005221266902025111908000027000000000150+                                                                                                                                                             
161005221609402025111908000063300000000150+                                                                                                                                                             
161005222201502025111908000252810000000200+                                                                                                                                                             
161005222201702025111908000252810000000200+                                                                                                                                                             
161005222202102025111908000252810000000100+                                                                                                                                                             
161005222202202025111908000252810000000100+                                                                                                                                                             
161005222202302025111908000252810000000200+                                                                                                                                                             
161005222202502025111908000252810000000200+                                                                                                                                                             
161005222219502025111908000063300000001400+                                                                                                                                                             
161005222219602025111908000063300000001400+                                                                                                                                                             
161005222219702025111908000063300000000500+                                                                                                                                                             
161005222219802025111908000063300000000500+                                                                                                                                                             
161005222256802025111908000443730000000420+                                                                                                                                                             
161005222257302025111908000284580000000240+                                                                                                                                                             
161005222339302025111908000066480000002352+                                                                                                                                                             
161005222397802025111908000066480000000147+                                                                                                                                                             
161005222398002025111908000066480000000132+                                                                                                                                                             
161005222400402025111908000065230000000480+                                                                                                                                                             
161005222400602025111908000065230000000520+                                                                                                                                                             
161005222421102025111908000252810000000080+                                                                                                                                                             
161005222428202025111908000369040000000270+                                                                                                                                                             
161005222716502025111908000467780000000896+                                                                                                                                                             
161005222926402025111908000386910000000880+                                                                                                                                                             
161005223337902025111908000063720000003000+                                                                                                                                                             
161005223577602025111908000063300000000300+                                                                                                                                                             
161005223577702025111908000063300000000300+                                                                                                                                                             
161005223938102025111908000066480000000800+                                                                                                                                                             
161005224369302025111908000252810000000630+                                                                                                                                                             
161005224369602025111908000252810000000120+                                                                                                                                                             
161005224856602025111908000027310000001200+                                                                                                                                                             
161005224929002025111908000000590000000020+                                                                                                                                                             
161005224929102025111908000000590000000060+                                                                                                                                                             
161005224944602025111908000027310000000480+                                                                                                                                                             
161005224944702025111908000027310000000480+                                                                                                                                                             
161005225108202025111908000063300000000450+                                                                                                                                                             
161005225108302025111908000063300000000450+                                                                                                                                                             
161005225108402025111908000063300000000450+                                                                                                                                                             
161005225108502025111908000063300000000450+                                                                                                                                                             
161005225968002025111908000065230000003040+                                                                                                                                                             
161005225968102025111908000065230000000356+                                                                                                                                                             
161005225968202025111908000065230000000300+                                                                                                                                                             
161005226938002025111908000000590000001420+                                                                                                                                                             
161005226938102025111908000000590000000180+                                                                                                                                                             
161005226942002025111908000000590000001000+                                                                                                                                                             
161005226942102025111908000000590000000260+                                                                                                                                                             
161005227004302025111908000000590000000040+                                                                                                                                                             
161005227004402025111908000000590000000020+                                                                                                                                                             
161005227055902025111908000063300000000800+                                                                                                                                                             
161005227595502025111908000065230000000900+                                                                                                                                                             
161005348402202025111908000284580000002000+                                                                                                                                                             
161005348402302025111908000284580000002000+                                                                                                                                                             
161005349405902025111908000284580000001800+                                                                                                                                                             
161005526819002025111908000284580000000400+                                                                                                                                                             
161005528250902025111908000284580000002500+                                                                                                                                                             
161010017627802025111908000462990000000798+                                                                                                                                                             
161010017708202025111908000063300000000030+                                                                                                                                                             
161010020128602025111908000063300000001197+                                                                                                                                                             
161010021505302025111908000462990000000180+                                                                                                                                                             
161010022110502025111908000462990000000800+                                                                                                                                                             
161010022118602025111908000462990000000150+                                                                                                                                                             
161010023329402025111908000036020000000120+                                                                                                                                                             
161010023329502025111908000036020000000120+                                                                                                                                                             
161010023662802025111908000036020000000150+                                                                                                                                                             
161010023662902025111908000036020000000450+                                                                                                                                                             
161010023663002025111908000036020000000280+                                                                                                                                                             
161010023663102025111908000036020000000420+                                                                                                                                                             
161010024432702025111908000063300000000130+                                                                                                                                                             
161010024443702025111908000432350000001000+                                                                                                                                                             
161010024456602025111908000063300000001560+                                                                                                                                                             
161010024561402025111908000462990000000800+                                                                                                                                                             
161010024978702025111908000063300000000600+                                                                                                                                                             
161010025214302025111908000432350000000100+                                                                                                                                                             
161010025214402025111908000432350000001360+                                                                                                                                                             
161010025361002025111908000432350000001008+                                                                                                                                                             
161010025475602025111908000432350000000160+                                                                                                                                                             
161010025628602025111908000432350000000600+                                                                                                                                                             
161010025669302025111908000066480000000435+                                                                                                                                                             
161010025721502025111908000036020000000250+                                                                                                                                                             
161010025721602025111908000036020000000250+                                                                                                                                                             
161010025737202025111908000036020000000288+                                                                                                                                                             
161010025737402025111908000036020000000300+                                                                                                                                                             
161010025782602025111908000063300000000300+                                                                                                                                                             
161010025844402025111908000462990000002000+                                                                                                                                                             
161010025895002025111908000462990000001800+                                                                                                                                                             
161010025901402025111908000036020000000456+                                                                                                                                                             
161010025901502025111908000036020000000228+                                                                                                                                                             
161010025901602025111908000036020000000308+                                                                                                                                                             
161010025901702025111908000036020000000616+                                                                                                                                                             
161010025927602025111908000066480000000735+                                                                                                                                                             
161010025941002025111908000062480000000600+                                                                                                                                                             
161010025941302025111908000062480000000600+                                                                                                                                                             
161010025954202025111908000386910000000120+                                                                                                                                                             
161010026102002025111908000063300000000300+                                                                                                                                                             
161010026303302025111908000066480000000960+                                                                                                                                                             
161010026347902025111908000462990000000980+                                                                                                                                                             
161010026364002025111908000036020000000280+                                                                                                                                                             
161010026364202025111908000036020000000280+                                                                                                                                                             
161010026367402025111908000063300000000384+                                                                                                                                                             
161010026439202025111908000063300000000400+                                                                                                                                                             
161010026504002025111908000066480000000309+                                                                                                                                                             
161010026550402025111908000066480000001743+                                                                                                                                                             
161010026588502025111908000462990000000900+                                                                                                                                                             
161010026632402025111908000063300000000130+                                                                                                                                                             
161010026637902025111908000432350000001008+                                                                                                                                                             
161010027062202025111908000036020000000220+                                                                                                                                                             
161010027069102025111908000036020000000066+                                                                                                                                                             
161010027225802025111908000066480000000498+                                                                                                                                                             
161010027269402025111908000386910000000180+                                                                                                                                                             
161010027269502025111908000386910000000320+                                                                                                                                                             
161010027269602025111908000386910000000500+                                                                                                                                                             
161010027631602025111908000062480000000450+                                                                                                                                                             
161010027631802025111908000062480000000300+                                                                                                                                                             
161010027631902025111908000062480000000090+                                                                                                                                                             
161010027711702025111908000036020000000250+                                                                                                                                                             
161010027711902025111908000036020000000250+                                                                                                                                                             
161010028183102025111908000066480000000006+                                                                                                                                                             
161010028381002025111908000062480000000600+                                                                                                                                                             
161010028396102025111908000432350000000360+                                                                                                                                                             
161010028398202025111908000462990000002016+                                                                                                                                                             
161010028398302025111908000462990000002016+                                                                                                                                                             
161010028458802025111908000386910000000200+                                                                                                                                                             
161010028477602025111908000432350000001352+                                                                                                                                                             
161010028477702025111908000432350000000252+                                                                                                                                                             
161010028536802025111908000066480000000600+                                                                                                                                                             
161010028587902025111908000404890000001484+                                                                                                                                                             
161010028698202025111908000062480000000450+                                                                                                                                                             
161010028713002025111908000062480000000600+                                                                                                                                                             
161010029015802025111908000432350000001600+                                                                                                                                                             
161000595533102025111908000062140000002000+                                                                                                                                                             
161004654443602025111908000059020000000094+                                                                                                                                                             
161005180109802025111908000063560000002500+                                                                                                                                                             
161005189479502025111908000059020000007200+                                                                                                                                                             
161005200237702025111908000059020000000232+                                                                                                                                                             
161005205731102025111908000059020000000408+                                                                                                                                                             
161005208679502025111908000059020000000792+                                                                                                                                                             
161005208679602025111908000059020000000792+                                                                                                                                                             
161005209978502025111908000059020000000032+                                                                                                                                                             
161005212684802025111908000059020000000924+                                                                                                                                                             
161005214990202025111908000167830000000480+                                                                                                                                                             
161005215190502025111908000059020000000024+                                                                                                                                                             
161005216219602025111908000308340000000145+                                                                                                                                                             
161005216228302025111908000308340000000116+                                                                                                                                                             
161005216419702025111908000059020000000420+                                                                                                                                                             
161005216419802025111908000059020000000360+                                                                                                                                                             
161005216419902025111908000059020000000420+                                                                                                                                                             
161005217594702025111908000064460000000150+                                                                                                                                                             
161005217997602025111908000064460000000025+                                                                                                                                                             
161005218038202025111908000064460000000088+                                                                                                                                                             
161005218038302025111908000064460000000088+                                                                                                                                                             
161005218414202025111908000308340000000264+                                                                                                                                                             
161005218984302025111908000059020000000198+                                                                                                                                                             
161005219185502025111908000059020000000297+                                                                                                                                                             
161005219185602025111908000059020000000066+                                                                                                                                                             
161005219247502025111908000452730000000240+                                                                                                                                                             
161005219247702025111908000452730000000060+                                                                                                                                                             
161005219247902025111908000452730000000216+                                                                                                                                                             
161005219248302025111908000452730000000024+                                                                                                                                                             
161005221390602025111908000063560000000020+                                                                                                                                                             
161005221390802025111908000063560000000020+                                                                                                                                                             
161005221567002025111908000059020000000800+                                                                                                                                                             
161005222166802025111908000064460000000184+                                                                                                                                                             
161005222167102025111908000064460000000230+                                                                                                                                                             
161005222167202025111908000064460000000092+                                                                                                                                                             
161005222167302025111908000064460000000414+                                                                                                                                                             
161005222167402025111908000064460000000264+                                                                                                                                                             
161005222167502025111908000064460000000264+                                                                                                                                                             
161005222172902025111908000064460000000396+                                                                                                                                                             
161005222173102025111908000064460000000396+                                                                                                                                                             
161005222190702025111908000064460000000145+                                                                                                                                                             
161005222190802025111908000064460000000420+                                                                                                                                                             
161005222292102025111908000308340000000203+                                                                                                                                                             
161005222554602025111908000452730000000432+                                                                                                                                                             
161005222554802025111908000452730000000252+                                                                                                                                                             
161005222611502025111908000059020000000030+                                                                                                                                                             
161005222854402025111908000466990000000184+                                                                                                                                                             
161005222854502025111908000466990000000012+                                                                                                                                                             
161005223511302025111908000059020000000288+                                                                                                                                                             
161005225894702025111908000308340000000096+                                                                                                                                                             
161005225895002025111908000308340000000250+                                                                                                                                                             
161005225895202025111908000308340000000376+                                                                                                                                                             
161005225895302025111908000308340000000376+                                                                                                                                                             
161005225895402025111908000308340000000282+                                                                                                                                                             
161005225895502025111908000308340000000282+                                                                                                                                                             
161005225895602025111908000308340000000264+                                                                                                                                                             
161005225895702025111908000308340000000264+                                                                                                                                                             
161005225895802025111908000308340000000264+                                                                                                                                                             
161005225895902025111908000308340000000264+                                                                                                                                                             
161005225941802025111908000064460000000470+                                                                                                                                                             
161005225941902025111908000064460000000470+                                                                                                                                                             
161005225942002025111908000064460000000470+                                                                                                                                                             
161005225942102025111908000064460000000470+                                                                                                                                                             
161005225942202025111908000064460000000846+                                                                                                                                                             
161005225942302025111908000064460000000846+                                                                                                                                                             
161005225942402025111908000064460000000658+                                                                                                                                                             
161005225942502025111908000064460000000658+                                                                                                                                                             
161005225942602025111908000064460000000522+                                                                                                                                                             
161005225942802025111908000064460000000087+                                                                                                                                                             
161005225943002025111908000064460000000058+                                                                                                                                                             
161005225957402025111908000064460000000188+                                                                                                                                                             
161005225957502025111908000064460000000188+                                                                                                                                                             
161005227090002025111908000466990000000044+                                                                                                                                                             
161005227090102025111908000466990000000036+                                                                                                                                                             
161005227090202025111908000466990000000008+                                                                                                                                                             
161005227090302025111908000466990000000152+                                                                                                                                                             
161005227090402025111908000466990000000040+                                                                                                                                                             
161005227154702025111908000466990000000008+                                                                                                                                                             
161005227154802025111908000466990000000012+                                                                                                                                                             
161010023289302025111908000452730000000180+                                                                                                                                                             
161010023289402025111908000452730000000120+                                                                                                                                                             
161010023289502025111908000452730000000060+                                                                                                                                                             
161010023327502025111908000062140000000540+                                                                                                                                                             
161010023691102025111908000062140000000540+                                                                                                                                                             
161010023692602025111908000062140000000468+                                                                                                                                                             
161010024180802025111908000059020000000348+                                                                                                                                                             
161010024433002025111908000452730000000792+                                                                                                                                                             
161010024433202025111908000452730000000768+                                                                                                                                                             
161010024433402025111908000452730000000840+                                                                                                                                                             
161010024433602025111908000452730000000600+                                                                                                                                                             
161010024434702025111908000452730000001560+                                                                                                                                                             
161010024435302025111908000452730000001248+                                                                                                                                                             
161010024435702025111908000063560000000288+                                                                                                                                                             
161010024435902025111908000063560000000288+                                                                                                                                                             
161010024436202025111908000452730000000720+                                                                                                                                                             
161010024436402025111908000452730000000720+                                                                                                                                                             
161010024436802025111908000059020000000480+                                                                                                                                                             
161010024437202025111908000059020000000192+                                                                                                                                                             
161010024437702025111908000452730000000792+                                                                                                                                                             
161010024438302025111908000452730000000726+                                                                                                                                                             
161010024439602025111908000062140000001000+                                                                                                                                                             
161010024440402025111908000452730000000368+                                                                                                                                                             
161010024457802025111908000452730000000396+                                                                                                                                                             
161010024483502025111908000062140000000130+                                                                                                                                                             
161010024485702025111908000062140000000130+                                                                                                                                                             
161010024517302025111908000452730000000396+                                                                                                                                                             
161010024561902025111908000452730000000432+                                                                                                                                                             
161010025524802025111908000063560000000048+                                                                                                                                                             
161010025526402025111908000063560000000264+                                                                                                                                                             
161010025528002025111908000063560000000120+                                                                                                                                                             
161010025648902025111908000452730000000032+                                                                                                                                                             
161010025677902025111908000452730000001260+                                                                                                                                                             
161010025678102025111908000452730000001008+                                                                                                                                                             
161010025679502025111908000452730000000104+                                                                                                                                                             
161010025679602025111908000452730000000480+                                                                                                                                                             
161010025679702025111908000452730000000432+                                                                                                                                                             
161010025679802025111908000452730000000384+                                                                                                                                                             
161010025679902025111908000452730000000567+                                                                                                                                                             
161010025680202025111908000452730000000567+                                                                                                                                                             
161010025680402025111908000452730000001170+                                                                                                                                                             
161010025680502025111908000452730000000585+                                                                                                                                                             
161010025680602025111908000063560000000320+                                                                                                                                                             
161010025680702025111908000063560000000336+                                                                                                                                                             
161010025680802025111908000063560000000504+                                                                                                                                                             
161010025681002025111908000063560000000504+                                                                                                                                                             
161010025681202025111908000452730000000448+                                                                                                                                                             
161010025681402025111908000452730000000476+                                                                                                                                                             
161010025681602025111908000452730000000660+                                                                                                                                                             
161010025681902025111908000452730000000450+                                                                                                                                                             
161010025701802025111908000452730000000108+                                                                                                                                                             
161010025702002025111908000063560000000702+                                                                                                                                                             
161010025702102025111908000452730000000160+                                                                                                                                                             
161010025702302025111908000452730000000882+                                                                                                                                                             
161010025702702025111908000452730000000324+                                                                                                                                                             
161010025704402025111908000452730000001908+                                                                                                                                                             
161010025735502025111908000452730000000135+                                                                                                                                                             
161010025736802025111908000452730000001150+                                                                                                                                                             
161010025801002025111908000063560000000054+                                                                                                                                                             
161010026078102025111908000063560000000048+                                                                                                                                                             
161010026078502025111908000063560000000024+                                                                                                                                                             
161010026106402025111908000452730000000400+                                                                                                                                                             
161010026351302025111908000452730000000720+                                                                                                                                                             
161010026367802025111908000452730000000690+                                                                                                                                                             
161010026530302025111908000062140000000180+                                                                                                                                                             
161010026600602025111908000062140000000370+                                                                                                                                                             
161010026611602025111908000063560000000060+                                                                                                                                                             
161010026618702025111908000452730000000070+                                                                                                                                                             
161010026622802025111908000452730000000020+                                                                                                                                                             
161010026623502025111908000452730000000048+                                                                                                                                                             
161010026624402025111908000452730000000040+                                                                                                                                                             
161010026624602025111908000452730000000100+                                                                                                                                                             
161010026624802025111908000452730000000230+                                                                                                                                                             
161010026625202025111908000452730000000240+                                                                                                                                                             
161010026625402025111908000452730000000360+                                                                                                                                                             
161010026625602025111908000452730000000360+                                                                                                                                                             
161010026626502025111908000452730000000420+                                                                                                                                                             
161010026626602025111908000452730000000357+                                                                                                                                                             
161010026627002025111908000452730000000360+                                                                                                                                                             
161010026628502025111908000452730000000560+                                                                                                                                                             
161010026665002025111908000452730000000400+                                                                                                                                                             
161010026682202025111908000452730000000060+                                                                                                                                                             
161010026682902025111908000062140000000600+                                                                                                                                                             
161010026683002025111908000062140000000090+                                                                                                                                                             
161010026683102025111908000062140000000550+                                                                                                                                                             
161010026683802025111908000062140000000540+                                                                                                                                                             
161010026683902025111908000062140000000060+                                                                                                                                                             
161010026684002025111908000062140000000500+                                                                                                                                                             
161010026799402025111908000452730000000252+                                                                                                                                                             
161010026799802025111908000452730000000231+                                                                                                                                                             
161010026876202025111908000452730000000130+                                                                                                                                                             
161010026876802025111908000452730000000120+                                                                                                                                                             
161010026876902025111908000452730000000072+                                                                                                                                                             
161010026877102025111908000452730000000036+                                                                                                                                                             
161010026911302025111908000452730000000072+                                                                                                                                                             
161010026914802025111908000062140000000120+                                                                                                                                                             
161010026958902025111908000452730000000224+                                                                                                                                                             
161010027089702025111908000452730000000024+                                                                                                                                                             
161010027109902025111908000466990000000664+                                                                                                                                                             
161010027110002025111908000466990000000008+                                                                                                                                                             
161010027124702025111908000466990000000304+                                                                                                                                                             
161010027124802025111908000466990000000028+                                                                                                                                                             
161010027229302025111908000452730000000297+                                                                                                                                                             
161010027248002025111908000063560000000162+                                                                                                                                                             
161010027269802025111908000452730000000288+                                                                                                                                                             
161010027270002025111908000452730000000324+                                                                                                                                                             
161010027270202025111908000452730000000280+                                                                                                                                                             
161010027270302025111908000452730000000504+                                                                                                                                                             
161010027270402025111908000452730000000216+                                                                                                                                                             
161010027270502025111908000452730000000432+                                                                                                                                                             
161010027270702025111908000452730000000408+                                                                                                                                                             
161010027271102025111908000452730000000360+                                                                                                                                                             
