OP01161BIMF2025111310000605841V8AUTOMATIC                                                                                                                                                               
161000752049602025111308000063720000006000+                                                                                                                                                             
161000752754502025111308000063720000002000+                                                                                                                                                             
161000752849102025111308000063720000003000+                                                                                                                                                             
161000752865502025111308000063720000002400+                                                                                                                                                             
161000755208702025111308000063720000003360+                                                                                                                                                             
161000756019702025111308000063300000010000+                                                                                                                                                             
161000756858702025111308000284580000006000+                                                                                                                                                             
161000762544502025111308000063720000016000+                                                                                                                                                             
161001314118702025111308000063720000003000+                                                                                                                                                             
161001314198702025111308000063720000018000+                                                                                                                                                             
161001314208702025111308000057400000006000+                                                                                                                                                             
161001314208702025111308000063720000003000+                                                                                                                                                             
161001450668702025111308000063720000012000+                                                                                                                                                             
161001450678702025111308000063720000007200+                                                                                                                                                             
161001450758702025111308000063720000006900+                                                                                                                                                             
161001450768702025111308000063720000011000+                                                                                                                                                             
161001450848702025111308000063720000016000+                                                                                                                                                             
161001462238702025111308000063720000015340+                                                                                                                                                             
161004635428802025111308000063300000000720+                                                                                                                                                             
161004636040002025111308000284580000002000+                                                                                                                                                             
161004640135602025111308000056930000000432+                                                                                                                                                             
161004641658802025111308000063720000003000+                                                                                                                                                             
161004642981902025111308000063720000007590+                                                                                                                                                             
161004643638502025111308000063720000005440+                                                                                                                                                             
161004643638602025111308000063720000002400+                                                                                                                                                             
161004644010292025111308000369040000001400+                                                                                                                                                             
161004644635902025111308000063720000010000+                                                                                                                                                             
161004644870502025111308000057400000015000+                                                                                                                                                             
161004645151802025111308000063720000002550+                                                                                                                                                             
161004645589202025111308000056930000000960+                                                                                                                                                             
161004646412402025111308000063720000024000+                                                                                                                                                             
161004651444102025111308000063300000000720+                                                                                                                                                             
161004651526702025111308000063300000010000+                                                                                                                                                             
161004652740302025111308000063720000001200+                                                                                                                                                             
161004652839202025111308000063300000015000+                                                                                                                                                             
161004653038502025111308000063300000003000+                                                                                                                                                             
161004673627102025111308000063300000004500+                                                                                                                                                             
161004675886492025111308000369040000001444+                                                                                                                                                             
161004676360502025111308000063720000002000+                                                                                                                                                             
161004678350002025111308000063300000003500+                                                                                                                                                             
161004678476602025111308000063720000004800+                                                                                                                                                             
161004679005902025111308000063720000002400+                                                                                                                                                             
161004679266002025111308000027000000000168+                                                                                                                                                             
161004680426302025111308000063720000017000+                                                                                                                                                             
161005170815202025111308000063720000001000+                                                                                                                                                             
161005171698802025111308000284580000002000+                                                                                                                                                             
161005174912402025111308000056930000001568+                                                                                                                                                             
161005174995502025111308000063720000001500+                                                                                                                                                             
161005176182402025111308000063720000012000+                                                                                                                                                             
161005176445702025111308000063720000001000+                                                                                                                                                             
161005178551602025111308000450910000001470+                                                                                                                                                             
161005180698202025111308000063720000006400+                                                                                                                                                             
161005182260202025111308000063300000006000+                                                                                                                                                             
161005183501302025111308000063050000000450+                                                                                                                                                             
161005183660202025111308000063300000000960+                                                                                                                                                             
161005183692002025111308000056930000001568+                                                                                                                                                             
161005187166702025111308000063720000001200+                                                                                                                                                             
161005187314502025111308000063300000002400+                                                                                                                                                             
161005187703902025111308000386910000000160+                                                                                                                                                             
161005189724502025111308000056930000002340+                                                                                                                                                             
161005190078602025111308000063720000003000+                                                                                                                                                             
161005192491802025111308000056930000001440+                                                                                                                                                             
161005192491902025111308000056930000002340+                                                                                                                                                             
161005194999102025111308000063720000001560+                                                                                                                                                             
161005196425402025111308000063300000000240+                                                                                                                                                             
161005197955802025111308000063300000000240+                                                                                                                                                             
161005198012902025111308000027000000000900+                                                                                                                                                             
161005198013102025111308000027000000001600+                                                                                                                                                             
161005198111802025111308000063300000000100+                                                                                                                                                             
161005198406402025111308000467780000000960+                                                                                                                                                             
161005198406502025111308000467780000000960+                                                                                                                                                             
161005200423102025111308000284580000002000+                                                                                                                                                             
161005200431102025111308000284580000000700+                                                                                                                                                             
161005200481102025111308000369040000000499+                                                                                                                                                             
161005200583802025111308000386910000000560+                                                                                                                                                             
161005200591402025111308000386910000000400+                                                                                                                                                             
161005200610602025111308000284580000002000+                                                                                                                                                             
161005200685802025111308000065230000000440+                                                                                                                                                             
161005201710702025111308000284580000000900+                                                                                                                                                             
161005202308502025111308000057130000001000+                                                                                                                                                             
161005202351102025111308000284580000000700+                                                                                                                                                             
161005202353102025111308000284580000006000+                                                                                                                                                             
161005202377002025111308000065230000000054+                                                                                                                                                             
161005202481402025111308000057130000000700+                                                                                                                                                             
161005202588702025111308000063720000003000+                                                                                                                                                             
161005202730602025111308000284580000000600+                                                                                                                                                             
161005203886802025111308000063720000002000+                                                                                                                                                             
161005204415702025111308000063300000000280+                                                                                                                                                             
161005204415702025111308000386910000000315+                                                                                                                                                             
161005204416502025111308000063300000000360+                                                                                                                                                             
161005204452302025111308000027000000000350+                                                                                                                                                             
161005204473702025111308000063720000004000+                                                                                                                                                             
161005204789402025111308000063720000003600+                                                                                                                                                             
161005204796002025111308000284580000003000+                                                                                                                                                             
161005205320102025111308000057130000000800+                                                                                                                                                             
161005205413802025111308000284580000000900+                                                                                                                                                             
161005205627002025111308000063720000007200+                                                                                                                                                             
161005206633402025111308000369040000000013+                                                                                                                                                             
161005206740002025111308000063720000001500+                                                                                                                                                             
161005207292902025111308000063720000002100+                                                                                                                                                             
161005207293002025111308000063720000002400+                                                                                                                                                             
161005207990002025111308000063720000003000+                                                                                                                                                             
161005208434402025111308000284580000003000+                                                                                                                                                             
161005209094002025111308000369040000000350+                                                                                                                                                             
161005209293602025111308000027000000000960+                                                                                                                                                             
161005209465802025111308000027000000000168+                                                                                                                                                             
161005212735502025111308000369040000001132+                                                                                                                                                             
161005212736602025111308000369040000000446+                                                                                                                                                             
161005212807002025111308000066480000000700+                                                                                                                                                             
161005212807102025111308000066480000000285+                                                                                                                                                             
161005212811902025111308000450910000000915+                                                                                                                                                             
161005212851402025111308000063300000000300+                                                                                                                                                             
161005212851402025111308000386910000000300+                                                                                                                                                             
161005212851502025111308000063300000000280+                                                                                                                                                             
161005212851502025111308000386910000000280+                                                                                                                                                             
161005212883902025111308000027000000000120+                                                                                                                                                             
161005212910102025111308000063720000007210+                                                                                                                                                             
161005213800502025111308000027000000000420+                                                                                                                                                             
161005213814402025111308000284580000000700+                                                                                                                                                             
161005213995002025111308000066480000000200+                                                                                                                                                             
161005214808902025111308000063720000003000+                                                                                                                                                             
161005215127202025111308000065230000002685+                                                                                                                                                             
161005215128102025111308000065230000002285+                                                                                                                                                             
161005215450402025111308000386910000001200+                                                                                                                                                             
161005215567302025111308000063720000003000+                                                                                                                                                             
161005215687502025111308000063300000003000+                                                                                                                                                             
161005215788602025111308000369040000000625+                                                                                                                                                             
161005215789102025111308000369040000000534+                                                                                                                                                             
161005216070702025111308000450910000001512+                                                                                                                                                             
161005216070802025111308000450910000002376+                                                                                                                                                             
161005216279202025111308000063720000001725+                                                                                                                                                             
161005216279302025111308000063720000001650+                                                                                                                                                             
161005216338302025111308000063720000002100+                                                                                                                                                             
161005216402402025111308000386910000000600+                                                                                                                                                             
161005216402502025111308000386910000000300+                                                                                                                                                             
161005216424202025111308000063720000001500+                                                                                                                                                             
161005216843102025111308000032410000000500+                                                                                                                                                             
161005216843302025111308000032410000000500+                                                                                                                                                             
161005216872702025111308000063300000003000+                                                                                                                                                             
161005217297302025111308000056930000000420+                                                                                                                                                             
161005217441102025111308000056930000000720+                                                                                                                                                             
161005217441502025111308000056930000000700+                                                                                                                                                             
161005217461402025111308000450910000000305+                                                                                                                                                             
161005217478002025111308000450910000000648+                                                                                                                                                             
161005217478202025111308000450910000000864+                                                                                                                                                             
161005217883502025111308000027000000000100+                                                                                                                                                             
161005218033402025111308000057130000000800+                                                                                                                                                             
161005218247602025111308000386910000000300+                                                                                                                                                             
161005218257502025111308000450910000000610+                                                                                                                                                             
161005219345602025111308000369040000001176+                                                                                                                                                             
161005220188302025111308000063300000000944+                                                                                                                                                             
161005220188402025111308000063300000000944+                                                                                                                                                             
161005220218102025111308000027000000001680+                                                                                                                                                             
161005220517902025111308000369040000000215+                                                                                                                                                             
161005221105902025111308000063300000000600+                                                                                                                                                             
161005221106002025111308000063300000000300+                                                                                                                                                             
161005221106102025111308000063300000000600+                                                                                                                                                             
161005221106202025111308000063300000000150+                                                                                                                                                             
161005221106302025111308000063300000000600+                                                                                                                                                             
161005221106502025111308000063300000000600+                                                                                                                                                             
161005221107402025111308000063300000000500+                                                                                                                                                             
161005221107602025111308000063300000000250+                                                                                                                                                             
161005221107802025111308000063300000000600+                                                                                                                                                             
161005221107902025111308000063300000000150+                                                                                                                                                             
161005221108002025111308000063300000000450+                                                                                                                                                             
161005221266802025111308000027000000000080+                                                                                                                                                             
161005221266902025111308000027000000000100+                                                                                                                                                             
161005221373702025111308000450910000000735+                                                                                                                                                             
161005221609302025111308000063300000000300+                                                                                                                                                             
161005221609402025111308000063300000000300+                                                                                                                                                             
161005221837702025111308000063300000000800+                                                                                                                                                             
161005221884302025111308000063050000000140+                                                                                                                                                             
161005221884402025111308000063050000000140+                                                                                                                                                             
161005222201502025111308000252810000000300+                                                                                                                                                             
161005222201702025111308000252810000000300+                                                                                                                                                             
161005222202102025111308000252810000000200+                                                                                                                                                             
161005222202202025111308000252810000000200+                                                                                                                                                             
161005222202302025111308000252810000000300+                                                                                                                                                             
161005222202502025111308000252810000000300+                                                                                                                                                             
161005222219502025111308000063300000001400+                                                                                                                                                             
161005222219602025111308000063300000000700+                                                                                                                                                             
161005222219702025111308000063300000000500+                                                                                                                                                             
161005222219802025111308000063300000000500+                                                                                                                                                             
161005222256802025111308000443730000000420+                                                                                                                                                             
161005222257002025111308000443730000000420+                                                                                                                                                             
161005222257302025111308000284580000000160+                                                                                                                                                             
161005222339302025111308000066480000000300+                                                                                                                                                             
161005222389702025111308000057130000002024+                                                                                                                                                             
161005222390102025111308000057130000001000+                                                                                                                                                             
161005222390302025111308000057130000000328+                                                                                                                                                             
161005222397802025111308000066480000000132+                                                                                                                                                             
161005222398002025111308000066480000000150+                                                                                                                                                             
161005222400402025111308000065230000000712+                                                                                                                                                             
161005222400602025111308000065230000001192+                                                                                                                                                             
161005222421102025111308000252810000000200+                                                                                                                                                             
161005222428202025111308000369040000000225+                                                                                                                                                             
161005222436602025111308000450910000000490+                                                                                                                                                             
161005222716502025111308000467780000000560+                                                                                                                                                             
161005222926402025111308000386910000000720+                                                                                                                                                             
161005223104002025111308000032410000000630+                                                                                                                                                             
161005223119402025111308000057130000002000+                                                                                                                                                             
161005223119602025111308000284580000002010+                                                                                                                                                             
161005223337902025111308000063720000003000+                                                                                                                                                             
161005223577602025111308000063300000000300+                                                                                                                                                             
161005223577702025111308000063300000000300+                                                                                                                                                             
161005224369302025111308000252810000000966+                                                                                                                                                             
161005224369602025111308000252810000000144+                                                                                                                                                             
161005224658902025111308000063300000000400+                                                                                                                                                             
161005224658902025111308000386910000000450+                                                                                                                                                             
161005224659002025111308000063300000000200+                                                                                                                                                             
161005224826502025111308000063720000004500+                                                                                                                                                             
161005224856602025111308000027310000001200+                                                                                                                                                             
161005224944602025111308000027310000000480+                                                                                                                                                             
161005224944702025111308000027310000000480+                                                                                                                                                             
161005225108202025111308000063300000001200+                                                                                                                                                             
161005225108302025111308000063300000001200+                                                                                                                                                             
161005225108402025111308000063300000001200+                                                                                                                                                             
161005225108502025111308000063300000001200+                                                                                                                                                             
161005225679102025111308000443730000000024+                                                                                                                                                             
161005225679302025111308000443730000000025+                                                                                                                                                             
161005225968002025111308000065230000001740+                                                                                                                                                             
161005225968102025111308000065230000000582+                                                                                                                                                             
161005225968202025111308000065230000000448+                                                                                                                                                             
161005226018802025111308000331280000001680+                                                                                                                                                             
161005226019102025111308000331280000000960+                                                                                                                                                             
161005226077102025111308000331280000000320+                                                                                                                                                             
161005226419402025111308000057130000000400+                                                                                                                                                             
161005226557202025111308000057130000000400+                                                                                                                                                             
161005226557402025111308000057130000000400+                                                                                                                                                             
161005227055902025111308000063300000000900+                                                                                                                                                             
161005227595502025111308000065230000000894+                                                                                                                                                             
161005348402202025111308000284580000001500+                                                                                                                                                             
161005348402302025111308000284580000001500+                                                                                                                                                             
161005349405902025111308000284580000001500+                                                                                                                                                             
161005528250902025111308000284580000002500+                                                                                                                                                             
161010017478202025111308000063300000000600+                                                                                                                                                             
161010020128602025111308000063300000000969+                                                                                                                                                             
161010022343902025111308000063300000000150+                                                                                                                                                             
161010024153002025111308000066480000000123+                                                                                                                                                             
161010024432702025111308000063300000000130+                                                                                                                                                             
161010024456602025111308000063300000001200+                                                                                                                                                             
161010024978702025111308000063300000000650+                                                                                                                                                             
161010025782502025111308000063300000000456+                                                                                                                                                             
161010025782602025111308000063300000000600+                                                                                                                                                             
161010025843302025111308000386910000000080+                                                                                                                                                             
161010025843402025111308000386910000000080+                                                                                                                                                             
161010025874802025111308000062480000000098+                                                                                                                                                             
161010025954102025111308000386910000000240+                                                                                                                                                             
161010025954202025111308000386910000000200+                                                                                                                                                             
161010026102002025111308000063300000000130+                                                                                                                                                             
161010026367402025111308000063300000000624+                                                                                                                                                             
161010026534202025111308000032410000000600+                                                                                                                                                             
161010026620502025111308000404890000000300+                                                                                                                                                             
161010026632402025111308000063300000000130+                                                                                                                                                             
161010026877302025111308000063300000000306+                                                                                                                                                             
161010027269402025111308000386910000000300+                                                                                                                                                             
161010027269502025111308000386910000000300+                                                                                                                                                             
161010027269602025111308000386910000000200+                                                                                                                                                             
161010027269702025111308000063300000000800+                                                                                                                                                             
161010027318602025111308000066480000000077+                                                                                                                                                             
161010027444102025111308000063050000000240+                                                                                                                                                             
161010027569502025111308000404890000000400+                                                                                                                                                             
161010027631502025111308000062480000000279+                                                                                                                                                             
161010027631902025111308000062480000000335+                                                                                                                                                             
161010027999202025111308000062480000000140+                                                                                                                                                             
161010028381002025111308000062480000000300+                                                                                                                                                             
161010028458802025111308000386910000000420+                                                                                                                                                             
161010028587902025111308000404890000001500+                                                                                                                                                             
161010028698202025111308000062480000000136+                                                                                                                                                             
161010028713002025111308000062480000000300+                                                                                                                                                             
161000757768002025111308000063570000002400+                                                                                                                                                             
161001450348702025111308000063570000002200+                                                                                                                                                             
161004644074102025111308000063570000001330+                                                                                                                                                             
161004644456502025111308000063570000002000+                                                                                                                                                             
161005000774402025111308000152290000000900+                                                                                                                                                             
161005180109802025111308000063560000002500+                                                                                                                                                             
161005187612902025111308000063570000000600+                                                                                                                                                             
161005189479502025111308000059020000007200+                                                                                                                                                             
161005189882102025111308000063570000000600+                                                                                                                                                             
161005200237702025111308000059020000000232+                                                                                                                                                             
161005202897002025111308000063570000000448+                                                                                                                                                             
161005205731102025111308000059020000000384+                                                                                                                                                             
161005208679502025111308000059020000000792+                                                                                                                                                             
161005208679602025111308000059020000000792+                                                                                                                                                             
161005208799002025111308000063570000001440+                                                                                                                                                             
161005209642302025111308000063570000010500+                                                                                                                                                             
161005209642302025111308000152290000001500+                                                                                                                                                             
161005209978502025111308000059020000000160+                                                                                                                                                             
161005210401902025111308000063570000002000+                                                                                                                                                             
161005212684802025111308000059020000001353+                                                                                                                                                             
161005215190502025111308000059020000000048+                                                                                                                                                             
161005216219602025111308000308340000000116+                                                                                                                                                             
161005216228302025111308000308340000000087+                                                                                                                                                             
161005216342402025111308000452730000000350+                                                                                                                                                             
161005216419702025111308000059020000000480+                                                                                                                                                             
161005216419802025111308000059020000000420+                                                                                                                                                             
161005216419902025111308000059020000000480+                                                                                                                                                             
161005217449602025111308000059020000000064+                                                                                                                                                             
161005218414202025111308000308340000000324+                                                                                                                                                             
161005218984302025111308000059020000000165+                                                                                                                                                             
161005219185502025111308000059020000000297+                                                                                                                                                             
161005219185602025111308000059020000000066+                                                                                                                                                             
161005219247502025111308000452730000000240+                                                                                                                                                             
161005219247702025111308000452730000000060+                                                                                                                                                             
161005219247902025111308000452730000000264+                                                                                                                                                             
161005219248302025111308000452730000000072+                                                                                                                                                             
161005220455602025111308000063570000001080+                                                                                                                                                             
161005221346302025111308000059020000000048+                                                                                                                                                             
161005221390602025111308000063560000000060+                                                                                                                                                             
161005221390802025111308000063560000000060+                                                                                                                                                             
161005222292102025111308000308340000000348+                                                                                                                                                             
161005222554602025111308000452730000000288+                                                                                                                                                             
161005222554802025111308000452730000000324+                                                                                                                                                             
161005222611502025111308000059020000000060+                                                                                                                                                             
161005222854402025111308000466990000000136+                                                                                                                                                             
161005223511302025111308000059020000000312+                                                                                                                                                             
161005225894702025111308000308340000000048+                                                                                                                                                             
161005225895002025111308000308340000000250+                                                                                                                                                             
161005225895202025111308000308340000000376+                                                                                                                                                             
161005225895302025111308000308340000000376+                                                                                                                                                             
161005225895402025111308000308340000000188+                                                                                                                                                             
161005225895502025111308000308340000000188+                                                                                                                                                             
161005225895602025111308000308340000000396+                                                                                                                                                             
161005225895702025111308000308340000000396+                                                                                                                                                             
161005225895802025111308000308340000000264+                                                                                                                                                             
161005225895902025111308000308340000000264+                                                                                                                                                             
161005227090002025111308000466990000000140+                                                                                                                                                             
161005227090102025111308000466990000000056+                                                                                                                                                             
161005227090202025111308000466990000000004+                                                                                                                                                             
161005227090302025111308000466990000000196+                                                                                                                                                             
161005227090402025111308000466990000000044+                                                                                                                                                             
161005227154702025111308000466990000000012+                                                                                                                                                             
161005227154802025111308000466990000000044+                                                                                                                                                             
161010018527202025111308000063570000001008+                                                                                                                                                             
161010019458802025111308000063570000000300+                                                                                                                                                             
161010019585902025111308000063570000000070+                                                                                                                                                             
161010020033202025111308000063570000000900+                                                                                                                                                             
161010023289202025111308000152290000000120+                                                                                                                                                             
161010023289202025111308000452730000000120+                                                                                                                                                             
161010023289302025111308000152290000000060+                                                                                                                                                             
161010023289302025111308000452730000000060+                                                                                                                                                             
161010023289402025111308000152290000000120+                                                                                                                                                             
161010023289402025111308000452730000000120+                                                                                                                                                             
161010023289502025111308000152290000000060+                                                                                                                                                             
161010023289502025111308000452730000000060+                                                                                                                                                             
161010023327502025111308000062140000000360+                                                                                                                                                             
161010024180802025111308000059020000000232+                                                                                                                                                             
161010024433002025111308000452730000000840+                                                                                                                                                             
161010024433202025111308000452730000000840+                                                                                                                                                             
161010024433402025111308000452730000001320+                                                                                                                                                             
161010024433602025111308000452730000001440+                                                                                                                                                             
161010024434702025111308000452730000003848+                                                                                                                                                             
161010024435302025111308000452730000003432+                                                                                                                                                             
161010024435702025111308000063560000000756+                                                                                                                                                             
161010024435902025111308000063560000000576+                                                                                                                                                             
161010024436202025111308000452730000000600+                                                                                                                                                             
161010024436402025111308000452730000000840+                                                                                                                                                             
161010024436802025111308000059020000000384+                                                                                                                                                             
161010024437202025111308000059020000000320+                                                                                                                                                             
161010024437702025111308000452730000000858+                                                                                                                                                             
161010024438302025111308000452730000000792+                                                                                                                                                             
161010024440402025111308000452730000000368+                                                                                                                                                             
161010024455602025111308000063570000001000+                                                                                                                                                             
161010024456402025111308000063570000000216+                                                                                                                                                             
161010024457602025111308000063570000000330+                                                                                                                                                             
161010024457802025111308000452730000000756+                                                                                                                                                             
161010024458602025111308000063570000000288+                                                                                                                                                             
161010024458802025111308000063570000000288+                                                                                                                                                             
161010024459102025111308000063570000000576+                                                                                                                                                             
161010024459302025111308000063570000000072+                                                                                                                                                             
161010024459402025111308000063570000000288+                                                                                                                                                             
161010024517302025111308000452730000000432+                                                                                                                                                             
161010024558702025111308000063570000000168+                                                                                                                                                             
161010024558802025111308000063570000000560+                                                                                                                                                             
161010024561902025111308000452730000000486+                                                                                                                                                             
161010025431702025111308000063570000000648+                                                                                                                                                             
161010025431902025111308000063570000000480+                                                                                                                                                             
161010025483802025111308000063570000002310+                                                                                                                                                             
161010025526402025111308000063560000000312+                                                                                                                                                             
161010025528002025111308000063560000000048+                                                                                                                                                             
161010025648902025111308000452730000000032+                                                                                                                                                             
161010025677902025111308000452730000001008+                                                                                                                                                             
161010025678102025111308000452730000000840+                                                                                                                                                             
161010025679602025111308000452730000000288+                                                                                                                                                             
161010025679702025111308000452730000000288+                                                                                                                                                             
161010025679802025111308000452730000000384+                                                                                                                                                             
161010025679902025111308000452730000000567+                                                                                                                                                             
161010025680202025111308000452730000000513+                                                                                                                                                             
161010025680402025111308000452730000001170+                                                                                                                                                             
161010025680502025111308000452730000001170+                                                                                                                                                             
161010025680602025111308000063560000000448+                                                                                                                                                             
161010025680702025111308000063560000000432+                                                                                                                                                             
161010025680802025111308000063560000000360+                                                                                                                                                             
161010025681002025111308000063560000000360+                                                                                                                                                             
161010025681202025111308000452730000000532+                                                                                                                                                             
161010025681402025111308000452730000000504+                                                                                                                                                             
161010025681602025111308000452730000000510+                                                                                                                                                             
161010025681902025111308000452730000000510+                                                                                                                                                             
161010025701802025111308000452730000000144+                                                                                                                                                             
161010025702002025111308000063560000001080+                                                                                                                                                             
161010025702102025111308000452730000000084+                                                                                                                                                             
161010025702302025111308000452730000000840+                                                                                                                                                             
161010025702702025111308000452730000000216+                                                                                                                                                             
161010025704402025111308000452730000001656+                                                                                                                                                             
161010025705002025111308000063570000001120+                                                                                                                                                             
161010025735502025111308000452730000000090+                                                                                                                                                             
161010025736802025111308000452730000000690+                                                                                                                                                             
161010025791402025111308000063570000000315+                                                                                                                                                             
161010025801002025111308000063560000000054+                                                                                                                                                             
161010026078102025111308000063560000000024+                                                                                                                                                             
161010026106402025111308000452730000000368+                                                                                                                                                             
161010026351302025111308000452730000000720+                                                                                                                                                             
161010026367802025111308000452730000000920+                                                                                                                                                             
161010026530302025111308000062140000000330+                                                                                                                                                             
161010026600602025111308000062140000000230+                                                                                                                                                             
161010026611602025111308000063560000000060+                                                                                                                                                             
161010026618702025111308000452730000000126+                                                                                                                                                             
161010026622802025111308000452730000000070+                                                                                                                                                             
161010026623502025111308000452730000000036+                                                                                                                                                             
161010026623802025111308000452730000000072+                                                                                                                                                             
161010026625202025111308000452730000000400+                                                                                                                                                             
161010026625402025111308000452730000000432+                                                                                                                                                             
161010026625602025111308000452730000000432+                                                                                                                                                             
161010026626502025111308000452730000000600+                                                                                                                                                             
161010026626602025111308000452730000000306+                                                                                                                                                             
161010026626802025111308000452730000000090+                                                                                                                                                             
161010026627002025111308000452730000000360+                                                                                                                                                             
161010026628502025111308000452730000000280+                                                                                                                                                             
161010026629702025111308000063570000000396+                                                                                                                                                             
161010026665002025111308000452730000000448+                                                                                                                                                             
161010026682202025111308000452730000000030+                                                                                                                                                             
161010026682902025111308000062140000000180+                                                                                                                                                             
161010026683002025111308000062140000000030+                                                                                                                                                             
161010026683102025111308000062140000000080+                                                                                                                                                             
161010026683802025111308000062140000000240+                                                                                                                                                             
161010026683902025111308000062140000000030+                                                                                                                                                             
161010026684002025111308000062140000000150+                                                                                                                                                             
161010026799402025111308000452730000000294+                                                                                                                                                             
161010026799802025111308000452730000000308+                                                                                                                                                             
161010026876102025111308000452730000000130+                                                                                                                                                             
161010026876202025111308000452730000000130+                                                                                                                                                             
161010026876702025111308000452730000000120+                                                                                                                                                             
161010026876802025111308000452730000000120+                                                                                                                                                             
161010026876902025111308000452730000000108+                                                                                                                                                             
161010026877102025111308000452730000000180+                                                                                                                                                             
161010026914802025111308000062140000000060+                                                                                                                                                             
161010026958902025111308000452730000000224+                                                                                                                                                             
161010027030702025111308000063570000000144+                                                                                                                                                             
161010027089702025111308000452730000000096+                                                                                                                                                             
161010027109902025111308000466990000000696+                                                                                                                                                             
161010027124702025111308000466990000000304+                                                                                                                                                             
161010027124802025111308000466990000000024+                                                                                                                                                             
161010027183102025111308000063570000000360+                                                                                                                                                             
161010027183302025111308000063570000000360+                                                                                                                                                             
161010027229302025111308000452730000000567+                                                                                                                                                             
161010027248002025111308000063560000000162+                                                                                                                                                             
161010027254502025111308000063560000000020+                                                                                                                                                             
161010027263302025111308000063570000000688+                                                                                                                                                             
161010027269202025111308000452730000000036+                                                                                                                                                             
161010027269802025111308000452730000000252+                                                                                                                                                             
161010027270002025111308000452730000000360+                                                                                                                                                             
161010027270202025111308000452730000000336+                                                                                                                                                             
161010027270302025111308000452730000000336+                                                                                                                                                             
161010027270402025111308000452730000000540+                                                                                                                                                             
161010027270502025111308000452730000000264+                                                                                                                                                             
161010027270702025111308000452730000000264+                                                                                                                                                             
161010027271102025111308000452730000000252+                                                                                                                                                             
161010027271302025111308000452730000000252+                                                                                                                                                             
161010027272102025111308000452730000000060+                                                                                                                                                             
161010027272902025111308000452730000000324+                                                                                                                                                             
161010027273102025111308000452730000000364+                                                                                                                                                             
161010027292502025111308000452730000000660+                                                                                                                                                             
161010027298802025111308000452730000000315+                                                                                                                                                             
161010027299002025111308000452730000000640+                                                                                                                                                             
161010027305502025111308000452730000000216+                                                                                                                                                             
161010027336902025111308000452730000000100+                                                                                                                                                             
161010027337002025111308000452730000000300+                                                                                                                                                             
161010027444202025111308000466990000000380+                                                                                                                                                             
161010027476302025111308000063560000000020+                                                                                                                                                             
161010027528202025111308000452730000000060+                                                                                                                                                             
161010027543802025111308000452730000000420+                                                                                                                                                             
161010027555502025111308000062140000000060+                                                                                                                                                             
161010027555902025111308000062140000000060+                                                                                                                                                             
161010027562502025111308000063570000000060+                                                                                                                                                             
161010027562702025111308000063570000000060+                                                                                                                                                             
161010027588202025111308000063570000000150+                                                                                                                                                             
161010027601102025111308000063570000000060+                                                                                                                                                             
161010027601502025111308000063570000000120+                                                                                                                                                             
161010027708502025111308000452730000000252+                                                                                                                                                             
161010027708702025111308000452730000000072+                                                                                                                                                             
161010027708902025111308000452730000000108+                                                                                                                                                             
161010027720002025111308000452730000000120+                                                                                                                                                             
161010027720302025111308000452730000000216+                                                                                                                                                             
161010027726802025111308000452730000000036+                                                                                                                                                             
161010027727602025111308000452730000000036+                                                                                                                                                             
161010027758902025111308000063570000000060+                                                                                                                                                             
