OP01161BIMF2025120410000605892V8AUTOMATIC                                                                                                                                                               
161000752049602025120408000063720000006000+                                                                                                                                                             
161000752754502025120408000063720000002000+                                                                                                                                                             
161000752849102025120408000063720000003000+                                                                                                                                                             
161000752865502025120408000063720000005200+                                                                                                                                                             
161000755208702025120408000063720000002400+                                                                                                                                                             
161000756019702025120408000063300000020000+                                                                                                                                                             
161000762544502025120408000063720000010000+                                                                                                                                                             
161001314198702025120408000063720000016000+                                                                                                                                                             
161001450678702025120408000063720000024000+                                                                                                                                                             
161001450758702025120408000063720000016100+                                                                                                                                                             
161001450768702025120408000063720000015400+                                                                                                                                                             
161001462238702025120408000063720000009440+                                                                                                                                                             
161004640135602025120408000056930000000936+                                                                                                                                                             
161004641658802025120408000063720000003000+                                                                                                                                                             
161004642981902025120408000063720000004290+                                                                                                                                                             
161004643638502025120408000063720000002720+                                                                                                                                                             
161004643638602025120408000063720000002400+                                                                                                                                                             
161004644010292025120408000369040000000600+                                                                                                                                                             
161004644635902025120408000063720000005500+                                                                                                                                                             
161004645151802025120408000063720000004250+                                                                                                                                                             
161004645589202025120408000056930000000960+                                                                                                                                                             
161004646412402025120408000063720000017400+                                                                                                                                                             
161004651444102025120408000063300000000720+                                                                                                                                                             
161004652839202025120408000063300000017500+                                                                                                                                                             
161004675886492025120408000369040000000579+                                                                                                                                                             
161004676360502025120408000063720000002000+                                                                                                                                                             
161004678350002025120408000063300000003000+                                                                                                                                                             
161004678476602025120408000063720000002400+                                                                                                                                                             
161004679005902025120408000063720000001200+                                                                                                                                                             
161004680426302025120408000063720000026000+                                                                                                                                                             
161004681831702025120408000036020000002200+                                                                                                                                                             
161004683451802025120408000462990000000800+                                                                                                                                                             
161005001044002025120408000063300000025000+                                                                                                                                                             
161005029131002025120408000422220000000600+                                                                                                                                                             
161005170815202025120408000063720000000400+                                                                                                                                                             
161005174912402025120408000056930000001568+                                                                                                                                                             
161005174995502025120408000063720000002500+                                                                                                                                                             
161005176004702025120408000063300000003000+                                                                                                                                                             
161005176182402025120408000063720000002250+                                                                                                                                                             
161005176445702025120408000063720000000600+                                                                                                                                                             
161005178551602025120408000450910000001715+                                                                                                                                                             
161005179306002025120408000462990000001000+                                                                                                                                                             
161005180698202025120408000063720000007200+                                                                                                                                                             
161005183660202025120408000063300000000560+                                                                                                                                                             
161005183692002025120408000056930000001568+                                                                                                                                                             
161005185542102025120408000462990000000750+                                                                                                                                                             
161005187166702025120408000063720000001200+                                                                                                                                                             
161005187314502025120408000063300000001200+                                                                                                                                                             
161005189724502025120408000056930000001820+                                                                                                                                                             
161005192491802025120408000056930000000864+                                                                                                                                                             
161005192491902025120408000056930000002340+                                                                                                                                                             
161005194009302025120408000098560000001500+                                                                                                                                                             
161005194999102025120408000063720000000600+                                                                                                                                                             
161005196425402025120408000063300000000240+                                                                                                                                                             
161005197955802025120408000063300000000240+                                                                                                                                                             
161005198012902025120408000027000000001296+                                                                                                                                                             
161005198013102025120408000027000000001296+                                                                                                                                                             
161005198406402025120408000467780000000480+                                                                                                                                                             
161005198406502025120408000467780000000960+                                                                                                                                                             
161005200583802025120408000386910000000160+                                                                                                                                                             
161005200685802025120408000065230000000164+                                                                                                                                                             
161005202308502025120408000057130000002000+                                                                                                                                                             
161005202377002025120408000065230000000032+                                                                                                                                                             
161005202588702025120408000063720000001500+                                                                                                                                                             
161005203261902025120408000467780000000008+                                                                                                                                                             
161005204415702025120408000063300000000280+                                                                                                                                                             
161005204415702025120408000386910000000350+                                                                                                                                                             
161005204416502025120408000063300000000414+                                                                                                                                                             
161005204452302025120408000027000000000250+                                                                                                                                                             
161005204473702025120408000063720000005600+                                                                                                                                                             
161005204582402025120408000098560000000800+                                                                                                                                                             
161005204583102025120408000462990000001488+                                                                                                                                                             
161005204583202025120408000462990000001488+                                                                                                                                                             
161005205320102025120408000057130000000600+                                                                                                                                                             
161005205627002025120408000063720000008000+                                                                                                                                                             
161005206633402025120408000369040000000142+                                                                                                                                                             
161005206740002025120408000063720000003600+                                                                                                                                                             
161005207292902025120408000063720000003000+                                                                                                                                                             
161005207293002025120408000063720000002400+                                                                                                                                                             
161005207990002025120408000063720000003000+                                                                                                                                                             
161005209085502025120408000027000000000420+                                                                                                                                                             
161005209094002025120408000369040000000450+                                                                                                                                                             
161005209293602025120408000027000000003240+                                                                                                                                                             
161005209465802025120408000027000000000252+                                                                                                                                                             
161005210226102025120408000063720000001000+                                                                                                                                                             
161005212735502025120408000369040000001900+                                                                                                                                                             
161005212736602025120408000369040000000450+                                                                                                                                                             
161005212807002025120408000066480000000700+                                                                                                                                                             
161005212807102025120408000066480000000627+                                                                                                                                                             
161005212811902025120408000450910000002674+                                                                                                                                                             
161005212851402025120408000063300000000600+                                                                                                                                                             
161005212851402025120408000386910000000300+                                                                                                                                                             
161005212851502025120408000063300000000280+                                                                                                                                                             
161005212851502025120408000386910000000210+                                                                                                                                                             
161005212884002025120408000027000000000450+                                                                                                                                                             
161005212910102025120408000063720000007000+                                                                                                                                                             
161005213800502025120408000027000000000660+                                                                                                                                                             
161005213994602025120408000098560000001200+                                                                                                                                                             
161005213995002025120408000066480000000316+                                                                                                                                                             
161005214808902025120408000063720000003000+                                                                                                                                                             
161005214841702025120408000462990000002600+                                                                                                                                                             
161005214982102025120408000036020000000728+                                                                                                                                                             
161005214982202025120408000036020000000336+                                                                                                                                                             
161005215127202025120408000065230000001892+                                                                                                                                                             
161005215128102025120408000065230000001492+                                                                                                                                                             
161005215436802025120408000032410000000300+                                                                                                                                                             
161005215450402025120408000386910000001050+                                                                                                                                                             
161005215451102025120408000060420000000750+                                                                                                                                                             
161005215567302025120408000063720000003000+                                                                                                                                                             
161005215703102025120408000057130000000600+                                                                                                                                                             
161005215703202025120408000065230000000092+                                                                                                                                                             
161005215788602025120408000369040000000990+                                                                                                                                                             
161005215789102025120408000369040000000650+                                                                                                                                                             
161005215964802025120408000066480000000756+                                                                                                                                                             
161005215964902025120408000066480000000676+                                                                                                                                                             
161005216070702025120408000450910000001440+                                                                                                                                                             
161005216070802025120408000450910000002304+                                                                                                                                                             
161005216218502025120408000066480000000310+                                                                                                                                                             
161005216279302025120408000063720000000275+                                                                                                                                                             
161005216338302025120408000063720000002100+                                                                                                                                                             
161005216424202025120408000063720000001500+                                                                                                                                                             
161005216843102025120408000032410000000600+                                                                                                                                                             
161005216843302025120408000032410000000600+                                                                                                                                                             
161005216869902025120408000060420000001025+                                                                                                                                                             
161005217028702025120408000066480000000076+                                                                                                                                                             
161005217297302025120408000056930000000420+                                                                                                                                                             
161005217298202025120408000098560000000800+                                                                                                                                                             
161005217441102025120408000056930000000864+                                                                                                                                                             
161005217441502025120408000056930000000840+                                                                                                                                                             
161005217461402025120408000450910000000764+                                                                                                                                                             
161005217461602025120408000029780000002400+                                                                                                                                                             
161005217476802025120408000029780000003168+                                                                                                                                                             
161005217478002025120408000450910000000864+                                                                                                                                                             
161005217478202025120408000450910000001152+                                                                                                                                                             
161005217598802025120408000060420000000350+                                                                                                                                                             
161005217883502025120408000027000000000300+                                                                                                                                                             
161005218033402025120408000057130000000900+                                                                                                                                                             
161005218247602025120408000386910000000400+                                                                                                                                                             
161005218257502025120408000450910000001146+                                                                                                                                                             
161005219174502025120408000252810000000056+                                                                                                                                                             
161005219345602025120408000369040000000805+                                                                                                                                                             
161005219805802025120408000467780000000160+                                                                                                                                                             
161005220188302025120408000063300000000944+                                                                                                                                                             
161005220188402025120408000063300000001200+                                                                                                                                                             
161005220218102025120408000027000000003000+                                                                                                                                                             
161005220517902025120408000369040000000690+                                                                                                                                                             
161005221021802025120408000065230000000350+                                                                                                                                                             
161005221105902025120408000063300000000600+                                                                                                                                                             
161005221106002025120408000063300000000300+                                                                                                                                                             
161005221106102025120408000063300000000450+                                                                                                                                                             
161005221106202025120408000063300000000300+                                                                                                                                                             
161005221106302025120408000063300000000300+                                                                                                                                                             
161005221106502025120408000063300000000600+                                                                                                                                                             
161005221107302025120408000063300000000300+                                                                                                                                                             
161005221107502025120408000063300000000300+                                                                                                                                                             
161005221107602025120408000063300000000250+                                                                                                                                                             
161005221107702025120408000063300000000300+                                                                                                                                                             
161005221107902025120408000063300000000300+                                                                                                                                                             
161005221207402025120408000462990000001500+                                                                                                                                                             
161005221266802025120408000027000000000080+                                                                                                                                                             
161005221266902025120408000027000000000550+                                                                                                                                                             
161005221373702025120408000450910000000735+                                                                                                                                                             
161005221609302025120408000063300000000150+                                                                                                                                                             
161005221609402025120408000063300000000150+                                                                                                                                                             
161005222202102025120408000252810000000100+                                                                                                                                                             
161005222202202025120408000252810000000100+                                                                                                                                                             
161005222202302025120408000252810000000300+                                                                                                                                                             
161005222202502025120408000252810000000300+                                                                                                                                                             
161005222219502025120408000063300000001400+                                                                                                                                                             
161005222219602025120408000063300000001400+                                                                                                                                                             
161005222219702025120408000063300000001000+                                                                                                                                                             
161005222256402025120408000443730000000420+                                                                                                                                                             
161005222256602025120408000443730000000420+                                                                                                                                                             
161005222256802025120408000443730000000210+                                                                                                                                                             
161005222257002025120408000443730000000210+                                                                                                                                                             
161005222389702025120408000057130000002576+                                                                                                                                                             
161005222389902025120408000057130000000540+                                                                                                                                                             
161005222390102025120408000057130000001000+                                                                                                                                                             
161005222397802025120408000066480000000150+                                                                                                                                                             
161005222400402025120408000065230000001808+                                                                                                                                                             
161005222400602025120408000065230000001980+                                                                                                                                                             
161005222436602025120408000450910000001146+                                                                                                                                                             
161005222510102025120408000098560000000800+                                                                                                                                                             
161005222510202025120408000098560000000800+                                                                                                                                                             
161005222716502025120408000467780000000784+                                                                                                                                                             
161005222761002025120408000369040000000055+                                                                                                                                                             
161005222926402025120408000386910000000720+                                                                                                                                                             
161005223104002025120408000032410000000630+                                                                                                                                                             
161005223119402025120408000057130000001500+                                                                                                                                                             
161005223119502025120408000057130000000500+                                                                                                                                                             
161005223554002025120408000060420000001500+                                                                                                                                                             
161005223577602025120408000063300000000350+                                                                                                                                                             
161005223577702025120408000063300000000350+                                                                                                                                                             
161005223627102025120408000060420000000350+                                                                                                                                                             
161005223689902025120408000063300000000400+                                                                                                                                                             
161005223930002025120408000060420000000742+                                                                                                                                                             
161005223938102025120408000066480000000320+                                                                                                                                                             
161005223968802025120408000060420000000602+                                                                                                                                                             
161005224369302025120408000252810000000420+                                                                                                                                                             
161005224369602025120408000252810000000192+                                                                                                                                                             
161005224658902025120408000063300000000300+                                                                                                                                                             
161005224658902025120408000386910000000300+                                                                                                                                                             
161005224659002025120408000063300000000200+                                                                                                                                                             
161005224826502025120408000063720000006000+                                                                                                                                                             
161005224856602025120408000027310000001200+                                                                                                                                                             
161005224944602025120408000027310000000480+                                                                                                                                                             
161005224944702025120408000027310000000480+                                                                                                                                                             
161005225108202025120408000063300000000900+                                                                                                                                                             
161005225108302025120408000063300000000900+                                                                                                                                                             
161005225108402025120408000063300000000900+                                                                                                                                                             
161005225108502025120408000063300000000900+                                                                                                                                                             
161005225507002025120408000060420000000448+                                                                                                                                                             
161005225507102025120408000060420000000154+                                                                                                                                                             
161005225762502025120408000060420000001895+                                                                                                                                                             
161005225968002025120408000065230000002132+                                                                                                                                                             
161005225968102025120408000065230000000464+                                                                                                                                                             
161005225968202025120408000065230000000772+                                                                                                                                                             
161005226084202025120408000060420000000150+                                                                                                                                                             
161005226419402025120408000057130000001556+                                                                                                                                                             
161005227055902025120408000063300000000600+                                                                                                                                                             
161005227595502025120408000065230000001472+                                                                                                                                                             
161010017478202025120408000063300000000450+                                                                                                                                                             
161010017627802025120408000462990000000247+                                                                                                                                                             
161010020128602025120408000063300000001197+                                                                                                                                                             
161010021505302025120408000462990000000585+                                                                                                                                                             
161010022110502025120408000462990000001600+                                                                                                                                                             
161010022118602025120408000462990000000080+                                                                                                                                                             
161010023329402025120408000036020000000120+                                                                                                                                                             
161010023329502025120408000036020000000120+                                                                                                                                                             
161010023662802025120408000036020000000150+                                                                                                                                                             
161010023662902025120408000036020000000150+                                                                                                                                                             
161010023663002025120408000036020000000280+                                                                                                                                                             
161010023663102025120408000036020000000280+                                                                                                                                                             
161010024438702025120408000030630000001080+                                                                                                                                                             
161010024439002025120408000030630000000360+                                                                                                                                                             
161010024443702025120408000432350000000964+                                                                                                                                                             
161010024456602025120408000063300000003000+                                                                                                                                                             
161010024561402025120408000462990000001300+                                                                                                                                                             
161010024855302025120408000030630000000720+                                                                                                                                                             
161010025214302025120408000432350000000080+                                                                                                                                                             
161010025214402025120408000432350000001000+                                                                                                                                                             
161010025361002025120408000432350000000912+                                                                                                                                                             
161010025475602025120408000432350000000200+                                                                                                                                                             
161010025628602025120408000432350000000300+                                                                                                                                                             
161010025721502025120408000036020000000500+                                                                                                                                                             
161010025721602025120408000036020000000500+                                                                                                                                                             
161010025737202025120408000036020000000396+                                                                                                                                                             
161010025737402025120408000036020000000400+                                                                                                                                                             
161010025782502025120408000063300000000456+                                                                                                                                                             
161010025782602025120408000063300000000600+                                                                                                                                                             
161010025844402025120408000462990000001900+                                                                                                                                                             
161010025895002025120408000462990000001800+                                                                                                                                                             
161010025901402025120408000036020000000456+                                                                                                                                                             
161010025901502025120408000036020000000456+                                                                                                                                                             
161010025954102025120408000386910000000240+                                                                                                                                                             
161010025954202025120408000386910000000200+                                                                                                                                                             
161010026043602025120408000061570000000288+                                                                                                                                                             
161010026043702025120408000061570000000288+                                                                                                                                                             
161010026043802025120408000061570000000288+                                                                                                                                                             
161010026043902025120408000061570000000288+                                                                                                                                                             
161010026102002025120408000063300000000360+                                                                                                                                                             
161010026347902025120408000462990000001470+                                                                                                                                                             
161010026364002025120408000036020000000140+                                                                                                                                                             
161010026364202025120408000036020000000280+                                                                                                                                                             
161010026367402025120408000063300000000480+                                                                                                                                                             
161010026439202025120408000063300000000300+                                                                                                                                                             
161010026588502025120408000462990000000800+                                                                                                                                                             
161010026632302025120408000063300000000260+                                                                                                                                                             
161010026632402025120408000063300000000130+                                                                                                                                                             
161010026637902025120408000432350000001992+                                                                                                                                                             
161010026877302025120408000063300000000306+                                                                                                                                                             
161010026958302025120408000036020000000700+                                                                                                                                                             
161010026958402025120408000036020000000700+                                                                                                                                                             
161010027062202025120408000036020000000110+                                                                                                                                                             
161010027069102025120408000036020000000110+                                                                                                                                                             
161010027069202025120408000036020000000070+                                                                                                                                                             
161010027069302025120408000036020000000070+                                                                                                                                                             
161010027224702025120408000060420000000600+                                                                                                                                                             
161010027269402025120408000386910000000120+                                                                                                                                                             
161010027269502025120408000386910000000200+                                                                                                                                                             
161010027269602025120408000386910000000140+                                                                                                                                                             
161010027269702025120408000063300000000600+                                                                                                                                                             
161010027338602025120408000063300000000600+                                                                                                                                                             
161010027711702025120408000036020000000300+                                                                                                                                                             
161010027711902025120408000036020000000300+                                                                                                                                                             
161010027828702025120408000060420000000510+                                                                                                                                                             
161010028266602025120408000036020000000154+                                                                                                                                                             
161010028266702025120408000036020000000140+                                                                                                                                                             
161010028266902025120408000036020000000140+                                                                                                                                                             
161010028396102025120408000432350000000260+                                                                                                                                                             
161010028398202025120408000462990000001908+                                                                                                                                                             
161010028398302025120408000462990000001908+                                                                                                                                                             
161010028477702025120408000432350000000252+                                                                                                                                                             
161010029015802025120408000432350000000500+                                                                                                                                                             
161073580238302025120408000422220000000600+                                                                                                                                                             
161073581177802025120408000422220000000160+                                                                                                                                                             
161000757767902025120408000063570000001000+                                                                                                                                                             
161000757768002025120408000063570000003600+                                                                                                                                                             
161004634188402025120408000063570000000348+                                                                                                                                                             
161004644456502025120408000063570000002000+                                                                                                                                                             
161005179114902025120408000059020000000500+                                                                                                                                                             
161005179772802025120408000063570000000300+                                                                                                                                                             
161005187612902025120408000063570000000600+                                                                                                                                                             
161005189479502025120408000059020000006400+                                                                                                                                                             
161005195017002025120408000452730000000550+                                                                                                                                                             
161005200237702025120408000059020000000232+                                                                                                                                                             
161005202897102025120408000063570000000224+                                                                                                                                                             
161005205731102025120408000059020000000600+                                                                                                                                                             
161005208679502025120408000059020000000792+                                                                                                                                                             
161005208679602025120408000059020000000792+                                                                                                                                                             
161005210401902025120408000063570000001000+                                                                                                                                                             
161005212684802025120408000059020000000924+                                                                                                                                                             
161005215190502025120408000059020000000024+                                                                                                                                                             
161005216219602025120408000308340000000145+                                                                                                                                                             
161005216228302025120408000308340000000116+                                                                                                                                                             
161005216342402025120408000452730000000700+                                                                                                                                                             
161005216419702025120408000059020000000540+                                                                                                                                                             
161005216419802025120408000059020000000540+                                                                                                                                                             
161005216419902025120408000059020000000720+                                                                                                                                                             
161005217449602025120408000059020000000032+                                                                                                                                                             
161005218414202025120408000308340000000210+                                                                                                                                                             
161005218984302025120408000059020000000132+                                                                                                                                                             
161005219185502025120408000059020000000396+                                                                                                                                                             
161005219185602025120408000059020000000066+                                                                                                                                                             
161005219247502025120408000452730000000180+                                                                                                                                                             
161005219247702025120408000452730000000060+                                                                                                                                                             
161005219247902025120408000452730000000264+                                                                                                                                                             
161005219248302025120408000452730000000096+                                                                                                                                                             
161005220455602025120408000063570000001080+                                                                                                                                                             
161005221346302025120408000059020000000024+                                                                                                                                                             
161005221567002025120408000059020000000800+                                                                                                                                                             
161005222292102025120408000308340000000174+                                                                                                                                                             
161005222554602025120408000452730000000216+                                                                                                                                                             
161005222554802025120408000452730000000252+                                                                                                                                                             
161005222611502025120408000059020000000030+                                                                                                                                                             
161005223511302025120408000059020000000384+                                                                                                                                                             
161005225894702025120408000308340000000192+                                                                                                                                                             
161005225895002025120408000308340000000150+                                                                                                                                                             
161005225895202025120408000308340000000470+                                                                                                                                                             
161005225895302025120408000308340000000470+                                                                                                                                                             
161005225895402025120408000308340000000094+                                                                                                                                                             
161005225895502025120408000308340000000094+                                                                                                                                                             
161005225895602025120408000308340000000264+                                                                                                                                                             
161005225895702025120408000308340000000264+                                                                                                                                                             
161005225895802025120408000308340000000176+                                                                                                                                                             
161005225895902025120408000308340000000176+                                                                                                                                                             
161005227090002025120408000466990000000076+                                                                                                                                                             
161005227090102025120408000466990000000060+                                                                                                                                                             
161005227090202025120408000466990000000164+                                                                                                                                                             
161005227090302025120408000466990000000156+                                                                                                                                                             
161005227090402025120408000466990000000036+                                                                                                                                                             
161005227154702025120408000466990000000012+                                                                                                                                                             
161005227154802025120408000466990000000024+                                                                                                                                                             
161005227168702025120408000466990000000080+                                                                                                                                                             
161005227168802025120408000466990000000008+                                                                                                                                                             
161010020033202025120408000063570000000900+                                                                                                                                                             
161010023289302025120408000452730000000120+                                                                                                                                                             
161010023289502025120408000152290000000060+                                                                                                                                                             
161010023289502025120408000452730000000120+                                                                                                                                                             
161010024180802025120408000059020000000580+                                                                                                                                                             
161010024433002025120408000452730000000840+                                                                                                                                                             
161010024433202025120408000452730000000864+                                                                                                                                                             
161010024433402025120408000452730000000660+                                                                                                                                                             
161010024433602025120408000452730000000840+                                                                                                                                                             
161010024434702025120408000452730000002392+                                                                                                                                                             
161010024435302025120408000452730000002704+                                                                                                                                                             
161010024435702025120408000063560000000720+                                                                                                                                                             
161010024435902025120408000063560000000612+                                                                                                                                                             
161010024436202025120408000452730000000840+                                                                                                                                                             
161010024436402025120408000452730000000840+                                                                                                                                                             
161010024436802025120408000059020000000448+                                                                                                                                                             
161010024437202025120408000059020000000608+                                                                                                                                                             
161010024437702025120408000452730000000792+                                                                                                                                                             
161010024438302025120408000452730000000858+                                                                                                                                                             
161010024440002025120408000062140000000140+                                                                                                                                                             
161010024440402025120408000452730000000752+                                                                                                                                                             
161010024457802025120408000452730000000396+                                                                                                                                                             
161010024458402025120408000063570000000180+                                                                                                                                                             
161010024458602025120408000063570000000288+                                                                                                                                                             
161010024458802025120408000063570000000384+                                                                                                                                                             
161010024459102025120408000063570000000576+                                                                                                                                                             
161010024459302025120408000063570000000072+                                                                                                                                                             
161010024459402025120408000063570000000288+                                                                                                                                                             
161010024517302025120408000452730000000504+                                                                                                                                                             
161010024517602025120408000063570000000300+                                                                                                                                                             
161010024517702025120408000063570000000780+                                                                                                                                                             
161010024526302025120408000063570000000648+                                                                                                                                                             
161010024558702025120408000063570000000672+                                                                                                                                                             
161010024558802025120408000063570000000952+                                                                                                                                                             
161010024559402025120408000063570000000096+                                                                                                                                                             
161010024561902025120408000452730000000594+                                                                                                                                                             
161010025483802025120408000063570000003960+                                                                                                                                                             
161010025524802025120408000063560000000120+                                                                                                                                                             
161010025526402025120408000063560000000168+                                                                                                                                                             
161010025528002025120408000063560000000312+                                                                                                                                                             
161010025677902025120408000452730000000924+                                                                                                                                                             
161010025678102025120408000452730000000588+                                                                                                                                                             
161010025679502025120408000452730000000208+                                                                                                                                                             
161010025679602025120408000452730000000288+                                                                                                                                                             
161010025679702025120408000452730000000240+                                                                                                                                                             
161010025679802025120408000452730000000384+                                                                                                                                                             
161010025679902025120408000452730000000864+                                                                                                                                                             
161010025680202025120408000452730000000864+                                                                                                                                                             
161010025680402025120408000452730000000585+                                                                                                                                                             
161010025680502025120408000452730000000585+                                                                                                                                                             
161010025680602025120408000063560000000064+                                                                                                                                                             
161010025680702025120408000063560000000064+                                                                                                                                                             
161010025680802025120408000063560000000288+                                                                                                                                                             
161010025681002025120408000063560000000216+                                                                                                                                                             
161010025681202025120408000452730000000364+                                                                                                                                                             
161010025681402025120408000452730000000280+                                                                                                                                                             
161010025681602025120408000452730000000360+                                                                                                                                                             
161010025681902025120408000452730000000390+                                                                                                                                                             
161010025701802025120408000452730000000252+                                                                                                                                                             
161010025702002025120408000063560000000576+                                                                                                                                                             
161010025702302025120408000452730000000588+                                                                                                                                                             
161010025702702025120408000452730000000270+                                                                                                                                                             
161010025704402025120408000452730000001404+                                                                                                                                                             
161010025705002025120408000063570000000840+                                                                                                                                                             
161010025706102025120408000063570000000216+                                                                                                                                                             
161010025735502025120408000452730000000090+                                                                                                                                                             
161010025736802025120408000452730000001380+                                                                                                                                                             
161010025791402025120408000063570000000630+                                                                                                                                                             
161010026106402025120408000452730000000448+                                                                                                                                                             
161010026271202025120408000063570000001536+                                                                                                                                                             
161010026351302025120408000452730000000720+                                                                                                                                                             
161010026367802025120408000452730000000230+                                                                                                                                                             
161010026530302025120408000062140000000170+                                                                                                                                                             
161010026600602025120408000062140000000160+                                                                                                                                                             
161010026610902025120408000063560000000020+                                                                                                                                                             
161010026611302025120408000063560000000060+                                                                                                                                                             
161010026611602025120408000063560000000100+                                                                                                                                                             
161010026612202025120408000063560000000100+                                                                                                                                                             
161010026618702025120408000452730000000112+                                                                                                                                                             
161010026622802025120408000452730000000020+                                                                                                                                                             
161010026623502025120408000452730000000228+                                                                                                                                                             
161010026624402025120408000452730000000200+                                                                                                                                                             
161010026625202025120408000452730000000640+                                                                                                                                                             
161010026625402025120408000452730000000432+                                                                                                                                                             
161010026625602025120408000452730000000432+                                                                                                                                                             
161010026626502025120408000452730000000690+                                                                                                                                                             
161010026626602025120408000452730000000357+                                                                                                                                                             
161010026627002025120408000452730000000270+                                                                                                                                                             
161010026628502025120408000452730000000560+                                                                                                                                                             
161010026665002025120408000452730000000352+                                                                                                                                                             
161010026682202025120408000452730000000240+                                                                                                                                                             
161010026682902025120408000062140000000690+                                                                                                                                                             
161010026683002025120408000062140000000090+                                                                                                                                                             
161010026683802025120408000062140000000720+                                                                                                                                                             
161010026683902025120408000062140000000060+                                                                                                                                                             
161010026685202025120408000452730000000200+                                                                                                                                                             
161010026686102025120408000452730000000160+                                                                                                                                                             
161010026799402025120408000452730000000294+                                                                                                                                                             
161010026799602025120408000452730000000028+                                                                                                                                                             
161010026799802025120408000452730000000231+                                                                                                                                                             
161010026800002025120408000452730000000077+                                                                                                                                                             
161010026876102025120408000452730000000130+                                                                                                                                                             
161010026876202025120408000452730000000130+                                                                                                                                                             
161010026876702025120408000452730000000120+                                                                                                                                                             
161010026876802025120408000452730000000240+                                                                                                                                                             
161010026876902025120408000452730000000072+                                                                                                                                                             
161010026877102025120408000452730000000036+                                                                                                                                                             
161010026911302025120408000452730000000072+                                                                                                                                                             
161010026914802025120408000062140000000180+                                                                                                                                                             
161010026944902025120408000452730000000132+                                                                                                                                                             
161010027030702025120408000063570000000096+                                                                                                                                                             
161010027089702025120408000452730000000024+                                                                                                                                                             
161010027109902025120408000466990000000676+                                                                                                                                                             
161010027110002025120408000466990000000012+                                                                                                                                                             
161010027124702025120408000466990000000380+                                                                                                                                                             
161010027124802025120408000466990000000008+                                                                                                                                                             
161010027183302025120408000063570000000120+                                                                                                                                                             
161010027229302025120408000452730000000270+                                                                                                                                                             
161010027248002025120408000063560000000054+                                                                                                                                                             
161010027254502025120408000063560000000020+                                                                                                                                                             
161010027263302025120408000063570000000344+                                                                                                                                                             
161010027269802025120408000452730000000216+                                                                                                                                                             
161010027270002025120408000452730000000216+                                                                                                                                                             
161010027270202025120408000452730000000224+                                                                                                                                                             
161010027270302025120408000452730000000280+                                                                                                                                                             
161010027270402025120408000452730000000324+                                                                                                                                                             
161010027270502025120408000452730000000240+                                                                                                                                                             
161010027270702025120408000452730000000384+                                                                                                                                                             
161010027271102025120408000452730000000324+                                                                                                                                                             
161010027271302025120408000452730000000180+                                                                                                                                                             
161010027272102025120408000452730000000030+                                                                                                                                                             
161010027272902025120408000452730000000216+                                                                                                                                                             
161010027273102025120408000452730000000182+                                                                                                                                                             
161010027292502025120408000452730000000420+                                                                                                                                                             
161010027298802025120408000452730000000315+                                                                                                                                                             
161010027299002025120408000452730000000260+                                                                                                                                                             
161010027305502025120408000452730000000216+                                                                                                                                                             
161010027337002025120408000452730000000200+                                                                                                                                                             
161010027444202025120408000466990000000212+                                                                                                                                                             
161010027476302025120408000063560000000040+                                                                                                                                                             
161010027528202025120408000452730000000060+                                                                                                                                                             
