OP01161BIMF2025121010000405907V8AUTOMATIC                                                                                                                                                               
161000752049602025121008000063720000006000+                                                                                                                                                             
161000752754502025121008000063720000002000+                                                                                                                                                             
161000752849102025121008000063720000003000+                                                                                                                                                             
161000752865502025121008000063720000005200+                                                                                                                                                             
161000755208702025121008000063720000004320+                                                                                                                                                             
161000756019702025121008000063300000025000+                                                                                                                                                             
161000756858702025121008000284580000012000+                                                                                                                                                             
161000762544502025121008000063720000028000+                                                                                                                                                             
161001314198702025121008000063720000008000+                                                                                                                                                             
161001314208702025121008000063720000004500+                                                                                                                                                             
161001450848702025121008000063720000006000+                                                                                                                                                             
161001462238702025121008000063720000017700+                                                                                                                                                             
161004634191502025121008000064630000004020+                                                                                                                                                             
161004634881702025121008000284580000000480+                                                                                                                                                             
161004635547102025121008000064630000003000+                                                                                                                                                             
161004635547202025121008000064630000000200+                                                                                                                                                             
161004635598302025121008000220050000000900+                                                                                                                                                             
161004636050402025121008000220050000003000+                                                                                                                                                             
161004640135602025121008000056930000000936+                                                                                                                                                             
161004641658802025121008000063720000002000+                                                                                                                                                             
161004642981902025121008000063720000008910+                                                                                                                                                             
161004643638502025121008000063720000003400+                                                                                                                                                             
161004643638602025121008000063720000004800+                                                                                                                                                             
161004644010292025121008000369040000001200+                                                                                                                                                             
161004644635902025121008000063720000007000+                                                                                                                                                             
161004644870502025121008000063720000010000+                                                                                                                                                             
161004645151802025121008000063720000005100+                                                                                                                                                             
161004645589202025121008000056930000000960+                                                                                                                                                             
161004646412402025121008000063720000015000+                                                                                                                                                             
161004647168502025121008000220050000006480+                                                                                                                                                             
161004675886492025121008000369040000001912+                                                                                                                                                             
161004678350002025121008000063300000004000+                                                                                                                                                             
161004678476602025121008000063720000008800+                                                                                                                                                             
161004680426302025121008000063720000026000+                                                                                                                                                             
161004681831702025121008000036020000004400+                                                                                                                                                             
161005001044002025121008000063300000010000+                                                                                                                                                             
161005170815202025121008000063720000000600+                                                                                                                                                             
161005171698802025121008000284580000002208+                                                                                                                                                             
161005174912402025121008000056930000001568+                                                                                                                                                             
161005174995502025121008000063720000001250+                                                                                                                                                             
161005176182402025121008000063720000004000+                                                                                                                                                             
161005176445702025121008000063720000000600+                                                                                                                                                             
161005178551602025121008000450910000002205+                                                                                                                                                             
161005180698202025121008000063720000009600+                                                                                                                                                             
161005183501102025121008000063050000000600+                                                                                                                                                             
161005183501302025121008000063050000000600+                                                                                                                                                             
161005183660202025121008000063300000000440+                                                                                                                                                             
161005183692002025121008000056930000001568+                                                                                                                                                             
161005187166702025121008000063720000001400+                                                                                                                                                             
161005187314502025121008000063300000000600+                                                                                                                                                             
161005187609202025121008000027000000000300+                                                                                                                                                             
161005189724502025121008000056930000001820+                                                                                                                                                             
161005190078602025121008000063720000003000+                                                                                                                                                             
161005192491802025121008000056930000000864+                                                                                                                                                             
161005192491902025121008000056930000001872+                                                                                                                                                             
161005194009302025121008000098560000002000+                                                                                                                                                             
161005194999102025121008000063720000000600+                                                                                                                                                             
161005195034202025121008000220050000000600+                                                                                                                                                             
161005196425402025121008000063300000000120+                                                                                                                                                             
161005197955802025121008000063300000000120+                                                                                                                                                             
161005198012902025121008000027000000000792+                                                                                                                                                             
161005198013102025121008000027000000001008+                                                                                                                                                             
161005198111802025121008000063300000000100+                                                                                                                                                             
161005198406302025121008000467780000000240+                                                                                                                                                             
161005198406402025121008000467780000000960+                                                                                                                                                             
161005198406502025121008000467780000001200+                                                                                                                                                             
161005200423102025121008000284580000004000+                                                                                                                                                             
161005200423202025121008000284580000004000+                                                                                                                                                             
161005200431102025121008000284580000000900+                                                                                                                                                             
161005200481102025121008000369040000000650+                                                                                                                                                             
161005200583802025121008000386910000000560+                                                                                                                                                             
161005200591402025121008000386910000000400+                                                                                                                                                             
161005200610602025121008000284580000001500+                                                                                                                                                             
161005201710702025121008000284580000000900+                                                                                                                                                             
161005202308502025121008000057130000003000+                                                                                                                                                             
161005202351102025121008000284580000000900+                                                                                                                                                             
161005202353102025121008000284580000007000+                                                                                                                                                             
161005202377002025121008000065230000000960+                                                                                                                                                             
161005202481402025121008000057130000000900+                                                                                                                                                             
161005202588702025121008000063720000009000+                                                                                                                                                             
161005202730602025121008000284580000000500+                                                                                                                                                             
161005204415702025121008000063300000000280+                                                                                                                                                             
161005204415702025121008000386910000000350+                                                                                                                                                             
161005204452302025121008000027000000000450+                                                                                                                                                             
161005204458702025121008000220050000004000+                                                                                                                                                             
161005204473002025121008000284580000000900+                                                                                                                                                             
161005204473702025121008000063720000002800+                                                                                                                                                             
161005204498502025121008000057130000000700+                                                                                                                                                             
161005204580502025121008000284580000003000+                                                                                                                                                             
161005204582402025121008000098560000000400+                                                                                                                                                             
161005204597402025121008000062480000001200+                                                                                                                                                             
161005204796002025121008000284580000003000+                                                                                                                                                             
161005204987502025121008000284580000003000+                                                                                                                                                             
161005205320102025121008000057130000000900+                                                                                                                                                             
161005205413802025121008000284580000001200+                                                                                                                                                             
161005205627002025121008000063720000004800+                                                                                                                                                             
161005206633402025121008000369040000000190+                                                                                                                                                             
161005206740002025121008000063720000002100+                                                                                                                                                             
161005207292902025121008000063720000000900+                                                                                                                                                             
161005207293002025121008000063720000001800+                                                                                                                                                             
161005207990002025121008000063720000002000+                                                                                                                                                             
161005208434402025121008000284580000002800+                                                                                                                                                             
161005208435602025121008000220050000003000+                                                                                                                                                             
161005209094002025121008000369040000000512+                                                                                                                                                             
161005209293602025121008000027000000001560+                                                                                                                                                             
161005212735502025121008000369040000001377+                                                                                                                                                             
161005212736602025121008000369040000001350+                                                                                                                                                             
161005212807002025121008000066480000000900+                                                                                                                                                             
161005212807102025121008000066480000000912+                                                                                                                                                             
161005212811902025121008000450910000002674+                                                                                                                                                             
161005212851502025121008000063300000000280+                                                                                                                                                             
161005212851502025121008000386910000000350+                                                                                                                                                             
161005212884002025121008000027000000000350+                                                                                                                                                             
161005212910102025121008000063720000007070+                                                                                                                                                             
161005213800502025121008000027000000000600+                                                                                                                                                             
161005213814402025121008000284580000000960+                                                                                                                                                             
161005213994602025121008000098560000000900+                                                                                                                                                             
161005213994802025121008000066480000000600+                                                                                                                                                             
161005213995002025121008000066480000001200+                                                                                                                                                             
161005214808902025121008000063720000003000+                                                                                                                                                             
161005214982102025121008000036020000000560+                                                                                                                                                             
161005214982202025121008000036020000000168+                                                                                                                                                             
161005215098102025121008000220050000004900+                                                                                                                                                             
161005215127202025121008000065230000002440+                                                                                                                                                             
161005215128102025121008000065230000002440+                                                                                                                                                             
161005215450402025121008000386910000000960+                                                                                                                                                             
161005215702902025121008000057130000000600+                                                                                                                                                             
161005215703102025121008000057130000000800+                                                                                                                                                             
161005215788602025121008000369040000000820+                                                                                                                                                             
161005215789102025121008000369040000000850+                                                                                                                                                             
161005215820302025121008000220050000000900+                                                                                                                                                             
161005215964802025121008000066480000001200+                                                                                                                                                             
161005215964902025121008000066480000000900+                                                                                                                                                             
161005216001802025121008000450910000001146+                                                                                                                                                             
161005216070702025121008000450910000001440+                                                                                                                                                             
161005216070802025121008000450910000002304+                                                                                                                                                             
161005216129102025121008000220050000000080+                                                                                                                                                             
161005216338302025121008000063720000003300+                                                                                                                                                             
161005216402502025121008000386910000000900+                                                                                                                                                             
161005216424202025121008000063720000001500+                                                                                                                                                             
161005216872702025121008000063300000001200+                                                                                                                                                             
161005217297302025121008000056930000000280+                                                                                                                                                             
161005217298202025121008000098560000001000+                                                                                                                                                             
161005217441102025121008000056930000000720+                                                                                                                                                             
161005217441502025121008000056930000000840+                                                                                                                                                             
161005217442002025121008000220050000000900+                                                                                                                                                             
161005217461402025121008000450910000000764+                                                                                                                                                             
161005217478002025121008000450910000000864+                                                                                                                                                             
161005217478202025121008000450910000000864+                                                                                                                                                             
161005217651402025121008000252810000000056+                                                                                                                                                             
161005217829002025121008000220050000000300+                                                                                                                                                             
161005218033402025121008000057130000000500+                                                                                                                                                             
161005218247602025121008000386910000000700+                                                                                                                                                             
161005218257502025121008000450910000001146+                                                                                                                                                             
161005218963502025121008000284580000000240+                                                                                                                                                             
161005218967102025121008000027000000000100+                                                                                                                                                             
161005218984102025121008000220050000000450+                                                                                                                                                             
161005218985302025121008000284580000000480+                                                                                                                                                             
161005219174502025121008000252810000000126+                                                                                                                                                             
161005219345602025121008000369040000001450+                                                                                                                                                             
161005219367402025121008000284580000000480+                                                                                                                                                             
161005219812002025121008000284580000000472+                                                                                                                                                             
161005220188302025121008000063300000000472+                                                                                                                                                             
161005220188402025121008000063300000000472+                                                                                                                                                             
161005220218102025121008000027000000000600+                                                                                                                                                             
161005220517902025121008000369040000000990+                                                                                                                                                             
161005221021802025121008000065230000000300+                                                                                                                                                             
161005221105902025121008000063300000000600+                                                                                                                                                             
161005221106002025121008000063300000000300+                                                                                                                                                             
161005221106102025121008000063300000000600+                                                                                                                                                             
161005221106202025121008000063300000000150+                                                                                                                                                             
161005221106302025121008000063300000000600+                                                                                                                                                             
161005221106502025121008000063300000000600+                                                                                                                                                             
161005221107302025121008000063300000000150+                                                                                                                                                             
161005221107402025121008000063300000000500+                                                                                                                                                             
161005221107502025121008000063300000000150+                                                                                                                                                             
161005221266802025121008000027000000000120+                                                                                                                                                             
161005221837702025121008000063300000000400+                                                                                                                                                             
161005221884302025121008000063050000000575+                                                                                                                                                             
161005221884402025121008000063050000000622+                                                                                                                                                             
161005222201502025121008000252810000000200+                                                                                                                                                             
161005222201702025121008000252810000000200+                                                                                                                                                             
161005222202302025121008000252810000000400+                                                                                                                                                             
161005222202502025121008000252810000000400+                                                                                                                                                             
161005222219502025121008000063300000001400+                                                                                                                                                             
161005222219602025121008000063300000000700+                                                                                                                                                             
161005222219702025121008000063300000000500+                                                                                                                                                             
161005222256402025121008000443730000000210+                                                                                                                                                             
161005222256602025121008000443730000000210+                                                                                                                                                             
161005222256802025121008000443730000000210+                                                                                                                                                             
161005222257002025121008000443730000000210+                                                                                                                                                             
161005222257302025121008000284580000000320+                                                                                                                                                             
161005222297002025121008000032410000000810+                                                                                                                                                             
161005222297102025121008000032410000000594+                                                                                                                                                             
161005222339302025121008000066480000001200+                                                                                                                                                             
161005222387602025121008000027310000000480+                                                                                                                                                             
161005222389702025121008000057130000002944+                                                                                                                                                             
161005222389902025121008000057130000001260+                                                                                                                                                             
161005222390102025121008000057130000001500+                                                                                                                                                             
161005222390302025121008000057130000000492+                                                                                                                                                             
161005222397802025121008000066480000000336+                                                                                                                                                             
161005222398002025121008000066480000000138+                                                                                                                                                             
161005222400402025121008000065230000001648+                                                                                                                                                             
161005222400602025121008000065230000000848+                                                                                                                                                             
161005222402302025121008000369040000000090+                                                                                                                                                             
161005222421102025121008000252810000000080+                                                                                                                                                             
161005222428202025121008000369040000000270+                                                                                                                                                             
161005222436602025121008000450910000001146+                                                                                                                                                             
161005222510102025121008000098560000000800+                                                                                                                                                             
161005222510202025121008000098560000000800+                                                                                                                                                             
161005222587802025121008000220050000000200+                                                                                                                                                             
161005222716502025121008000467780000000896+                                                                                                                                                             
161005222760902025121008000369040000000023+                                                                                                                                                             
161005222761002025121008000369040000000125+                                                                                                                                                             
161005222926402025121008000386910000000720+                                                                                                                                                             
161005223012302025121008000220050000000400+                                                                                                                                                             
161005223119402025121008000057130000001800+                                                                                                                                                             
161005223119502025121008000057130000000270+                                                                                                                                                             
161005223119602025121008000284580000002010+                                                                                                                                                             
161005223620802025121008000220050000000400+                                                                                                                                                             
161005224369302025121008000252810000000476+                                                                                                                                                             
161005224658902025121008000063300000000300+                                                                                                                                                             
161005224658902025121008000386910000000350+                                                                                                                                                             
161005224659002025121008000063300000000150+                                                                                                                                                             
161005224826502025121008000063720000003000+                                                                                                                                                             
161005224856602025121008000027310000001260+                                                                                                                                                             
161005224944602025121008000027310000000420+                                                                                                                                                             
161005224944702025121008000027310000000480+                                                                                                                                                             
161005225108202025121008000063300000001200+                                                                                                                                                             
161005225108302025121008000063300000001200+                                                                                                                                                             
161005225108402025121008000063300000001200+                                                                                                                                                             
161005225108502025121008000063300000001200+                                                                                                                                                             
161005225968002025121008000065230000002288+                                                                                                                                                             
161005225968102025121008000065230000000824+                                                                                                                                                             
161005225968202025121008000065230000000840+                                                                                                                                                             
161005226018802025121008000331280000001920+                                                                                                                                                             
161005226019002025121008000331280000000320+                                                                                                                                                             
161005226019102025121008000331280000000960+                                                                                                                                                             
161005226419402025121008000057130000001500+                                                                                                                                                             
161005226557202025121008000057130000000252+                                                                                                                                                             
161005227595502025121008000065230000000500+                                                                                                                                                             
161005348402202025121008000284580000002000+                                                                                                                                                             
161005348402302025121008000284580000001200+                                                                                                                                                             
161005527166302025121008000220050000003000+                                                                                                                                                             
161005527446302025121008000220050000000600+                                                                                                                                                             
161005527591702025121008000284580000004000+                                                                                                                                                             
161005528250902025121008000284580000000800+                                                                                                                                                             
161010020128602025121008000063300000000836+                                                                                                                                                             
161010023329402025121008000036020000000240+                                                                                                                                                             
161010023329502025121008000036020000000240+                                                                                                                                                             
161010023662802025121008000036020000000150+                                                                                                                                                             
161010023662902025121008000036020000000150+                                                                                                                                                             
161010023663102025121008000036020000000240+                                                                                                                                                             
161010024432702025121008000063300000000390+                                                                                                                                                             
161010024432702025121008000386910000000390+                                                                                                                                                             
161010024438702025121008000030630000001440+                                                                                                                                                             
161010024439002025121008000030630000000720+                                                                                                                                                             
161010024488502025121008000066480000000150+                                                                                                                                                             
161010024855302025121008000030630000000720+                                                                                                                                                             
161010025669302025121008000066480000000705+                                                                                                                                                             
161010025721502025121008000036020000000500+                                                                                                                                                             
161010025721602025121008000036020000000500+                                                                                                                                                             
161010025737202025121008000036020000000504+                                                                                                                                                             
161010025737402025121008000036020000000500+                                                                                                                                                             
161010025782502025121008000063300000000304+                                                                                                                                                             
161010025877002025121008000062480000000006+                                                                                                                                                             
161010025901402025121008000036020000000456+                                                                                                                                                             
161010025901502025121008000036020000000228+                                                                                                                                                             
161010025901602025121008000036020000000616+                                                                                                                                                             
161010025901702025121008000036020000000616+                                                                                                                                                             
161010025927602025121008000066480000000585+                                                                                                                                                             
161010025941002025121008000062480000000900+                                                                                                                                                             
161010025941302025121008000062480000000900+                                                                                                                                                             
161010025954102025121008000386910000000400+                                                                                                                                                             
161010025954202025121008000386910000000360+                                                                                                                                                             
161010026102002025121008000063300000000300+                                                                                                                                                             
161010026364002025121008000036020000000280+                                                                                                                                                             
161010026364202025121008000036020000000280+                                                                                                                                                             
161010026367402025121008000063300000000480+                                                                                                                                                             
161010026620502025121008000404890000000300+                                                                                                                                                             
161010026759402025121008000404890000003000+                                                                                                                                                             
161010026877302025121008000063300000000144+                                                                                                                                                             
161010026958402025121008000036020000000560+                                                                                                                                                             
161010027062202025121008000036020000000154+                                                                                                                                                             
161010027069102025121008000036020000000154+                                                                                                                                                             
161010027069202025121008000036020000000210+                                                                                                                                                             
161010027069302025121008000036020000000210+                                                                                                                                                             
161010027444102025121008000063050000000480+                                                                                                                                                             
161010027569502025121008000404890000000600+                                                                                                                                                             
161010027631802025121008000062480000000423+                                                                                                                                                             
161010027631902025121008000062480000000450+                                                                                                                                                             
161010027711702025121008000036020000000300+                                                                                                                                                             
161010027711902025121008000036020000000300+                                                                                                                                                             
161010028266602025121008000036020000000154+                                                                                                                                                             
161010028266702025121008000036020000000140+                                                                                                                                                             
161010028266902025121008000036020000000140+                                                                                                                                                             
161010028458802025121008000386910000000200+                                                                                                                                                             
161010028536802025121008000066480000000960+                                                                                                                                                             
161010028587902025121008000404890000001500+                                                                                                                                                             
161010028698202025121008000062480000000450+                                                                                                                                                             
161005189479502025121008000059020000006400+                                                                                                                                                             
161005200237702025121008000059020000000464+                                                                                                                                                             
161005205731102025121008000059020000000456+                                                                                                                                                             
161005208679502025121008000059020000001056+                                                                                                                                                             
161005208679602025121008000059020000000792+                                                                                                                                                             
161005209642302025121008000152290000018000+                                                                                                                                                             
161005212684802025121008000059020000001023+                                                                                                                                                             
161005216219602025121008000308340000000174+                                                                                                                                                             
161005216228302025121008000308340000000029+                                                                                                                                                             
161005216342402025121008000452730000000350+                                                                                                                                                             
161005216419702025121008000059020000000540+                                                                                                                                                             
161005216419802025121008000059020000000840+                                                                                                                                                             
161005216419902025121008000059020000000600+                                                                                                                                                             
161005218414202025121008000308340000000264+                                                                                                                                                             
161005218984302025121008000059020000000198+                                                                                                                                                             
161005219185502025121008000059020000000363+                                                                                                                                                             
161005219185602025121008000059020000000066+                                                                                                                                                             
161005219247502025121008000452730000000420+                                                                                                                                                             
161005219247902025121008000452730000000552+                                                                                                                                                             
161005220036602025121008000305490000002250+                                                                                                                                                             
161005221346302025121008000059020000000072+                                                                                                                                                             
161005221390602025121008000063560000000020+                                                                                                                                                             
161005221390802025121008000063560000000020+                                                                                                                                                             
161005221567002025121008000059020000000800+                                                                                                                                                             
161005222292102025121008000308340000000203+                                                                                                                                                             
161005222554602025121008000452730000000180+                                                                                                                                                             
161005222554802025121008000452730000000180+                                                                                                                                                             
161005223511302025121008000059020000000360+                                                                                                                                                             
161005225894702025121008000308340000000240+                                                                                                                                                             
161005225895002025121008000308340000000150+                                                                                                                                                             
161005225895202025121008000308340000000470+                                                                                                                                                             
161005225895302025121008000308340000000470+                                                                                                                                                             
161005225895402025121008000308340000000188+                                                                                                                                                             
161005225895502025121008000308340000000188+                                                                                                                                                             
161005225895602025121008000308340000000528+                                                                                                                                                             
161005225895702025121008000308340000000528+                                                                                                                                                             
161005225895802025121008000308340000000176+ 

                                                                                                                                                            
161005225895902025121008000308340000000528+  

                                                                                                                                                       
161005227090002025121008000466990000000056+                                                                                                                                                             
161005227090102025121008000466990000000056+                                                                                                                                                             
161005227090202025121008000466990000000208+                                                                                                                                                             
161005227090302025121008000466990000000112+                                                                                                                                                             
161005227154802025121008000466990000000040+                                                                                                                                                             
161005227168702025121008000466990000000264+                                                                                                                                                             
161005227168802025121008000466990000000016+                                                                                                                                                             
161010023289202025121008000152290000000060+                                                                                                                                                             
161010023289202025121008000452730000000300+                                                                                                                                                             
161010023289302025121008000452730000000060+                                                                                                                                                             
161010023289402025121008000452730000000180+                                                                                                                                                             
161010023294102025121008000152290000000560+                                                                                                                                                             
161010023327502025121008000062140000000300+                                                                                                                                                             
161010023327602025121008000062140000000060+                                                                                                                                                             
161010023328002025121008000062140000000004+                                                                                                                                                             
161010023328102025121008000062140000000060+                                                                                                                                                             
161010023691102025121008000062140000000072+                                                                                                                                                             
161010023692602025121008000062140000000144+                                                                                                                                                             
161010024180802025121008000059020000000580+                                                                                                                                                             
161010024433002025121008000452730000000744+                                                                                                                                                             
161010024433202025121008000452730000000960+                                                                                                                                                             
161010024433402025121008000452730000001080+                                                                                                                                                             
161010024433602025121008000452730000000960+                                                                                                                                                             
161010024434702025121008000452730000001976+                                                                                                                                                             
161010024435302025121008000452730000002392+                                                                                                                                                             
161010024435702025121008000063560000000864+                                                                                                                                                             
161010024435902025121008000063560000000756+                                                                                                                                                             
161010024436202025121008000452730000000960+                                                                                                                                                             
161010024436402025121008000452730000000600+                                                                                                                                                             
161010024436802025121008000059020000000896+                                                                                                                                                             
161010024437202025121008000059020000000736+                                                                                                                                                             
161010024437702025121008000452730000000726+                                                                                                                                                             
161010024438302025121008000452730000000594+                                                                                                                                                             
161010024439502025121008000062140000000500+                                                                                                                                                             
161010024439602025121008000062140000001000+                                                                                                                                                             
161010024440402025121008000452730000000416+                                                                                                                                                             
161010024457802025121008000452730000000540+                                                                                                                                                             
161010024483502025121008000062140000000130+                                                                                                                                                             
161010024485702025121008000062140000000130+                                                                                                                                                             
161010024517302025121008000452730000000612+                                                                                                                                                             
161010024561902025121008000452730000000675+                                                                                                                                                             
161010025524802025121008000063560000000024+                                                                                                                                                             
161010025526402025121008000063560000000408+                                                                                                                                                             
161010025528002025121008000063560000000192+                                                                                                                                                             
161010025677902025121008000452730000001260+                                                                                                                                                             
161010025678102025121008000452730000000840+                                                                                                                                                             
161010025679502025121008000452730000000312+                                                                                                                                                             
161010025679602025121008000452730000000288+                                                                                                                                                             
161010025679702025121008000452730000000288+                                                                                                                                                             
161010025679802025121008000452730000000480+                                                                                                                                                             
161010025679902025121008000452730000000783+                                                                                                                                                             
161010025680202025121008000452730000000918+                                                                                                                                                             
161010025680402025121008000452730000001170+                                                                                                                                                             
161010025680502025121008000452730000000585+                                                                                                                                                             
161010025680602025121008000063560000000176+                                                                                                                                                             
161010025680702025121008000063560000000176+                                                                                                                                                             
161010025680802025121008000063560000000396+                                                                                                                                                             
161010025681002025121008000063560000000324+                                                                                                                                                             
161010025681202025121008000452730000000280+                                                                                                                                                             
161010025681402025121008000452730000000140+                                                                                                                                                             
161010025681602025121008000452730000000510+                                                                                                                                                             
161010025681902025121008000452730000000630+                                                                                                                                                             
161010025701802025121008000452730000000216+                                                                                                                                                             
161010025702002025121008000063560000000576+                                                                                                                                                             
161010025702102025121008000452730000000160+                                                                                                                                                             
161010025702302025121008000452730000000966+                                                                                                                                                             
161010025702702025121008000452730000000216+                                                                                                                                                             
161010025704402025121008000452730000001800+                                                                                                                                                             
161010025735502025121008000452730000000045+                                                                                                                                                             
161010025736802025121008000452730000000460+                                                                                                                                                             
161010025801002025121008000063560000000054+                                                                                                                                                             
161010026078102025121008000063560000000048+                                                                                                                                                             
161010026106402025121008000452730000000480+                                                                                                                                                             
161010026351302025121008000452730000000540+                                                                                                                                                             
161010026367802025121008000452730000000460+                                                                                                                                                             
161010026530302025121008000062140000000060+                                                                                                                                                             
161010026600602025121008000062140000000070+                                                                                                                                                             
161010026610902025121008000063560000000020+                                                                                                                                                             
161010026611302025121008000063560000000040+                                                                                                                                                             
161010026611602025121008000063560000000180+                                                                                                                                                             
161010026612202025121008000063560000000080+                                                                                                                                                             
161010026618702025121008000452730000000266+                                                                                                                                                             
161010026623502025121008000452730000000300+                                                                                                                                                             
161010026624402025121008000452730000000252+                                                                                                                                                             
161010026624602025121008000452730000000100+                                                                                                                                                             
161010026625202025121008000452730000000800+                                                                                                                                                             
161010026625402025121008000452730000000720+                                                                                                                                                             
161010026625602025121008000452730000000504+                                                                                                                                                             
161010026626502025121008000452730000000390+                                                                                                                                                             
161010026626602025121008000452730000000306+                                                                                                                                                             
161010026627002025121008000452730000000180+                                                                                                                                                             
161010026628502025121008000452730000000280+                                                                                                                                                             
161010026665002025121008000452730000000608+                                                                                                                                                             
161010026682202025121008000452730000000180+                                                                                                                                                             
161010026682902025121008000062140000000270+                                                                                                                                                             
161010026683002025121008000062140000000030+                                                                                                                                                             
161010026683102025121008000062140000000080+                                                                                                                                                             
161010026683802025121008000062140000000330+                                                                                                                                                             
161010026683902025121008000062140000000030+                                                                                                                                                             
161010026684002025121008000062140000000060+                                                                                                                                                             
161010026685202025121008000452730000000200+                                                                                                                                                             
161010026686102025121008000452730000000360+                                                                                                                                                             
161010026799402025121008000452730000000252+                                                                                                                                                             
161010026799602025121008000452730000000084+                                                                                                                                                             
161010026799802025121008000452730000000231+                                                                                                                                                             
161010026800002025121008000452730000000077+                                                                                                                                                             
161010026876702025121008000452730000000120+                                                                                                                                                             
161010026876802025121008000452730000000120+                                                                                                                                                             
161010026876902025121008000452730000000036+                                                                                                                                                             
161010026877102025121008000452730000000036+                                                                                                                                                             
161010026914802025121008000062140000000060+                                                                                                                                                             
161010027089702025121008000452730000000048+                                                                                                                                                             
161010027109902025121008000466990000000680+                                                                                                                                                             
161010027124702025121008000466990000000388+                                                                                                                                                             
161010027124802025121008000466990000000020+                                                                                                                                                             
161010027248002025121008000063560000000180+                                                                                                                                                             
161010027254502025121008000063560000000040+                                                                                                                                                             
161010027269202025121008000452730000000036+                                                                                                                                                             
161010027270002025121008000452730000000072+                                                                                                                                                             
161010027270202025121008000452730000000112+                                                                                                                                                             
161010027270302025121008000452730000000112+                                                                                                                                                             
161010027270502025121008000452730000000024+                                                                                                                                                             
161010027270702025121008000452730000000144+                                                                                                                                                             
161010027271102025121008000452730000000108+                                                                                                                                                             
161010027271302025121008000452730000000108+                                                                                                                                                             
161010027272902025121008000452730000000216+                                                                                                                                                             
161010027273102025121008000452730000000084+                                                                                                                                                             
161010027292502025121008000452730000000240+                                                                                                                                                             
161010027298802025121008000452730000000210+                                                                                                                                                             
161010027299002025121008000452730000000160+                                                                                                                                                             
161010027337002025121008000452730000000100+                                                                                                                                                             
161010027345002025121008000452730000000048+                                                                                                                                                             
161010027444202025121008000466990000000352+                                                                                                                                                             
161010027476302025121008000063560000000020+                                                                                                                                                             
161010027543802025121008000452730000000210+                                                                                                                                                             
161010027555502025121008000062140000000030+                                                                                                                                                             
161010027555902025121008000062140000000030+                                                                                                                                                             
161010027708702025121008000452730000000036+                                                                                                                                                             
161010027708902025121008000452730000000036+                                                                                                                                                             
161010027720002025121008000452730000000100+                                                                                                                                                             
161010027720302025121008000452730000000400+                                                                                                                                                             
161010027726802025121008000452730000000180+                                                                                                                                                             
161010027727602025121008000452730000000036+                                                                                                                                                             
161010027770602025121008000452730000000072+                                                                                                                                                             
161010027770702025121008000452730000000360+                                                                                                                                                             
161010027770902025121008000452730000000432+                                                                                                                                                             
161010027771002025121008000452730000000216+                                                                                                                                                             
161010027886702025121008000452730000000081+                                                                                                                                                             
161010027901302025121008000059020000000840+                                                                                                                                                             
161010027901402025121008000059020000000768+                                                                                                                                                             
161010027901502025121008000059020000001104+                                                                                                                                                             
161010027901602025121008000059020000001008+                                                                                                                                                             
161010027901702025121008000059020000001104+                                                                                                                                                             
161010027932502025121008000452730000001080+                                                                                                                                                             
161010027988702025121008000452730000000036+                                                                                                                                                             
161010027994302025121008000452730000000135+                                                                                                                                                             
161010027994702025121008000452730000000045+                                                                                                                                                             
161010028056102025121008000452730000000220+                                                                                                                                                             
