OP01161BIMF2026033112001805881V8AUTOMATIC                                                                                                                                                               
161004634191502026033108000064630000006000+                                                                                                                                                             
161004634844802026033108000000590000000028+                                                                                                                                                             
161004634844902026033108000000590000000089+                                                                                                                                                             
161004635461102026033108000000590000000020+                                                                                                                                                             
161004635535602026033108000000590000002500+                                                                                                                                                             
161004635540302026033108000000590000000002+                                                                                                                                                             
161004635540502026033108000000590000000020+                                                                                                                                                             
161004635542702026033108000000590000000060+                                                                                                                                                             
161004635542802026033108000000590000000020+                                                                                                                                                             
161004635542902026033108000000590000001500+                                                                                                                                                             
161004635543002026033108000000590000000020+                                                                                                                                                             
161004635543102026033108000000590000000020+                                                                                                                                                             
161004635547102026033108000064630000006000+                                                                                                                                                             
161004635547202026033108000064630000000600+                                                                                                                                                             
161004635763702026033108000000590000000480+                                                                                                                                                             
161004635766702026033108000000590000004500+                                                                                                                                                             
161004636050402026033108000220050000003000+                                                                                                                                                             
161004674288002026033108000000570000001737+                                                                                                                                                             
161004681831702026033108000036020000006600+                                                                                                                                                             
161005183501102026033108000063050000000600+                                                                                                                                                             
161005183501302026033108000063050000000450+                                                                                                                                                             
161005194009302026033108000098560000002000+                                                                                                                                                             
161005202308502026033108000057130000002000+                                                                                                                                                             
161005202481402026033108000057130000000300+                                                                                                                                                             
161005204498502026033108000057130000000500+                                                                                                                                                             
161005204582402026033108000098560000000600+                                                                                                                                                             
161005205320102026033108000057130000000500+                                                                                                                                                             
161005213994602026033108000098560000000600+                                                                                                                                                             
161005214982102026033108000036020000000336+                                                                                                                                                             
161005215098102026033108000220050000004900+                                                                                                                                                             
161005215246102026033108000000570000000061+                                                                                                                                                             
161005215702902026033108000057130000000800+                                                                                                                                                             
161005215703102026033108000057130000000800+                                                                                                                                                             
161005216869802026033108000000570000000317+                                                                                                                                                             
161005217298202026033108000098560000000400+                                                                                                                                                             
161005217499102026033108000220050000000213+                                                                                                                                                             
161005218033402026033108000057130000000960+                                                                                                                                                             
161005219177702026033108000220050000000450+                                                                                                                                                             
161005220440502026033108000309820000001488+                                                                                                                                                             
161005220440702026033108000309820000002560+                                                                                                                                                             
161005221884302026033108000063050000000295+                                                                                                                                                             
161005221884402026033108000063050000000295+                                                                                                                                                             
161005222389702026033108000057130000002944+                                                                                                                                                             
161005222389902026033108000057130000000540+                                                                                                                                                             
161005222390102026033108000057130000000700+                                                                                                                                                             
161005222390302026033108000057130000000328+                                                                                                                                                             
161005222397602026033108000220050000000480+                                                                                                                                                             
161005222510102026033108000098560000000300+                                                                                                                                                             
161005222510202026033108000098560000000300+                                                                                                                                                             
161005222930202026033108000357970000000480+                                                                                                                                                             
161005223119402026033108000057130000000900+                                                                                                                                                             
161005223119502026033108000057130000000160+                                                                                                                                                             
161005223329102026033108000220050000002000+                                                                                                                                                             
161005223620802026033108000220050000000300+                                                                                                                                                             
161005224089802026033108000000570000000057+                                                                                                                                                             
161005224629602026033108000000570000000014+                                                                                                                                                             
161005224929102026033108000000590000000020+                                                                                                                                                             
161005224936002026033108000000570000002500+                                                                                                                                                             
161005225871002026033108000000570000001899+                                                                                                                                                             
161005226419402026033108000057130000002000+                                                                                                                                                             
161005226557202026033108000057130000000399+                                                                                                                                                             
161005226557402026033108000057130000001536+                                                                                                                                                             
161005226938002026033108000000590000002500+                                                                                                                                                             
161005226938102026033108000000590000000060+                                                                                                                                                             
161005226942002026033108000000590000000365+                                                                                                                                                             
161005226942102026033108000000590000000192+                                                                                                                                                             
161005227004302026033108000000590000000102+                                                                                                                                                             
161005227056502026033108000000570000002800+                                                                                                                                                             
161005227247602026033108000000570000000020+                                                                                                                                                             
161005227247702026033108000000570000000285+                                                                                                                                                             
161005227247802026033108000000570000000018+                                                                                                                                                             
161005227247902026033108000000570000000006+                                                                                                                                                             
161005227248102026033108000000570000000132+                                                                                                                                                             
161005227248202026033108000000570000000030+                                                                                                                                                             
161005227639302026033108000000570000001350+                                                                                                                                                             
161005527166302026033108000220050000005000+                                                                                                                                                             
161010023662902026033108000036020000000300+                                                                                                                                                             
161010023663002026033108000036020000000560+                                                                                                                                                             
161010023663102026033108000036020000000280+                                                                                                                                                             
161010025721502026033108000036020000000250+                                                                                                                                                             
161010025721602026033108000036020000000250+                                                                                                                                                             
161010025737202026033108000036020000000396+                                                                                                                                                             
161010025737402026033108000036020000000400+                                                                                                                                                             
161010025901602026033108000036020000000616+                                                                                                                                                             
161010025901702026033108000036020000000616+                                                                                                                                                             
161010026364002026033108000036020000000140+                                                                                                                                                             
161010026364202026033108000036020000000140+                                                                                                                                                             
161010026532902026033108000036020000000050+                                                                                                                                                             
161010026533102026033108000036020000000050+                                                                                                                                                             
161010026958302026033108000036020000000420+                                                                                                                                                             
161010027062202026033108000036020000000066+                                                                                                                                                             
161010027069102026033108000036020000000066+                                                                                                                                                             
161010027069202026033108000036020000000070+                                                                                                                                                             
161010027267302026033108000443720000000300+                                                                                                                                                             
161010027711702026033108000036020000000300+                                                                                                                                                             
161010027711902026033108000036020000000300+                                                                                                                                                             
161010028266602026033108000036020000000110+                                                                                                                                                             
161010028266702026033108000036020000000140+                                                                                                                                                             
161010028266902026033108000036020000000140+                                                                                                                                                             
161073579228702026033108000036020000000792+                                                                                                                                                             
161004673880802026033108000382210000000450+                                                                                                                                                             
161005171308802026033108000382210000000240+                                                                                                                                                             
161005197702802026033108000167830000000168+                                                                                                                                                             
161005200597502026033108000028630000000048+                                                                                                                                                             
161005204652202026033108000028630000000384+                                                                                                                                                             
161005204652402026033108000028630000000140+                                                                                                                                                             
161005210404402026033108000064460000001000+                                                                                                                                                             
161005213424002026033108000028630000001400+                                                                                                                                                             
161005214735902026033108000028630000001260+                                                                                                                                                             
161005214990202026033108000167830000000480+                                                                                                                                                             
161005215057002026033108000382210000000230+                                                                                                                                                             
161005215057602026033108000382210000000473+                                                                                                                                                             
161005217594702026033108000064460000000100+                                                                                                                                                             
161005217669202026033108000167830000000504+                                                                                                                                                             
161005217997602026033108000064460000000150+                                                                                                                                                             
161005218038202026033108000064460000000176+                                                                                                                                                             
161005218038302026033108000064460000000176+                                                                                                                                                             
161005218454302026033108000028630000000162+                                                                                                                                                             
161005218454402026033108000028630000000252+                                                                                                                                                             
161005220036602026033108000305490000003150+                                                                                                                                                             
161005221892302026033108000382210000006048+                                                                                                                                                             
161005222013402026033108000028630000000160+                                                                                                                                                             
161005222166802026033108000064460000000184+                                                                                                                                                             
161005222166902026033108000064460000000120+                                                                                                                                                             
161005222167102026033108000064460000000138+                                                                                                                                                             
161005222167202026033108000064460000000092+                                                                                                                                                             
161005222167302026033108000064460000000368+                                                                                                                                                             
161005222167402026033108000064460000000396+                                                                                                                                                             
161005222167502026033108000064460000000396+                                                                                                                                                             
161005222172902026033108000064460000000396+                                                                                                                                                             
161005222173102026033108000064460000000396+                                                                                                                                                             
161005222190702026033108000064460000000188+                                                                                                                                                             
161005222190802026033108000064460000000300+                                                                                                                                                             
161005222255102026033108000028630000000500+                                                                                                                                                             
161005225941802026033108000064460000000470+                                                                                                                                                             
161005225941902026033108000064460000000470+                                                                                                                                                             
161005225942002026033108000064460000000564+                                                                                                                                                             
161005225942102026033108000064460000000564+                                                                                                                                                             
161005225942202026033108000064460000000940+                                                                                                                                                             
161005225942302026033108000064460000000940+                                                                                                                                                             
161005225942402026033108000064460000000470+                                                                                                                                                             
161005225942502026033108000064460000000470+                                                                                                                                                             
161005225942602026033108000064460000000812+                                                                                                                                                             
161005225942802026033108000064460000000058+                                                                                                                                                             
161005225943002026033108000064460000000319+                                                                                                                                                             
161005225957402026033108000064460000000200+                                                                                                                                                             
161005225957502026033108000064460000000175+                                                                                                                                                             
161005206242402026033108000062710000000800+                                                                                                                                                             
161005208257402026033108000062710000001204+                                                                                                                                                             
161005202946902026033108000276180000000062+                                                                                                                                                             
161005204581802026033108000276180000000546+                                                                                                                                                             
161005204582002026033108000276180000000546+                                                                                                                                                             
161005204582602026033108000276180000000300+                                                                                                                                                             
161005204582702026033108000276180000000504+                                                                                                                                                             
161005204582802026033108000276180000000300+                                                                                                                                                             
161005204582902026033108000276180000000504+                                                                                                                                                             
161005204583002026033108000276180000000280+                                                                                                                                                             
161005204615602026033108000349270000000700+                                                                                                                                                             
161005204615702026033108000349270000000350+                                                                                                                                                             
161005204620102026033108000349270000000500+                                                                                                                                                             
161005204647302026033108000349270000000450+                                                                                                                                                             
161005204647402026033108000349270000000450+                                                                                                                                                             
161005206353202026033108000276180000000164+                                                                                                                                                             
161005206353302026033108000276180000000328+                                                                                                                                                             
161005212870402026033108000349270000000300+                                                                                                                                                             
161005212872102026033108000349270000000300+                                                                                                                                                             
161005212908102026033108000349270000000300+                                                                                                                                                             
161005212908202026033108000349270000000300+                                                                                                                                                             
161005216155502026033108000349270000000495+                                                                                                                                                             
161005223258302026033108000276180000000390+                                                                                                                                                             
161005227669002026033108000276180000000224+                                                                                                                                                             
161005227670702026033108000276180000000240+                                                                                                                                                             
161010024556402026033108000222390000000690+                                                                                                                                                             
161010026351402026033108000222390000000040+                                                                                                                                                             
161010026726302026033108000222390000000380+                                                                                                                                                             
161010028531702026033108000222390000001640+                                                                                                                                                             
161010028617402026033108000222390000000260+                                                                                                                                                             
161010028617702026033108000222390000000100+                                                                                                                                                             
161010028617902026033108000222390000000580+                                                                                                                                                             
161010028618002026033108000222390000000500+                                                                                                                                                             
161010028618102026033108000222390000000200+                                                                                                                                                             
161010028618202026033108000222390000000220+                                                                                                                                                             
161001044149002026033108000028870000003000+                                                                                                                                                             
161001044179002026033108000028870000003000+                                                                                                                                                             
161001343570802026033108000028870000006500+                                                                                                                                                             
161004634490002026033108000142090000000330+                                                                                                                                                             
161004634875702026033108000142090000000210+                                                                                                                                                             
161004634891102026033108000142090000001000+                                                                                                                                                             
161004634979702026033108000142090000000200+                                                                                                                                                             
161004643458402026033108000142090000002220+                                                                                                                                                             
161005181409002026033108000142090000001160+                                                                                                                                                             
161005183411202026033108000142090000000120+                                                                                                                                                             
161005183778202026033108000142090000000200+                                                                                                                                                             
161005184068002026033108000142090000000420+                                                                                                                                                             
161005184292602026033108000142090000001120+                                                                                                                                                             
161005185637202026033108000142090000001600+                                                                                                                                                             
161005185637302026033108000142090000000585+                                                                                                                                                             
161005185637402026033108000142090000000585+                                                                                                                                                             
161005187800002026033108000233530000000080+                                                                                                                                                             
161005187800102026033108000233530000000080+                                                                                                                                                             
161005187800302026033108000233530000000280+                                                                                                                                                             
161005188449102026033108000142090000002000+                                                                                                                                                             
161005188558902026033108000142090000001050+                                                                                                                                                             
161005189848702026033108000142090000000100+                                                                                                                                                             
161005194052002026033108000142090000000500+                                                                                                                                                             
161005194219802026033108000142090000000050+                                                                                                                                                             
161005194926002026033108000142090000000200+                                                                                                                                                             
161005195614402026033108000142090000000210+                                                                                                                                                             
161005195614602026033108000142090000000210+                                                                                                                                                             
161005195684002026033108000142090000000120+                                                                                                                                                             
161005195684102026033108000142090000000120+                                                                                                                                                             
161005198750802026033108000142090000001200+                                                                                                                                                             
161005199818602026033108000142090000000800+                                                                                                                                                             
161005200479602026033108000142090000000060+                                                                                                                                                             
161005200523502026033108000005070000001800+                                                                                                                                                             
161005200576702026033108000233530000001944+                                                                                                                                                             
161005200578802026033108000005070000003380+                                                                                                                                                             
161005200579102026033108000233530000002268+                                                                                                                                                             
161005200584502026033108000005070000000340+                                                                                                                                                             
161005200587602026033108000142090000000040+                                                                                                                                                             
161005201030502026033108000005070000000640+                                                                                                                                                             
161005201030602026033108000005070000001120+                                                                                                                                                             
161005201030702026033108000233530000000864+                                                                                                                                                             
161005201030802026033108000233530000001404+                                                                                                                                                             
161005201488602026033108000142090000000240+                                                                                                                                                             
161005201488702026033108000142090000000360+                                                                                                                                                             
161005201521202026033108000142090000000500+                                                                                                                                                             
161005202511702026033108000142090000000900+                                                                                                                                                             
161005202511802026033108000142090000000900+                                                                                                                                                             
161005203562202026033108000142090000002000+                                                                                                                                                             
161005203891002026033108000142090000000200+                                                                                                                                                             
161005204563802026033108000142090000000600+                                                                                                                                                             
161005204588902026033108000005070000001995+                                                                                                                                                             
161005204589002026033108000005070000001710+                                                                                                                                                             
161005204589102026033108000005070000001235+                                                                                                                                                             
161005204589202026033108000005070000001330+                                                                                                                                                             
161005204605802026033108000005070000001260+                                                                                                                                                             
161005204616202026033108000005070000002100+                                                                                                                                                             
161005204616302026033108000005070000002400+                                                                                                                                                             
161005204619702026033108000233530000002000+                                                                                                                                                             
161005204619802026033108000233530000001360+                                                                                                                                                             
161005204649602026033108000005070000001000+                                                                                                                                                             
161005204649702026033108000005070000000800+                                                                                                                                                             
161005204861102026033108000142090000000800+                                                                                                                                                             
161005205047802026033108000142090000000420+                                                                                                                                                             
161005205284202026033108000142090000000360+                                                                                                                                                             
161005205882702026033108000142090000000500+                                                                                                                                                             
161005206352902026033108000142090000000900+                                                                                                                                                             
161005207887302026033108000142090000000140+                                                                                                                                                             
161005209820602026033108000142090000001500+                                                                                                                                                             
161005210074402026033108000142090000000050+                                                                                                                                                             
161005212816602026033108000142090000000315+                                                                                                                                                             
161005212905502026033108000142090000000400+                                                                                                                                                             
161005212940502026033108000233530000001260+                                                                                                                                                             
161005212940602026033108000233530000001170+                                                                                                                                                             
161005213047802026033108000005070000002128+                                                                                                                                                             
161005213047902026033108000005070000002016+                                                                                                                                                             
161005213048002026033108000005070000000448+                                                                                                                                                             
161005213048102026033108000005070000000448+                                                                                                                                                             
161005213679302026033108000142090000000200+                                                                                                                                                             
161005213832002026033108000142090000001800+                                                                                                                                                             
161005213991002026033108000233530000001890+                                                                                                                                                             
161005213991102026033108000233530000001890+                                                                                                                                                             
161005214151602026033108000142090000001000+                                                                                                                                                             
161005214832002026033108000142090000001080+                                                                                                                                                             
161005215562202026033108000142090000000240+                                                                                                                                                             
161005215668202026033108000142090000000096+                                                                                                                                                             
161005215789002026033108000142090000000480+                                                                                                                                                             
161005216074502026033108000142090000000810+                                                                                                                                                             
161005216155202026033108000142090000000700+                                                                                                                                                             
161005216175102026033108000142090000000600+                                                                                                                                                             
161005216191502026033108000005070000001200+                                                                                                                                                             
161005216239602026033108000142090000000800+                                                                                                                                                             
161005217012002026033108000233530000000080+                                                                                                                                                             
161005217012102026033108000233530000000080+                                                                                                                                                             
161005217300402026033108000233530000000078+                                                                                                                                                             
161005217300502026033108000233530000000078+                                                                                                                                                             
161005217440802026033108000142090000001260+                                                                                                                                                             
161005217441002026033108000142090000000060+                                                                                                                                                             
161005217464802026033108000233530000000080+                                                                                                                                                             
161005217464902026033108000233530000000080+                                                                                                                                                             
161005217598702026033108000005070000000675+                                                                                                                                                             
161005217599902026033108000005070000000672+                                                                                                                                                             
161005217600002026033108000005070000000560+                                                                                                                                                             
161005217733802026033108000005070000000240+                                                                                                                                                             
161005217733902026033108000005070000000240+                                                                                                                                                             
161005217778002026033108000142090000000480+                                                                                                                                                             
161005217780702026033108000005070000001800+                                                                                                                                                             
161005217780802026033108000005070000002100+                                                                                                                                                             
161005217780902026033108000005070000001200+                                                                                                                                                             
161005217781002026033108000005070000000900+                                                                                                                                                             
161005217860302026033108000005070000000665+                                                                                                                                                             
161005217860402026033108000005070000000665+                                                                                                                                                             
161005217860502026033108000233530000000630+                                                                                                                                                             
161005217860602026033108000233530000000630+                                                                                                                                                             
161005217860702026033108000233530000000510+                                                                                                                                                             
161005217860802026033108000233530000000540+                                                                                                                                                             
161005217891002026033108000142090000000500+                                                                                                                                                             
161005217891102026033108000142090000000500+                                                                                                                                                             
161005218573202026033108000142090000000400+                                                                                                                                                             
161005219321002026033108000142090000000250+                                                                                                                                                             
161005219374902026033108000142090000000075+                                                                                                                                                             
161005221961202026033108000005070000002400+                                                                                                                                                             
161005221961302026033108000005070000001200+                                                                                                                                                             
161005222144902026033108000233530000001320+                                                                                                                                                             
161005222145002026033108000233530000000044+                                                                                                                                                             
161005222145102026033108000233530000001276+                                                                                                                                                             
161005222148202026033108000142090000000300+                                                                                                                                                             
161005222148402026033108000142090000000450+                                                                                                                                                             
161005222553302026033108000233530000000080+                                                                                                                                                             
161005223040302026033108000142090000002590+                                                                                                                                                             
161005223690002026033108000142090000001200+                                                                                                                                                             
161005224538102026033108000142090000000200+                                                                                                                                                             
161005224916002026033108000142090000000448+                                                                                                                                                             
161005524590602026033108000142090000001160+                                                                                                                                                             
161005527161802026033108000142090000000600+                                                                                                                                                             
161005527161902026033108000142090000001110+                                                                                                                                                             
161010019441302026033108000142090000000180+                                                                                                                                                             
161010023633002026033108000005070000000144+                                                                                                                                                             
161010023633102026033108000005070000000144+                                                                                                                                                             
161010023759702026033108000005070000000192+                                                                                                                                                             
161010023759802026033108000005070000000192+                                                                                                                                                             
161010023828302026033108000005070000000200+                                                                                                                                                             
161010024185502026033108000142090000000200+                                                                                                                                                             
161010024488302026033108000005070000001512+                                                                                                                                                             
161010024488402026033108000005070000001044+                                                                                                                                                             
161010027107902026033108000142090000000420+                                                                                                                                                             
161073544701102026033108000142090000001920+                                                                                                                                                             
161005219729302026033108000064080000000320+                                                                                                                                                             
161005219729402026033108000064080000000240+                                                                                                                                                             
161005221559502026033108000064080000000120+                                                                                                                                                             
161005221736002026033108000064080000000240+                                                                                                                                                             
161005221736102026033108000064080000000400+                                                                                                                                                             
161005222491202026033108000064080000000880+                                                                                                                                                             
161005223704502026033108000064080000000240+                                                                                                                                                             
161004678414002026033108000371000000006000+                                                                                                                                                             
161005180271902026033108000371000000012000+                                                                                                                                                             
161005192506102026033108000371000000024000+                                                                                                                                                             
161005196234902026033108000371000000006000+                                                                                                                                                             
161005197893802026033108000371000000004000+                                                                                                                                                             
161005200907602026033108000371000000008000+                                                                                                                                                             
161005201729502026033108000371000000008000+                                                                                                                                                             
161005217653202026033108000371000000008000+                                                                                                                                                             
CL99161BIMF2026033112001805881V8AUTOMATIC 0000345                                                                                                                                                       
