OP01161BIMF2026033110002005880V8AUTOMATIC                                                                                                                                                               
161000752049602026033108000063720000002000+                                                                                                                                                             
161000752754502026033108000063720000002000+                                                                                                                                                             
161000752848002026033108000063300000001600+                                                                                                                                                             
161000752849102026033108000063720000002500+                                                                                                                                                             
161000755208702026033108000063720000004800+                                                                                                                                                             
161000756019702026033108000063300000025000+                                                                                                                                                             
161000756858702026033108000284580000009100+                                                                                                                                                             
161000773875102026033108000063720000001200+                                                                                                                                                             
161000775014702026033108000284580000004000+                                                                                                                                                             
161001314118702026033108000063720000001000+                                                                                                                                                             
161001314208702026033108000057400000006000+                                                                                                                                                             
161001450758702026033108000063720000002300+                                                                                                                                                             
161001450768702026033108000063720000002200+                                                                                                                                                             
161001450848702026033108000063720000006000+                                                                                                                                                             
161004640135602026033108000056930000000936+                                                                                                                                                             
161004641658802026033108000063720000001000+                                                                                                                                                             
161004642981902026033108000063720000009900+                                                                                                                                                             
161004643638502026033108000063720000001700+                                                                                                                                                             
161004643638602026033108000063720000001200+                                                                                                                                                             
161004644010292026033108000369040000000600+                                                                                                                                                             
161004644635902026033108000063720000005000+                                                                                                                                                             
161004644870502026033108000057400000015000+                                                                                                                                                             
161004645589202026033108000056930000000800+                                                                                                                                                             
161004646412402026033108000063720000004200+                                                                                                                                                             
161004653038502026033108000063300000004800+                                                                                                                                                             
161004653859302026033108000063300000008000+                                                                                                                                                             
161004675886492026033108000369040000001160+                                                                                                                                                             
161004676360502026033108000063720000002400+                                                                                                                                                             
161004678350002026033108000063300000006000+                                                                                                                                                             
161004683451802026033108000462990000001225+                                                                                                                                                             
161004684535102026033108000063300000005950+                                                                                                                                                             
161005001044002026033108000063300000012000+                                                                                                                                                             
161005170815202026033108000063720000000400+                                                                                                                                                             
161005171698802026033108000284580000002500+                                                                                                                                                             
161005174912402026033108000056930000001568+                                                                                                                                                             
161005176182402026033108000063720000002000+                                                                                                                                                             
161005179306002026033108000462990000003600+                                                                                                                                                             
161005182260202026033108000063300000004500+                                                                                                                                                             
161005183660202026033108000063300000001000+                                                                                                                                                             
161005183692002026033108000056930000001120+                                                                                                                                                             
161005185542102026033108000462990000000800+                                                                                                                                                             
161005187314502026033108000063300000001200+                                                                                                                                                             
161005187703902026033108000386910000000160+                                                                                                                                                             
161005189724502026033108000056930000001560+                                                                                                                                                             
161005192491802026033108000056930000000864+                                                                                                                                                             
161005192491902026033108000056930000002340+                                                                                                                                                             
161005194999102026033108000063720000001200+                                                                                                                                                             
161005197955802026033108000063300000000240+                                                                                                                                                             
161005198013102026033108000027000000001792+                                                                                                                                                             
161005198406402026033108000466990000001280+                                                                                                                                                             
161005198406502026033108000466990000001920+                                                                                                                                                             
161005200423102026033108000284580000004050+                                                                                                                                                             
161005200423202026033108000284580000003000+                                                                                                                                                             
161005200583802026033108000386910000000080+                                                                                                                                                             
161005200591402026033108000386910000000300+                                                                                                                                                             
161005200610602026033108000284580000002025+                                                                                                                                                             
161005200685802026033108000065230000000300+                                                                                                                                                             
161005201935302026033108000027000000000180+                                                                                                                                                             
161005202353102026033108000284580000009000+                                                                                                                                                             
161005203886802026033108000063720000001000+                                                                                                                                                             
161005204416502026033108000354070000002394+                                                                                                                                                             
161005204452302026033108000027000000000150+                                                                                                                                                             
161005204583102026033108000462990000001216+                                                                                                                                                             
161005204583202026033108000462990000001216+                                                                                                                                                             
161005204987502026033108000284580000002000+                                                                                                                                                             
161005205627002026033108000063720000002400+                                                                                                                                                             
161005206633402026033108000369040000000250+                                                                                                                                                             
161005206740002026033108000063720000002400+                                                                                                                                                             
161005207292902026033108000063720000001500+                                                                                                                                                             
161005207293002026033108000063720000002400+                                                                                                                                                             
161005207990002026033108000063720000003000+                                                                                                                                                             
161005208434402026033108000284580000003000+                                                                                                                                                             
161005209094002026033108000369040000000060+                                                                                                                                                             
161005209465802026033108000027000000000588+                                                                                                                                                             
161005209660402026033108000062480000000480+                                                                                                                                                             
161005210226102026033108000063720000002000+                                                                                                                                                             
161005210397102026033108000062480000000240+                                                                                                                                                             
161005212735502026033108000369040000001497+                                                                                                                                                             
161005212736602026033108000369040000000305+                                                                                                                                                             
161005212802902026033108000462990000001450+                                                                                                                                                             
161005212807002026033108000066480000000673+                                                                                                                                                             
161005212807102026033108000066480000000741+                                                                                                                                                             
161005212811902026033108000450910000001528+                                                                                                                                                             
161005212851402026033108000063300000000600+                                                                                                                                                             
161005212851402026033108000386910000000900+                                                                                                                                                             
161005212851502026033108000063300000000350+                                                                                                                                                             
161005212851502026033108000386910000000350+                                                                                                                                                             
161005212884002026033108000027000000000250+                                                                                                                                                             
161005212910102026033108000063720000004200+                                                                                                                                                             
161005213800502026033108000027000000000360+                                                                                                                                                             
161005213814402026033108000284580000000960+                                                                                                                                                             
161005213994802026033108000066480000000188+                                                                                                                                                             
161005213995002026033108000066480000000188+                                                                                                                                                             
161005214841702026033108000462990000002400+                                                                                                                                                             
161005215127202026033108000065230000001400+                                                                                                                                                             
161005215128102026033108000065230000001400+                                                                                                                                                             
161005215436602026033108000032410000000600+                                                                                                                                                             
161005215436802026033108000032410000000600+                                                                                                                                                             
161005215450402026033108000386910000001200+                                                                                                                                                             
161005215451102026033108000060420000001260+                                                                                                                                                             
161005215788602026033108000369040000000718+                                                                                                                                                             
161005215789102026033108000369040000000396+                                                                                                                                                             
161005215964902026033108000066480000000400+                                                                                                                                                             
161005216001802026033108000450910000000764+                                                                                                                                                             
161005216070702026033108000450910000001152+                                                                                                                                                             
161005216070802026033108000450910000001152+                                                                                                                                                             
161005216218502026033108000066480000000184+                                                                                                                                                             
161005216338302026033108000063720000003000+                                                                                                                                                             
161005216402402026033108000386910000000600+                                                                                                                                                             
161005216402502026033108000386910000000900+                                                                                                                                                             
161005216424202026033108000063720000003000+                                                                                                                                                             
161005216843102026033108000032410000000600+                                                                                                                                                             
161005216843302026033108000032410000000600+                                                                                                                                                             
161005216869902026033108000060420000001500+                                                                                                                                                             
161005216872702026033108000063300000001500+                                                                                                                                                             
161005217297302026033108000056930000000140+                                                                                                                                                             
161005217441102026033108000056930000000936+                                                                                                                                                             
161005217441502026033108000056930000000910+                                                                                                                                                             
161005217598802026033108000060420000000140+                                                                                                                                                             
161005217883502026033108000027000000000100+                                                                                                                                                             
161005218247602026033108000386910000001000+                                                                                                                                                             
161005218257502026033108000450910000001146+                                                                                                                                                             
161005218379802026033108000062480000000640+                                                                                                                                                             
161005218380002026033108000062480000001280+                                                                                                                                                             
161005218967102026033108000027000000000050+                                                                                                                                                             
161005219017302026033108000060420000000150+                                                                                                                                                             
161005219345602026033108000369040000000654+                                                                                                                                                             
161005219409502026033108000060420000000080+                                                                                                                                                             
161005220188302026033108000063300000000472+                                                                                                                                                             
161005220188402026033108000063300000001200+                                                                                                                                                             
161005220218102026033108000027000000002280+                                                                                                                                                             
161005220517902026033108000369040000000292+                                                                                                                                                             
161005220711902026033108000062480000000640+                                                                                                                                                             
161005220916202026033108000027310000000240+                                                                                                                                                             
161005221021802026033108000065230000000600+                                                                                                                                                             
161005221105902026033108000063300000000750+                                                                                                                                                             
161005221106002026033108000063300000000150+                                                                                                                                                             
161005221106102026033108000063300000000300+                                                                                                                                                             
161005221106202026033108000063300000000300+                                                                                                                                                             
161005221106302026033108000063300000000300+                                                                                                                                                             
161005221106502026033108000063300000000450+                                                                                                                                                             
161005221107802026033108000063300000000150+                                                                                                                                                             
161005221108002026033108000063300000000150+                                                                                                                                                             
161005221207402026033108000462990000000990+                                                                                                                                                             
161005221266902026033108000027000000000100+                                                                                                                                                             
161005221609302026033108000063300000000300+                                                                                                                                                             
161005221609402026033108000063300000000300+                                                                                                                                                             
161005222201502026033108000252810000000100+                                                                                                                                                             
161005222201702026033108000252810000000100+                                                                                                                                                             
161005222202102026033108000252810000000100+                                                                                                                                                             
161005222202202026033108000252810000000100+                                                                                                                                                             
161005222202302026033108000252810000000200+                                                                                                                                                             
161005222202502026033108000252810000000200+                                                                                                                                                             
161005222219502026033108000063300000000700+                                                                                                                                                             
161005222219602026033108000063300000000700+                                                                                                                                                             
161005222219702026033108000063300000000500+                                                                                                                                                             
161005222219802026033108000063300000000500+                                                                                                                                                             
161005222256602026033108000443730000000210+                                                                                                                                                             
161005222256802026033108000443730000000210+                                                                                                                                                             
161005222257002026033108000443730000000210+                                                                                                                                                             
161005222297002026033108000032410000000486+                                                                                                                                                             
161005222297102026033108000032410000000486+                                                                                                                                                             
161005222387602026033108000027310000000960+                                                                                                                                                             
161005222387702026033108000027310000000480+                                                                                                                                                             
161005222400402026033108000065230000002000+                                                                                                                                                             
161005222400602026033108000065230000002000+                                                                                                                                                             
161005222436602026033108000450910000000764+                                                                                                                                                             
161005222716502026033108000466990000001120+                                                                                                                                                             
161005222926402026033108000386910000000800+                                                                                                                                                             
161005223104002026033108000032410000000450+                                                                                                                                                             
161005223104102026033108000032410000000540+                                                                                                                                                             
161005223338902026033108000063720000003000+                                                                                                                                                             
161005223553902026033108000060420000001500+                                                                                                                                                             
161005223554002026033108000060420000001700+                                                                                                                                                             
161005223627102026033108000060420000000150+                                                                                                                                                             
161005223689902026033108000063300000000400+                                                                                                                                                             
161005223930002026033108000060420000000252+                                                                                                                                                             
161005223938102026033108000066480000000224+                                                                                                                                                             
161005223968802026033108000060420000000721+                                                                                                                                                             
161005224369602026033108000252810000000120+                                                                                                                                                             
161005224658902026033108000063300000000250+                                                                                                                                                             
161005224658902026033108000386910000000250+                                                                                                                                                             
161005224856602026033108000027310000001200+                                                                                                                                                             
161005224944602026033108000027310000000600+                                                                                                                                                             
161005224944702026033108000027310000000420+                                                                                                                                                             
161005225108202026033108000063300000000600+                                                                                                                                                             
161005225108302026033108000063300000000600+                                                                                                                                                             
161005225108402026033108000063300000001500+                                                                                                                                                             
161005225108502026033108000063300000000900+                                                                                                                                                             
161005225507002026033108000060420000001302+                                                                                                                                                             
161005225762502026033108000060420000001600+                                                                                                                                                             
161005225968002026033108000065230000002000+                                                                                                                                                             
161005225968102026033108000065230000000480+                                                                                                                                                             
161005225968202026033108000065230000000864+                                                                                                                                                             
161005226018802026033108000331280000000880+                                                                                                                                                             
161005226018902026033108000331280000000240+                                                                                                                                                             
161005226019102026033108000331280000000880+                                                                                                                                                             
161005226077102026033108000331280000000160+                                                                                                                                                             
161005227595502026033108000065230000000900+                                                                                                                                                             
161005227651702026033108000252810000000840+                                                                                                                                                             
161005348402202026033108000284580000001950+                                                                                                                                                             
161005348402302026033108000284580000002040+                                                                                                                                                             
161010017478202026033108000063300000000380+                                                                                                                                                             
161010020128602026033108000063300000001292+                                                                                                                                                             
161010020128702026033108000063300000000090+                                                                                                                                                             
161010021505302026033108000462990000000405+                                                                                                                                                             
161010022110502026033108000462990000000800+                                                                                                                                                             
161010022118602026033108000462990000000300+                                                                                                                                                             
161010022343902026033108000063300000000300+                                                                                                                                                             
161010024395002026033108000063300000000200+                                                                                                                                                             
161010024432702026033108000063300000000325+                                                                                                                                                             
161010024432702026033108000386910000000260+                                                                                                                                                             
161010024438702026033108000030630000001800+                                                                                                                                                             
161010024439002026033108000030630000000360+                                                                                                                                                             
161010024443702026033108000432350000001500+                                                                                                                                                             
161010024456602026033108000063300000002000+                                                                                                                                                             
161010024561402026033108000462990000001300+                                                                                                                                                             
161010024855302026033108000030630000000720+                                                                                                                                                             
161010024978702026033108000063300000000650+                                                                                                                                                             
161010025214402026033108000432350000001740+                                                                                                                                                             
161010025361002026033108000432350000001608+                                                                                                                                                             
161010025457202026033108000386910000000200+                                                                                                                                                             
161010025457302026033108000386910000000200+                                                                                                                                                             
161010025475602026033108000432350000000100+                                                                                                                                                             
161010025628602026033108000432350000000300+                                                                                                                                                             
161010025782502026033108000063300000000608+                                                                                                                                                             
161010025782602026033108000063300000000400+                                                                                                                                                             
161010025844402026033108000462990000001600+                                                                                                                                                             
161010025873802026033108000062480000000002+                                                                                                                                                             
161010025874502026033108000062480000000056+                                                                                                                                                             
161010025874802026033108000062480000000056+                                                                                                                                                             
161010025895002026033108000462990000001600+                                                                                                                                                             
161010025941002026033108000062480000000600+                                                                                                                                                             
161010025941302026033108000062480000000600+                                                                                                                                                             
161010025954102026033108000386910000000120+                                                                                                                                                             
161010025954202026033108000386910000000200+                                                                                                                                                             
161010026102002026033108000063300000000600+                                                                                                                                                             
161010026347902026033108000462990000001400+                                                                                                                                                             
161010026367402026033108000063300000000624+                                                                                                                                                             
161010026439202026033108000063300000000300+                                                                                                                                                             
161010026588502026033108000462990000001800+                                                                                                                                                             
161010026620502026033108000404890000000900+                                                                                                                                                             
161010026632302026033108000063300000000260+                                                                                                                                                             
161010026637902026033108000432350000001512+                                                                                                                                                             
161010026759402026033108000404890000002000+                                                                                                                                                             
161010026833802026033108000432350000000203+                                                                                                                                                             
161010026877302026033108000063300000000144+                                                                                                                                                             
161010026911602026033108000063300000000288+                                                                                                                                                             
161010027048302026033108000432350000000200+                                                                                                                                                             
161010027224702026033108000060420000001500+                                                                                                                                                             
161010027269602026033108000386910000000210+                                                                                                                                                             
161010027269702026033108000063300000001000+                                                                                                                                                             
161010027338602026033108000063300000001000+                                                                                                                                                             
161010027631502026033108000062480000000399+                                                                                                                                                             
161010027631802026033108000062480000000561+                                                                                                                                                             
161010027631902026033108000062480000000450+                                                                                                                                                             
161010027828702026033108000060420000001000+                                                                                                                                                             
161010028381002026033108000062480000000300+                                                                                                                                                             
161010028398202026033108000462990000001512+                                                                                                                                                             
161010028398302026033108000462990000001512+                                                                                                                                                             
161010028458802026033108000386910000000320+                                                                                                                                                             
161010028477602026033108000432350000000700+                                                                                                                                                             
161010028477702026033108000432350000000200+                                                                                                                                                             
161010028698202026033108000062480000000180+                                                                                                                                                             
161010028713002026033108000062480000000300+                                                                                                                                                             
161010029015802026033108000432350000001444+                                                                                                                                                             
161010029246302026033108000386910000000480+                                                                                                                                                             
161010029246402026033108000386910000000500+                                                                                                                                                             
161000757768002026033108000063570000004800+                                                                                                                                                             
161001450348702026033108000063570000001600+                                                                                                                                                             
161004634188402026033108000063570000000116+                                                                                                                                                             
161004644074102026033108000063570000001120+                                                                                                                                                             
161004644074402026033108000063570000000095+                                                                                                                                                             
161004644456502026033108000063570000002000+                                                                                                                                                             
161005000774402026033108000063570000000900+                                                                                                                                                             
161005179114902026033108000059020000000500+                                                                                                                                                             
161005180109802026033108000063560000002500+                                                                                                                                                             
161005182736402026033108000059020000000130+                                                                                                                                                             
161005188299402026033108000063570000001300+                                                                                                                                                             
161005189479502026033108000059020000005600+                                                                                                                                                             
161005189882102026033108000063570000000600+                                                                                                                                                             
161005195017002026033108000452730000000550+                                                                                                                                                             
161005202897102026033108000063570000000448+                                                                                                                                                             
161005203903102026033108000063570000000800+                                                                                                                                                             
161005204175802026033108000059020000000099+                                                                                                                                                             
161005205731102026033108000059020000000336+                                                                                                                                                             
161005208679502026033108000059020000000792+                                                                                                                                                             
161005208679602026033108000059020000000792+                                                                                                                                                             
161005208799002026033108000063570000000720+                                                                                                                                                             
161005209642302026033108000063570000012000+                                                                                                                                                             
161005209642302026033108000152290000010500+                                                                                                                                                             
161005209642502026033108000063570000004500+                                                                                                                                                             
161005209642502026033108000152290000001500+                                                                                                                                                             
161005209978502026033108000059020000000192+                                                                                                                                                             
161005212684802026033108000059020000001452+                                                                                                                                                             
161005215190502026033108000059020000000072+                                                                                                                                                             
161005216219602026033108000308340000000319+                                                                                                                                                             
161005216228302026033108000308340000000058+                                                                                                                                                             
161005216342402026033108000452730000000350+                                                                                                                                                             
161005216419702026033108000059020000000480+                                                                                                                                                             
161005216419802026033108000059020000000480+                                                                                                                                                             
161005216419902026033108000059020000000480+                                                                                                                                                             
161005218414202026033108000308340000000180+                                                                                                                                                             
161005219185502026033108000059020000000462+                                                                                                                                                             
161005219247502026033108000452730000000180+                                                                                                                                                             
161005219247902026033108000452730000000120+                                                                                                                                                             
161005219248302026033108000452730000000072+                                                                                                                                                             
161005220455602026033108000063570000000540+                                                                                                                                                             
161005221261302026033108000059020000000192+                                                                                                                                                             
161005221567002026033108000059020000000800+                                                                                                                                                             
161005222292102026033108000308340000000174+                                                                                                                                                             
161005222554602026033108000452730000000360+                                                                                                                                                             
161005222554802026033108000452730000000252+                                                                                                                                                             
161005223511302026033108000059020000000720+                                                                                                                                                             
161005225894702026033108000308340000000168+                                                                                                                                                             
161005225895002026033108000308340000000250+                                                                                                                                                             
161005225895202026033108000308340000000352+                                                                                                                                                             
161005225895302026033108000308340000000376+                                                                                                                                                             
161005225895402026033108000308340000000188+                                                                                                                                                             
161005225895502026033108000308340000000188+                                                                                                                                                             
161005225895602026033108000308340000000396+                                                                                                                                                             
161005225895702026033108000308340000000396+                                                                                                                                                             
161005225895802026033108000308340000000264+                                                                                                                                                             
161005225895902026033108000308340000000264+                                                                                                                                                             
161005227090102026033108000466990000000056+                                                                                                                                                             
161005227090202026033108000466990000000164+                                                                                                                                                             
161005227090302026033108000466990000000232+                                                                                                                                                             
161005227090402026033108000466990000000052+                                                                                                                                                             
161005227154702026033108000466990000000040+                                                                                                                                                             
161005227168702026033108000466990000000060+                                                                                                                                                             
161005227168802026033108000466990000000088+                                                                                                                                                             
161010019585902026033108000063570000000210+                                                                                                                                                             
161010023289302026033108000152290000000060+                                                                                                                                                             
161010023289302026033108000452730000000120+                                                                                                                                                             
161010023289402026033108000452730000000180+                                                                                                                                                             
161010023289502026033108000452730000000120+                                                                                                                                                             
161010023289902026033108000452730000000072+                                                                                                                                                             
161010023290002026033108000452730000000072+                                                                                                                                                             
161010023292702026033108000152290000000072+                                                                                                                                                             
161010023292702026033108000452730000000108+                                                                                                                                                             
161010023292902026033108000152290000000072+                                                                                                                                                             
161010023292902026033108000452730000000072+                                                                                                                                                             
161010023293702026033108000063570000000100+                                                                                                                                                             
161010023294102026033108000063570000001680+                                                                                                                                                             
161010023304602026033108000452730000000108+                                                                                                                                                             
161010023304802026033108000452730000000096+                                                                                                                                                             
161010023306302026033108000063570000000072+                                                                                                                                                             
161010023327502026033108000062140000000060+                                                                                                                                                             
161010023691102026033108000062140000000468+                                                                                                                                                             
161010023692602026033108000062140000000504+                                                                                                                                                             
161010024103602026033108000063570000000084+                                                                                                                                                             
161010024180802026033108000059020000000174+                                                                                                                                                             
161010024433002026033108000452730000000672+                                                                                                                                                             
161010024433202026033108000452730000000576+                                                                                                                                                             
161010024433402026033108000452730000000660+                                                                                                                                                             
161010024433602026033108000452730000000780+                                                                                                                                                             
161010024434702026033108000452730000000832+                                                                                                                                                             
161010024435302026033108000452730000000728+                                                                                                                                                             
161010024435702026033108000063560000000432+                                                                                                                                                             
161010024435902026033108000063560000000468+                                                                                                                                                             
161010024436202026033108000452730000000840+                                                                                                                                                             
161010024436402026033108000452730000000840+                                                                                                                                                             
161010024436802026033108000059020000000480+                                                                                                                                                             
161010024437202026033108000059020000000480+                                                                                                                                                             
161010024437702026033108000452730000000660+                                                                                                                                                             
161010024438302026033108000452730000000726+                                                                                                                                                             
161010024439602026033108000062140000001000+                                                                                                                                                             
161010024440002026033108000062140000000035+                                                                                                                                                             
161010024440402026033108000452730000000240+                                                                                                                                                             
161010024457802026033108000452730000000216+                                                                                                                                                             
161010024458402026033108000063570000000450+                                                                                                                                                             
161010024458602026033108000063570000000288+                                                                                                                                                             
161010024458802026033108000063570000000128+                                                                                                                                                             
161010024459102026033108000063570000000576+                                                                                                                                                             
161010024459302026033108000063570000000072+                                                                                                                                                             
161010024483502026033108000062140000000020+                                                                                                                                                             
161010024485702026033108000062140000000020+                                                                                                                                                             
161010024517302026033108000452730000000468+                                                                                                                                                             
161010024558702026033108000063570000000224+                                                                                                                                                             
161010024558802026033108000063570000000448+                                                                                                                                                             
161010024559202026033108000063570000000300+                                                                                                                                                             
161010024561902026033108000452730000000480+                                                                                                                                                             
161010025431702026033108000063570000000528+                                                                                                                                                             
161010025524802026033108000063560000000024+                                                                                                                                                             
161010025526402026033108000063560000000408+                                                                                                                                                             
161010025528002026033108000063560000000096+                                                                                                                                                             
161010025648902026033108000452730000000096+                                                                                                                                                             
161010025677902026033108000452730000000840+                                                                                                                                                             
161010025678102026033108000452730000000924+                                                                                                                                                             
161010025679502026033108000452730000000104+                                                                                                                                                             
161010025679602026033108000452730000000520+                                                                                                                                                             
161010025679702026033108000452730000000288+                                                                                                                                                             
161010025679802026033108000452730000000480+                                                                                                                                                             
161010025679902026033108000452730000000567+                                                                                                                                                             
161010025680202026033108000452730000000540+                                                                                                                                                             
161010025680402026033108000452730000001170+                                                                                                                                                             
161010025680502026033108000452730000000585+                                                                                                                                                             
161010025680602026033108000063560000000544+                                                                                                                                                             
161010025680702026033108000063560000000544+                                                                                                                                                             
161010025680802026033108000063560000000252+                                                                                                                                                             
161010025681002026033108000063560000000252+                                                                                                                                                             
161010025681202026033108000452730000000308+                                                                                                                                                             
161010025681402026033108000452730000000448+                                                                                                                                                             
161010025681602026033108000452730000000540+                                                                                                                                                             
161010025681902026033108000452730000000480+                                                                                                                                                             
161010025701802026033108000452730000000054+                                                                                                                                                             
161010025702002026033108000063560000000702+                                                                                                                                                             
161010025702102026033108000452730000000080+                                                                                                                                                             
161010025702302026033108000452730000000714+                                                                                                                                                             
161010025702702026033108000452730000000270+                                                                                                                                                             
161010025704402026033108000452730000000972+                                                                                                                                                             
161010025706102026033108000063570000000072+                                                                                                                                                             
161010025736802026033108000452730000000690+                                                                                                                                                             
161010025791402026033108000063570000000630+                                                                                                                                                             
161010026078102026033108000063560000000024+                                                                                                                                                             
161010026106402026033108000452730000000224+                                                                                                                                                             
161010026271202026033108000063570000001536+                                                                                                                                                             
161010026351302026033108000452730000000720+                                                                                                                                                             
161010026367802026033108000452730000000230+                                                                                                                                                             
161010026530302026033108000062140000000050+                                                                                                                                                             
161010026600602026033108000062140000000050+                                                                                                                                                             
161010026611602026033108000063560000000160+                                                                                                                                                             
161010026612202026033108000063560000000040+                                                                                                                                                             
161010026618702026033108000452730000000196+                                                                                                                                                             
161010026623502026033108000452730000000240+                                                                                                                                                             
161010026624402026033108000452730000000240+                                                                                                                                                             
161010026625102026033108000452730000001000+                                                                                                                                                             
161010026625202026033108000452730000000480+                                                                                                                                                             
161010026625402026033108000452730000000360+                                                                                                                                                             
161010026625602026033108000452730000000396+                                                                                                                                                             
161010026626502026033108000452730000000360+                                                                                                                                                             
161010026626602026033108000452730000000459+                                                                                                                                                             
161010026627002026033108000452730000000450+                                                                                                                                                             
161010026628502026033108000452730000000280+                                                                                                                                                             
161010026629702026033108000063570000000396+                                                                                                                                                             
161010026665002026033108000452730000000480+                                                                                                                                                             
161010026682202026033108000452730000000210+                                                                                                                                                             
161010026682902026033108000062140000000480+                                                                                                                                                             
161010026683002026033108000062140000000060+                                                                                                                                                             
161010026683102026033108000062140000000260+                                                                                                                                                             
161010026683802026033108000062140000000540+                                                                                                                                                             
161010026684002026033108000062140000000260+                                                                                                                                                             
161010026685202026033108000452730000000200+                                                                                                                                                             
161010026686102026033108000452730000000200+                                                                                                                                                             
161010026799402026033108000452730000000420+                                                                                                                                                             
161010026799802026033108000452730000000462+                                                                                                                                                             
161010026800002026033108000452730000000077+                                                                                                                                                             
161010026876102026033108000452730000000130+                                                                                                                                                             
161010026876202026033108000452730000000130+                                                                                                                                                             
161010026876702026033108000452730000000120+                                                                                                                                                             
161010026876802026033108000452730000000120+                                                                                                                                                             
161010026876902026033108000452730000000072+                                                                                                                                                             
161010026877102026033108000452730000000108+                                                                                                                                                             
161010026911302026033108000452730000000135+                                                                                                                                                             
161010026914802026033108000062140000000060+                                                                                                                                                             
161010027030702026033108000063570000000096+                                                                                                                                                             
161010027109902026033108000466990000000700+                                                                                                                                                             
161010027110002026033108000466990000000028+                                                                                                                                                             
161010027124702026033108000466990000000288+                                                                                                                                                             
161010027183102026033108000063570000000540+                                                                                                                                                             
161010027183302026033108000063570000000360+                                                                                                                                                             
161010027229302026033108000452730000000243+                                                                                                                                                             
161010027254502026033108000063560000000060+                                                                                                                                                             
161010027270202026033108000452730000000224+                                                                                                                                                             
161010027270302026033108000452730000000224+                                                                                                                                                             
161010027270402026033108000452730000000432+                                                                                                                                                             
161010027270502026033108000452730000000360+                                                                                                                                                             
161010027270702026033108000452730000000288+                                                                                                                                                             
161010027271102026033108000452730000000360+                                                                                                                                                             
161010027271302026033108000452730000000324+                                                                                                                                                             
161010027272902026033108000452730000000288+                                                                                                                                                             
161010027273102026033108000452730000000266+                                                                                                                                                             
161010027292502026033108000452730000000300+                                                                                                                                                             
161010027298802026033108000452730000000210+                                                                                                                                                             
161010027299002026033108000452730000000390+                                                                                                                                                             
161010027305502026033108000452730000000324+                                                                                                                                                             
161010027337002026033108000452730000000200+                                                                                                                                                             
161010027345002026033108000452730000000024+                                                                                                                                                             
161010027444202026033108000466990000000172+                                                                                                                                                             
161010027543802026033108000452730000000210+                                                                                                                                                             
161010027555502026033108000062140000000030+                                                                                                                                                             
161010027555902026033108000062140000000060+                                                                                                                                                             
161010027708502026033108000452730000000252+                                                                                                                                                             
161010027708702026033108000452730000000036+                                                                                                                                                             
161010027708902026033108000452730000000036+                                                                                                                                                             
161010027720002026033108000452730000000076+                                                                                                                                                             
161010027720302026033108000452730000000272+                                                                                                                                                             
161010027726802026033108000452730000000180+                                                                                                                                                             
161010027734602026033108000452730000000040+                                                                                                                                                             
161010027770702026033108000452730000000288+                                                                                                                                                             
161010027770902026033108000452730000000216+                                                                                                                                                             
161010027771002026033108000452730000000144+                                                                                                                                                             
161010027886702026033108000452730000000400+                                                                                                                                                             
161010027901302026033108000059020000000750+                                                                                                                                                             
161010027901402026033108000059020000000960+                                                                                                                                                             
161010027901502026033108000059020000001200+                                                                                                                                                             
