OP01161BIMF2026033114001905882V8AUTOMATIC                                                                                                                                                               
161005199013702026033108000062150000005760+                                                                                                                                                             
161005204056702026033108000059450000000336+                                                                                                                                                             
161005204549602026033108000195490000000450+                                                                                                                                                             
161005204549702026033108000195490000000450+                                                                                                                                                             
161005212838702026033108000431780000000840+                                                                                                                                                             
161005213826102026033108000059450000000600+                                                                                                                                                             
161005216268502026033108000037520000007200+                                                                                                                                                             
161005216870102026033108000059450000000600+                                                                                                                                                             
161005217075802026033108000060240000002000+                                                                                                                                                             
161005219028202026033108000059450000000200+                                                                                                                                                             
161005221968202026033108000059450000000400+                                                                                                                                                             
161005222994702026033108000059450000000200+                                                                                                                                                             
161005226239102026033108000431780000000840+                                                                                                                                                             
161005226239202026033108000431780000000800+                                                                                                                                                             
161005226239302026033108000431780000000800+                                                                                                                                                             
161005226876802026033108000431780000000700+                                                                                                                                                             
161004634967102026033108000061920000003080+                                                                                                                                                             
161005193411402026033108000168590000002988+                                                                                                                                                             
161005200584002026033108000025530000000180+                                                                                                                                                             
161005202509802026033108000468980000002100+                                                                                                                                                             
161005203568302026033108000003770000003000+                                                                                                                                                             
161005212817902026033108000003770000002346+                                                                                                                                                             
161005212908602026033108000025530000003015+                                                                                                                                                             
161005213796602026033108000168590000000504+                                                                                                                                                             
161005213856102026033108000132310000006000+                                                                                                                                                             
161005214903402026033108000061920000001600+                                                                                                                                                             
161005215009402026033108000288260000002010+                                                                                                                                                             
161005215236302026033108000168590000000480+                                                                                                                                                             
161005215236502026033108000168590000000120+                                                                                                                                                             
161005215779202026033108000003770000000966+                                                                                                                                                             
161005217297402026033108000336650000002040+                                                                                                                                                             
161005218038702026033108000025530000000500+                                                                                                                                                             
161005220942402026033108000168590000000189+                                                                                                                                                             
161005222179502026033108000288260000000270+                                                                                                                                                             
161005222201202026033108000463740000006000+                                                                                                                                                             
161005222968202026033108000288260000000090+                                                                                                                                                             
161005223023802026033108000168590000000096+                                                                                                                                                             
161005223023902026033108000168590000000384+                                                                                                                                                             
161005223024002026033108000168590000000240+                                                                                                                                                             
161005223024102026033108000168590000000144+                                                                                                                                                             
161005223024202026033108000168590000000540+                                                                                                                                                             
161005223024302026033108000168590000000648+                                                                                                                                                             
161005223703402026033108000129390000003040+                                                                                                                                                             
161005224319602026033108000168590000002000+                                                                                                                                                             
161010024518302026033108000320560000000028+                                                                                                                                                             
161010024518702026033108000320560000000048+                                                                                                                                                             
161010024764302026033108000472010000010016+                                                                                                                                                             
161010024852702026033108000320560000000672+                                                                                                                                                             
161010024852902026033108000320560000000672+                                                                                                                                                             
161010025735702026033108000320560000001152+                                                                                                                                                             
161010026017402026033108000320560000000077+                                                                                                                                                             
161010026018302026033108000320560000000024+                                                                                                                                                             
161010026029102026033108000320560000000512+                                                                                                                                                             
161010026029302026033108000320560000001001+                                                                                                                                                             
161010026029602026033108000320560000000504+                                                                                                                                                             
161010026593402026033108000401870000000800+                                                                                                                                                             
161010026601002026033108000003770000000210+                                                                                                                                                             
161010026601102026033108000003770000000330+                                                                                                                                                             
161010026680702026033108000003770000001280+                                                                                                                                                             
161010026682402026033108000320560000000600+                                                                                                                                                             
161010026682502026033108000320560000000600+                                                                                                                                                             
161010026682602026033108000320560000000600+                                                                                                                                                             
161010026766002026033108000320560000000240+                                                                                                                                                             
161010026856602026033108000003770000000090+                                                                                                                                                             
161010026856702026033108000003770000000190+                                                                                                                                                             
161010026856902026033108000003770000000030+                                                                                                                                                             
161010027104002026033108000003770000000540+                                                                                                                                                             
161010027547702026033108000401870000000200+                                                                                                                                                             
161010027547802026033108000401870000000300+                                                                                                                                                             
161010027547902026033108000401870000000400+                                                                                                                                                             
161010027548002026033108000401870000000400+                                                                                                                                                             
161010027548102026033108000401870000000200+                                                                                                                                                             
161010027548202026033108000401870000000300+                                                                                                                                                             
161010027548302026033108000401870000000500+                                                                                                                                                             
161010027548402026033108000401870000000400+                                                                                                                                                             
161010027583902026033108000320560000001944+                                                                                                                                                             
161010027656902026033108000401870000001000+                                                                                                                                                             
161010027657002026033108000401870000000400+                                                                                                                                                             
161010027657102026033108000401870000000400+                                                                                                                                                             
161010027657202026033108000401870000000400+                                                                                                                                                             
161010027657302026033108000401870000000400+                                                                                                                                                             
161010027657402026033108000401870000000400+                                                                                                                                                             
161010028095302026033108000401870000000100+                                                                                                                                                             
161010028095402026033108000401870000000200+                                                                                                                                                             
161010028095802026033108000401870000000100+                                                                                                                                                             
161010028304402026033108000320560000000672+                                                                                                                                                             
161010028304602026033108000320560000000144+                                                                                                                                                             
161010028627602026033108000003770000001070+                                                                                                                                                             
161010028627702026033108000003770000000870+                                                                                                                                                             
161010028665502026033108000003770000001140+                                                                                                                                                             
161010028665602026033108000003770000000900+                                                                                                                                                             
161010028674402026033108000003770000000300+                                                                                                                                                             
161010028674502026033108000003770000000300+                                                                                                                                                             
161005196840702026033108000057410000000120+                                                                                                                                                             
161005203612402026033108000057410000000100+                                                                                                                                                             
161005204713402026033108000057410000000440+                                                                                                                                                             
161005204935002026033108000057410000001600+                                                                                                                                                             
161005204935202026033108000057410000000600+                                                                                                                                                             
161005207059302026033108000057410000000300+                                                                                                                                                             
161005211235102026033108000057410000000480+                                                                                                                                                             
161005213154202026033108000057410000000240+                                                                                                                                                             
161005216073502026033108000057410000000080+                                                                                                                                                             
161005216074802026033108000057410000000400+                                                                                                                                                             
161005216075002026033108000057410000000450+                                                                                                                                                             
161005216075302026033108000057410000000600+                                                                                                                                                             
161005216075402026033108000057410000000480+                                                                                                                                                             
161005216076502026033108000057410000000240+                                                                                                                                                             
161005217469402026033108000057410000000120+                                                                                                                                                             
161005218314902026033108000057410000000150+                                                                                                                                                             
161005218315002026033108000057410000000150+                                                                                                                                                             
161005220807102026033108000057410000000300+                                                                                                                                                             
161005220807202026033108000057410000000400+                                                                                                                                                             
161005222338102026033108000057410000000150+                                                                                                                                                             
161005222338202026033108000057410000000240+                                                                                                                                                             
161005222338302026033108000057410000000120+                                                                                                                                                             
161005223169802026033108000057410000000200+                                                                                                                                                             
161005223630002026033108000057410000000400+                                                                                                                                                             
161005223974102026033108000057410000000960+                                                                                                                                                             
161005223974202026033108000057410000000360+                                                                                                                                                             
161005223974402026033108000057410000000480+                                                                                                                                                             
161005223974502026033108000057410000000120+                                                                                                                                                             
161005223974702026033108000057410000000240+                                                                                                                                                             
161005223974802026033108000057410000000120+                                                                                                                                                             
161005224363902026033108000057410000000700+                                                                                                                                                             
161005225364902026033108000065360000000920+                                                                                                                                                             
161005225365002026033108000065360000000800+                                                                                                                                                             
161005225400402026033108000065360000000810+                                                                                                                                                             
161005225400502026033108000065360000000784+                                                                                                                                                             
161005528216902026033108000057410000000500+                                                                                                                                                             
161005216414702026033108000336650000003060+                                                                                                                                                             
161005216414802026033108000336650000003060+                                                                                                                                                             
161005220672902026033108000336650000000720+                                                                                                                                                             
161005220673002026033108000336650000000720+                                                                                                                                                             
161005224104202026033108000151770000000084+                                                                                                                                                             
161005224105102026033108000151770000000096+                                                                                                                                                             
161005225036002026033108000336650000000098+                                                                                                                                                             
161010025177702026033108000336650000003120+                                                                                                                                                             
161010026661702026033108000336650000001856+                                                                                                                                                             
161010026661802026033108000336650000001224+                                                                                                                                                             
161010026663702026033108000336650000000792+                                                                                                                                                             
161010026663802026033108000336650000001792+                                                                                                                                                             
161010027704302026033108000336650000001792+                                                                                                                                                             
161010027704402026033108000336650000001792+                                                                                                                                                             
161010027704502026033108000336650000001800+                                                                                                                                                             
161010028944302026033108000336650000000144+                                                                                                                                                             
CL99161BIMF2026033114001905882V8AUTOMATIC 0000147                                                                                                                                                       
