OP01161BIMF2026040810000305895V8AUTOMATIC                                                                                                                                                               
161000752049602026040808000063720000004000+                                                                                                                                                             
161000752754502026040808000063720000001000+                                                                                                                                                             
161000752848002026040808000063300000003600+                                                                                                                                                             
161000752849102026040808000063720000001500+                                                                                                                                                             
161000752865502026040808000063720000002000+                                                                                                                                                             
161000755208702026040808000063720000001920+                                                                                                                                                             
161000756019702026040808000063300000015000+                                                                                                                                                             
161000762544502026040808000063720000008000+                                                                                                                                                             
161000773875102026040808000063720000000800+                                                                                                                                                             
161000775014702026040808000284580000003000+                                                                                                                                                             
161001314118702026040808000063720000001000+                                                                                                                                                             
161001450758702026040808000063720000006900+                                                                                                                                                             
161001450768702026040808000063720000008800+                                                                                                                                                             
161001450848702026040808000063720000006000+                                                                                                                                                             
161001462238702026040808000063720000004720+                                                                                                                                                             
161004640135602026040808000056930000000936+                                                                                                                                                             
161004641658802026040808000063720000002000+                                                                                                                                                             
161004642981902026040808000063720000003630+                                                                                                                                                             
161004643638502026040808000063720000002040+                                                                                                                                                             
161004643638602026040808000063720000003600+                                                                                                                                                             
161004644635902026040808000063720000003500+                                                                                                                                                             
161004645151802026040808000063720000002550+                                                                                                                                                             
161004645589202026040808000056930000000960+                                                                                                                                                             
161004646412402026040808000063720000016200+                                                                                                                                                             
161004651444102026040808000063300000000360+                                                                                                                                                             
161004653859302026040808000063300000004000+                                                                                                                                                             
161004675886492026040808000369040000000536+                                                                                                                                                             
161004676360502026040808000063720000002000+                                                                                                                                                             
161004678350002026040808000063300000003500+                                                                                                                                                             
161004678476602026040808000063720000003200+                                                                                                                                                             
161004679266002026040808000027000000000336+                                                                                                                                                             
161004680426302026040808000063720000016000+                                                                                                                                                             
161004681831702026040808000036020000004400+                                                                                                                                                             
161004683451802026040808000462990000000900+                                                                                                                                                             
161004684535102026040808000063300000005950+                                                                                                                                                             
161005014895802026040808000284580000000270+                                                                                                                                                             
161005170815202026040808000063720000000600+                                                                                                                                                             
161005171698802026040808000284580000002700+                                                                                                                                                             
161005174912402026040808000056930000001120+                                                                                                                                                             
161005176182402026040808000063720000001750+                                                                                                                                                             
161005176445702026040808000063720000001000+                                                                                                                                                             
161005179306002026040808000462990000002500+                                                                                                                                                             
161005180698202026040808000063720000002400+                                                                                                                                                             
161005183660202026040808000063300000001200+                                                                                                                                                             
161005183692002026040808000056930000001120+                                                                                                                                                             
161005185542102026040808000462990000001000+                                                                                                                                                             
161005187166702026040808000063720000001800+                                                                                                                                                             
161005187170802026040808000284580000006000+                                                                                                                                                             
161005187703902026040808000386910000000080+                                                                                                                                                             
161005189724502026040808000056930000001560+                                                                                                                                                             
161005191119902026040808000466990000000150+                                                                                                                                                             
161005192491802026040808000056930000000864+                                                                                                                                                             
161005192491902026040808000056930000002340+                                                                                                                                                             
161005194009302026040808000098560000001200+                                                                                                                                                             
161005194999102026040808000063720000001200+                                                                                                                                                             
161005198012902026040808000027000000001494+                                                                                                                                                             
161005198013102026040808000027000000000800+                                                                                                                                                             
161005198111802026040808000063300000000300+                                                                                                                                                             
161005198406302026040808000466990000000080+                                                                                                                                                             
161005198406402026040808000466990000001440+                                                                                                                                                             
161005198406502026040808000466990000001280+                                                                                                                                                             
161005198706902026040808000062480000000480+                                                                                                                                                             
161005200423102026040808000284580000003000+                                                                                                                                                             
161005200423202026040808000284580000004050+                                                                                                                                                             
161005200431102026040808000284580000000936+                                                                                                                                                             
161005200583802026040808000386910000000240+                                                                                                                                                             
161005200685802026040808000065230000000300+                                                                                                                                                             
161005202308502026040808000057130000000900+                                                                                                                                                             
161005202377002026040808000065230000000193+                                                                                                                                                             
161005202481402026040808000057130000000900+                                                                                                                                                             
161005202588702026040808000063720000002500+                                                                                                                                                             
161005204415702026040808000063300000000280+                                                                                                                                                             
161005204415702026040808000386910000000385+                                                                                                                                                             
161005204452302026040808000027000000000350+                                                                                                                                                             
161005204472902026040808000284580000001800+                                                                                                                                                             
161005204473002026040808000284580000001800+                                                                                                                                                             
161005204473702026040808000063720000002800+                                                                                                                                                             
161005204504602026040808000284580000000420+                                                                                                                                                             
161005204583102026040808000462990000000885+                                                                                                                                                             
161005204583202026040808000462990000000885+                                                                                                                                                             
161005204597402026040808000062480000000640+                                                                                                                                                             
161005204597502026040808000062480000001280+                                                                                                                                                             
161005204789402026040808000063720000001200+                                                                                                                                                             
161005204796002026040808000284580000003000+                                                                                                                                                             
161005205320102026040808000057130000000300+                                                                                                                                                             
161005205627002026040808000063720000002400+                                                                                                                                                             
161005206633402026040808000369040000000160+                                                                                                                                                             
161005206740002026040808000063720000000900+                                                                                                                                                             
161005207292902026040808000063720000002100+                                                                                                                                                             
161005207293002026040808000063720000001200+                                                                                                                                                             
161005207990002026040808000063720000001000+                                                                                                                                                             
161005208070102026040808000284580000000200+                                                                                                                                                             
161005209085502026040808000027000000000210+                                                                                                                                                             
161005209094002026040808000369040000000294+                                                                                                                                                             
161005209293602026040808000027000000002520+                                                                                                                                                             
161005210397102026040808000062480000000240+                                                                                                                                                             
161005210397202026040808000062480000000480+                                                                                                                                                             
161005212735502026040808000369040000001542+                                                                                                                                                             
161005212736602026040808000369040000000655+                                                                                                                                                             
161005212802902026040808000462990000002100+                                                                                                                                                             
161005212807002026040808000066480000000600+                                                                                                                                                             
161005212807102026040808000066480000000513+                                                                                                                                                             
161005212851502026040808000063300000000490+                                                                                                                                                             
161005212851502026040808000386910000000420+                                                                                                                                                             
161005212883902026040808000027000000000060+                                                                                                                                                             
161005212884002026040808000027000000000350+                                                                                                                                                             
161005212910102026040808000063720000004480+                                                                                                                                                             
161005213800402026040808000027000000000100+                                                                                                                                                             
161005213800502026040808000027000000000120+                                                                                                                                                             
161005213994602026040808000098560000000600+                                                                                                                                                             
161005214808902026040808000063720000000900+                                                                                                                                                             
161005214841702026040808000462990000002600+                                                                                                                                                             
161005215127202026040808000065230000001846+                                                                                                                                                             
161005215128102026040808000065230000001246+                                                                                                                                                             
161005215436602026040808000032410000000400+                                                                                                                                                             
161005215436802026040808000032410000000390+                                                                                                                                                             
161005215450402026040808000386910000001200+                                                                                                                                                             
161005215451102026040808000060420000001000+                                                                                                                                                             
161005215702902026040808000057130000001000+                                                                                                                                                             
161005215703102026040808000057130000000600+                                                                                                                                                             
161005215703202026040808000065230000000326+                                                                                                                                                             
161005215788602026040808000369040000001523+                                                                                                                                                             
161005215789102026040808000369040000001172+                                                                                                                                                             
161005215964902026040808000066480000000300+                                                                                                                                                             
161005216218502026040808000066480000000300+                                                                                                                                                             
161005216338302026040808000063720000001800+                                                                                                                                                             
161005216402402026040808000386910000000600+                                                                                                                                                             
161005216402502026040808000386910000000600+                                                                                                                                                             
161005216424202026040808000063720000000900+                                                                                                                                                             
161005216843302026040808000032410000000320+                                                                                                                                                             
161005216869902026040808000060420000001500+                                                                                                                                                             
161005216872702026040808000063300000001200+                                                                                                                                                             
161005217297302026040808000056930000000700+                                                                                                                                                             
161005217298202026040808000098560000000400+                                                                                                                                                             
161005217441102026040808000056930000000720+                                                                                                                                                             
161005217441502026040808000056930000000700+                                                                                                                                                             
161005217598802026040808000060420000000450+                                                                                                                                                             
161005217651402026040808000252810000000126+                                                                                                                                                             
161005217883502026040808000027000000000300+                                                                                                                                                             
161005218033402026040808000057130000000700+                                                                                                                                                             
161005218247602026040808000386910000000900+                                                                                                                                                             
161005218379802026040808000062480000001280+                                                                                                                                                             
161005218380002026040808000062480000001280+                                                                                                                                                             
161005218967102026040808000027000000000150+                                                                                                                                                             
161005218967202026040808000027000000000120+                                                                                                                                                             
161005218985302026040808000284580000000480+                                                                                                                                                             
161005218989102026040808000066480000000132+                                                                                                                                                             
161005219017302026040808000060420000000450+                                                                                                                                                             
161005219266202026040808000057130000000260+                                                                                                                                                             
161005219345602026040808000369040000001500+                                                                                                                                                             
161005219409502026040808000060420000000650+                                                                                                                                                             
161005220218102026040808000027000000001560+                                                                                                                                                             
161005220517902026040808000369040000001500+                                                                                                                                                             
161005220711902026040808000062480000001280+                                                                                                                                                             
161005220712102026040808000062480000000288+                                                                                                                                                             
161005220916202026040808000027310000000120+                                                                                                                                                             
161005221021802026040808000065230000000600+                                                                                                                                                             
161005221105902026040808000063300000000600+                                                                                                                                                             
161005221106002026040808000063300000000150+                                                                                                                                                             
161005221106102026040808000063300000000300+                                                                                                                                                             
161005221106202026040808000063300000000300+                                                                                                                                                             
161005221106302026040808000063300000000750+                                                                                                                                                             
161005221106502026040808000063300000000450+                                                                                                                                                             
161005221107302026040808000063300000000150+                                                                                                                                                             
161005221107402026040808000063300000000250+                                                                                                                                                             
161005221107502026040808000063300000000150+                                                                                                                                                             
161005221107602026040808000063300000000250+                                                                                                                                                             
161005221107902026040808000063300000000150+                                                                                                                                                             
161005221207402026040808000462990000002000+                                                                                                                                                             
161005221226802026040808000063720000000800+                                                                                                                                                             
161005221266902026040808000027000000000150+                                                                                                                                                             
161005221609402026040808000063300000000150+                                                                                                                                                             
161005221609502026040808000063300000000150+                                                                                                                                                             
161005222201502026040808000252810000000200+                                                                                                                                                             
161005222201702026040808000252810000000200+                                                                                                                                                             
161005222202102026040808000252810000000100+                                                                                                                                                             
161005222202202026040808000252810000000100+                                                                                                                                                             
161005222202302026040808000252810000000300+                                                                                                                                                             
161005222202502026040808000252810000000300+                                                                                                                                                             
161005222219502026040808000063300000000700+                                                                                                                                                             
161005222219602026040808000063300000000700+                                                                                                                                                             
161005222219702026040808000063300000000500+                                                                                                                                                             
161005222219802026040808000063300000000500+                                                                                                                                                             
161005222256402026040808000443730000000315+                                                                                                                                                             
161005222256602026040808000443730000000315+                                                                                                                                                             
161005222256802026040808000443730000000314+                                                                                                                                                             
161005222257002026040808000443730000000315+                                                                                                                                                             
161005222297002026040808000032410000000594+                                                                                                                                                             
161005222297102026040808000032410000000513+                                                                                                                                                             
161005222387602026040808000027310000000960+                                                                                                                                                             
161005222387702026040808000027310000000480+                                                                                                                                                             
161005222389702026040808000057130000002024+                                                                                                                                                             
161005222390102026040808000057130000001200+                                                                                                                                                             
161005222390302026040808000057130000000656+                                                                                                                                                             
161005222397802026040808000066480000000235+                                                                                                                                                             
161005222398002026040808000066480000000220+                                                                                                                                                             
161005222400402026040808000065230000001099+                                                                                                                                                             
161005222400602026040808000065230000001259+                                                                                                                                                             
161005222402302026040808000369040000000180+                                                                                                                                                             
161005222421102026040808000252810000000250+                                                                                                                                                             
161005222428202026040808000369040000000135+                                                                                                                                                             
161005222510102026040808000098560000000300+                                                                                                                                                             
161005222510202026040808000098560000000300+                                                                                                                                                             
161005222716502026040808000466990000001008+                                                                                                                                                             
161005222926402026040808000386910000000720+                                                                                                                                                             
161005223338902026040808000063720000001100+                                                                                                                                                             
161005223553902026040808000060420000001500+                                                                                                                                                             
161005223554002026040808000060420000001900+                                                                                                                                                             
161005223577702026040808000063300000000200+                                                                                                                                                             
161005223627102026040808000060420000000500+                                                                                                                                                             
161005223930002026040808000060420000000497+                                                                                                                                                             
161005223938102026040808000066480000000160+                                                                                                                                                             
161005223968802026040808000060420000000798+                                                                                                                                                             
161005224369602026040808000252810000000120+                                                                                                                                                             
161005224658902026040808000063300000000500+                                                                                                                                                             
161005224658902026040808000386910000000450+                                                                                                                                                             
161005224659002026040808000063300000000150+                                                                                                                                                             
161005224826502026040808000063720000003000+                                                                                                                                                             
161005224856602026040808000027310000001056+                                                                                                                                                             
161005224944602026040808000027310000000540+                                                                                                                                                             
161005224944702026040808000027310000000420+                                                                                                                                                             
161005225108202026040808000063300000001200+                                                                                                                                                             
161005225108302026040808000063300000000900+                                                                                                                                                             
161005225108402026040808000063300000001200+                                                                                                                                                             
161005225108502026040808000063300000001200+                                                                                                                                                             
161005225507002026040808000060420000000994+                                                                                                                                                             
161005225762502026040808000060420000001500+                                                                                                                                                             
161005225968002026040808000065230000001094+                                                                                                                                                             
161005225968102026040808000065230000000900+                                                                                                                                                             
161005225968202026040808000065230000000900+                                                                                                                                                             
161005226018802026040808000331280000001760+                                                                                                                                                             
161005226018902026040808000331280000000480+                                                                                                                                                             
161005226019102026040808000331280000000640+                                                                                                                                                             
161005226077102026040808000331280000000080+                                                                                                                                                             
161005226419402026040808000057130000002000+                                                                                                                                                             
161005226557402026040808000057130000002000+                                                                                                                                                             
161005227055902026040808000063300000000900+                                                                                                                                                             
161005227595502026040808000065230000000900+                                                                                                                                                             
161005227651702026040808000252810000000480+                                                                                                                                                             
161005348402202026040808000284580000000900+                                                                                                                                                             
161005348402302026040808000284580000001530+                                                                                                                                                             
161005349405902026040808000284580000001500+                                                                                                                                                             
161005520084102026040808000027310000000500+                                                                                                                                                             
161005527591702026040808000284580000003000+                                                                                                                                                             
161010017478202026040808000063300000000600+                                                                                                                                                             
161010020128602026040808000063300000000798+                                                                                                                                                             
161010020128702026040808000063300000000090+                                                                                                                                                             
161010021505302026040808000462990000000495+                                                                                                                                                             
161010022110502026040808000462990000002500+                                                                                                                                                             
161010022118602026040808000462990000001500+                                                                                                                                                             
161010022343902026040808000063300000000150+                                                                                                                                                             
161010023329402026040808000036020000000240+                                                                                                                                                             
161010023329502026040808000036020000000240+                                                                                                                                                             
161010023663002026040808000036020000000560+                                                                                                                                                             
161010023663102026040808000036020000000560+                                                                                                                                                             
161010024395002026040808000063300000000090+                                                                                                                                                             
161010024432702026040808000063300000000260+                                                                                                                                                             
161010024432702026040808000386910000000260+                                                                                                                                                             
161010024438702026040808000030630000001800+                                                                                                                                                             
161010024439002026040808000030630000000720+                                                                                                                                                             
161010024443702026040808000432350000001500+                                                                                                                                                             
161010024456602026040808000063300000001200+                                                                                                                                                             
161010024561402026040808000462990000001500+                                                                                                                                                             
161010024855302026040808000030630000000720+                                                                                                                                                             
161010024978702026040808000063300000001300+                                                                                                                                                             
161010025214402026040808000432350000001900+                                                                                                                                                             
161010025361002026040808000432350000001896+                                                                                                                                                             
161010025628602026040808000432350000000652+                                                                                                                                                             
161010025721502026040808000036020000000200+                                                                                                                                                             
161010025721602026040808000036020000000300+                                                                                                                                                             
161010025728402026040808000066480000000648+                                                                                                                                                             
161010025737202026040808000036020000000792+                                                                                                                                                             
161010025737402026040808000036020000001000+                                                                                                                                                             
161010025843402026040808000386910000000080+                                                                                                                                                             
161010025844402026040808000462990000001900+                                                                                                                                                             
161010025874202026040808000062480000000721+                                                                                                                                                             
161010025874502026040808000062480000000056+                                                                                                                                                             
161010025874802026040808000062480000000056+                                                                                                                                                             
161010025877002026040808000062480000000960+                                                                                                                                                             
161010025877602026040808000062480000000056+                                                                                                                                                             
161010025877702026040808000062480000000140+                                                                                                                                                             
161010025895002026040808000462990000001700+                                                                                                                                                             
161010025901402026040808000036020000000456+                                                                                                                                                             
161010025901502026040808000036020000000456+                                                                                                                                                             
161010025901602026040808000036020000000308+                                                                                                                                                             
161010025901702026040808000036020000000308+                                                                                                                                                             
161010025941002026040808000062480000000600+                                                                                                                                                             
161010025941302026040808000062480000000600+                                                                                                                                                             
161010026102002026040808000063300000000176+                                                                                                                                                             
161010026347902026040808000462990000002030+                                                                                                                                                             
161010026364002026040808000036020000000070+                                                                                                                                                             
161010026364202026040808000036020000000140+                                                                                                                                                             
161010026439202026040808000063300000000300+                                                                                                                                                             
161010026532902026040808000036020000000050+                                                                                                                                                             
161010026533102026040808000036020000000050+                                                                                                                                                             
161010026588502026040808000462990000001000+                                                                                                                                                             
161010026620502026040808000404890000001200+                                                                                                                                                             
161010026632302026040808000063300000000390+                                                                                                                                                             
161010026637902026040808000432350000001656+                                                                                                                                                             
161010026759402026040808000404890000002000+                                                                                                                                                             
161010026833702026040808000432350000000145+                                                                                                                                                             
161010026833802026040808000432350000000174+                                                                                                                                                             
161010026877302026040808000063300000000144+                                                                                                                                                             
161010026911602026040808000063300000000144+                                                                                                                                                             
161010026958302026040808000036020000000560+                                                                                                                                                             
161010026958402026040808000036020000000280+                                                                                                                                                             
161010027048102026040808000432350000000152+                                                                                                                                                             
161010027062202026040808000036020000000132+                                                                                                                                                             
161010027069102026040808000036020000000220+                                                                                                                                                             
161010027069202026040808000036020000000140+                                                                                                                                                             
161010027069302026040808000036020000000140+                                                                                                                                                             
161010027206202026040808000404890000005168+                                                                                                                                                             
161010027224702026040808000060420000001500+                                                                                                                                                             
161010027269702026040808000063300000000600+                                                                                                                                                             
161010027338602026040808000063300000000600+                                                                                                                                                             
161010027631602026040808000062480000000335+                                                                                                                                                             
161010027631802026040808000062480000000108+                                                                                                                                                             
161010027631902026040808000062480000000335+                                                                                                                                                             
161010027711702026040808000036020000000300+                                                                                                                                                             
161010027711902026040808000036020000000300+                                                                                                                                                             
161010027828702026040808000060420000000900+                                                                                                                                                             
161010027999002026040808000062480000000140+                                                                                                                                                             
161010027999202026040808000062480000000100+                                                                                                                                                             
161010028266602026040808000036020000000220+                                                                                                                                                             
161010028266702026040808000036020000000140+                                                                                                                                                             
161010028266902026040808000036020000000140+                                                                                                                                                             
161010028381002026040808000062480000000600+                                                                                                                                                             
161010028396102026040808000432350000000660+                                                                                                                                                             
161010028398202026040808000462990000001908+                                                                                                                                                             
161010028398302026040808000462990000001908+                                                                                                                                                             
161010028458602026040808000386910000000200+                                                                                                                                                             
161010028458702026040808000386910000000200+                                                                                                                                                             
161010028477602026040808000432350000000800+                                                                                                                                                             
161010028477702026040808000432350000000900+                                                                                                                                                             
161010028536802026040808000066480000000480+                                                                                                                                                             
161010028698202026040808000062480000000400+                                                                                                                                                             
161010028713002026040808000062480000000600+                                                                                                                                                             
161010029015702026040808000432350000000900+                                                                                                                                                             
161010029015802026040808000432350000000900+                                                                                                                                                             
161073579228702026040808000036020000000396+                                                                                                                                                             
161000751492102026040808000152290000001200+                                                                                                                                                             
161000757767902026040808000063570000001000+                                                                                                                                                             
161000757768002026040808000063570000003600+                                                                                                                                                             
161001450348702026040808000063570000002600+                                                                                                                                                             
161004634188402026040808000063570000000029+                                                                                                                                                             
161004644074102026040808000063570000001050+                                                                                                                                                             
161004644456502026040808000063570000004000+                                                                                                                                                             
161005182736402026040808000059020000000065+                                                                                                                                                             
161005188299402026040808000063570000001700+                                                                                                                                                             
161005189479502026040808000059020000004000+                                                                                                                                                             
161005200237702026040808000059020000000464+                                                                                                                                                             
161005203903102026040808000063570000000400+                                                                                                                                                             
161005204175802026040808000059020000000066+                                                                                                                                                             
161005204498402026040808000063570000000380+                                                                                                                                                             
161005205731102026040808000059020000000408+                                                                                                                                                             
161005208679502026040808000059020000000792+                                                                                                                                                             
161005208679602026040808000059020000000792+                                                                                                                                                             
161005209642302026040808000063570000003000+                                                                                                                                                             
161005209642302026040808000152290000004500+                                                                                                                                                             
161005209978502026040808000059020000000128+                                                                                                                                                             
161005210401902026040808000063570000001000+                                                                                                                                                             
161005210404402026040808000064460000001000+                                                                                                                                                             
161005212684802026040808000059020000000891+                                                                                                                                                             
161005215190502026040808000059020000000192+                                                                                                                                                             
161005216219602026040808000308340000000145+                                                                                                                                                             
161005216228302026040808000308340000000029+                                                                                                                                                             
161005216342402026040808000452730000001050+                                                                                                                                                             
161005216419702026040808000059020000000480+                                                                                                                                                             
161005216419802026040808000059020000000780+                                                                                                                                                             
161005216419902026040808000059020000000540+                                                                                                                                                             
161005217449602026040808000059020000000120+                                                                                                                                                             
161005217594702026040808000064460000000100+                                                                                                                                                             
161005217997602026040808000064460000000100+                                                                                                                                                             
161005218414202026040808000308340000000180+                                                                                                                                                             
161005218984302026040808000059020000000330+                                                                                                                                                             
161005219185502026040808000059020000000528+                                                                                                                                                             
161005219247502026040808000452730000000360+                                                                                                                                                             
161005219247902026040808000452730000000300+                                                                                                                                                             
161005219248302026040808000452730000000024+                                                                                                                                                             
161005221261302026040808000059020000000096+                                                                                                                                                             
161005221567002026040808000059020000001600+                                                                                                                                                             
161005222166902026040808000064460000000120+                                                                                                                                                             
161005222167102026040808000064460000000138+                                                                                                                                                             
161005222167202026040808000064460000000184+                                                                                                                                                             
161005222167302026040808000064460000000368+                                                                                                                                                             
161005222167402026040808000064460000000330+                                                                                                                                                             
161005222167502026040808000064460000000330+                                                                                                                                                             
161005222172902026040808000064460000000396+                                                                                                                                                             
161005222173102026040808000064460000000396+                                                                                                                                                             
161005222190702026040808000064460000000188+                                                                                                                                                             
161005222190802026040808000064460000000420+                                                                                                                                                             
161005222292102026040808000308340000000232+                                                                                                                                                             
161005222611502026040808000059020000000210+                                                                                                                                                             
161005223511302026040808000059020000000432+                                                                                                                                                             
161005223581102026040808000063570000000280+                                                                                                                                                             
161005225894702026040808000308340000000240+                                                                                                                                                             
161005225895002026040808000308340000000150+                                                                                                                                                             
161005225895202026040808000308340000000528+                                                                                                                                                             
161005225895302026040808000308340000000470+                                                                                                                                                             
161005225895402026040808000308340000000094+                                                                                                                                                             
161005225895502026040808000308340000000094+                                                                                                                                                             
161005225895602026040808000308340000000396+                                                                                                                                                             
161005225895702026040808000308340000000396+                                                                                                                                                             
161005225895802026040808000308340000000176+                                                                                                                                                             
161005225895902026040808000308340000000176+                                                                                                                                                             
161005225941802026040808000064460000000470+                                                                                                                                                             
161005225941902026040808000064460000000470+                                                                                                                                                             
161005225942002026040808000064460000000658+                                                                                                                                                             
161005225942102026040808000064460000000658+                                                                                                                                                             
161005225942202026040808000064460000000658+                                                                                                                                                             
161005225942302026040808000064460000000658+                                                                                                                                                             
161005225942402026040808000064460000000470+                                                                                                                                                             
161005225942502026040808000064460000000470+                                                                                                                                                             
161005225942602026040808000064460000000754+                                                                                                                                                             
161005225942802026040808000064460000000087+                                                                                                                                                             
161005225943002026040808000064460000000232+                                                                                                                                                             
161005225957402026040808000064460000000100+                                                                                                                                                             
161005225957502026040808000064460000000125+                                                                                                                                                             
161005227090002026040808000466990000000060+                                                                                                                                                             
161005227090102026040808000466990000000052+                                                                                                                                                             
161005227090202026040808000466990000000228+                                                                                                                                                             
161005227090302026040808000466990000000116+                                                                                                                                                             
161005227090402026040808000466990000000040+                                                                                                                                                             
161005227154702026040808000466990000000004+                                                                                                                                                             
161005227154802026040808000466990000000012+                                                                                                                                                             
161005227168702026040808000466990000000264+                                                                                                                                                             
161005227629002026040808000452730000000288+                                                                                                                                                             
161005227629502026040808000452730000000036+                                                                                                                                                             
161010019585902026040808000063570000000140+                                                                                                                                                             
161010020033202026040808000063570000001800+                                                                                                                                                             
161010023289202026040808000152290000000060+                                                                                                                                                             
161010023289302026040808000152290000000120+                                                                                                                                                             
161010023289302026040808000452730000000180+                                                                                                                                                             
161010023289402026040808000152290000000120+                                                                                                                                                             
161010023289502026040808000152290000000120+                                                                                                                                                             
161010023289502026040808000452730000000180+                                                                                                                                                             
161010023289902026040808000452730000000072+                                                                                                                                                             
161010023292702026040808000452730000000072+                                                                                                                                                             
161010023292902026040808000452730000000072+                                                                                                                                                             
161010023304802026040808000452730000000048+                                                                                                                                                             
161010023305902026040808000063570000000160+                                                                                                                                                             
161010023306302026040808000063570000000072+                                                                                                                                                             
161010023308902026040808000063570000000048+                                                                                                                                                             
161010023327602026040808000062140000000060+                                                                                                                                                             
161010023328002026040808000062140000000060+                                                                                                                                                             
161010023328102026040808000062140000000060+                                                                                                                                                             
161010023691102026040808000062140000000144+                                                                                                                                                             
161010023692602026040808000062140000000108+                                                                                                                                                             
161010024180802026040808000059020000000174+                                                                                                                                                             
161010024433002026040808000452730000000936+                                                                                                                                                             
161010024433202026040808000452730000000936+                                                                                                                                                             
161010024433402026040808000452730000000840+                                                                                                                                                             
161010024433602026040808000452730000000900+                                                                                                                                                             
161010024434702026040808000452730000001768+                                                                                                                                                             
161010024435302026040808000452730000001456+                                                                                                                                                             
161010024435702026040808000063560000000720+                                                                                                                                                             
161010024435902026040808000063560000000720+                                                                                                                                                             
161010024436202026040808000452730000001200+                                                                                                                                                             
161010024436402026040808000452730000000600+                                                                                                                                                             
161010024436802026040808000059020000000736+                                                                                                                                                             
161010024437202026040808000059020000000416+                                                                                                                                                             
161010024437702026040808000452730000000726+                                                                                                                                                             
161010024438302026040808000452730000000924+                                                                                                                                                             
161010024439602026040808000062140000000500+                                                                                                                                                             
161010024440402026040808000452730000000400+                                                                                                                                                             
161010024455602026040808000063570000000500+                                                                                                                                                             
161010024456402026040808000063570000000432+                                                                                                                                                             
161010024456702026040808000063570000000400+                                                                                                                                                             
161010024457802026040808000452730000000504+                                                                                                                                                             
161010024458802026040808000063570000000192+                                                                                                                                                             
161010024459102026040808000063570000000648+                                                                                                                                                             
161010024459402026040808000063570000000048+                                                                                                                                                             
161010024483502026040808000062140000000090+                                                                                                                                                             
161010024485702026040808000062140000000090+                                                                                                                                                             
161010024517302026040808000452730000000396+                                                                                                                                                             
161010024517702026040808000063570000000240+                                                                                                                                                             
161010024558802026040808000063570000000168+                                                                                                                                                             
161010024559002026040808000063570000000900+                                                                                                                                                             
161010024559202026040808000063570000000600+                                                                                                                                                             
161010024561902026040808000452730000000720+                                                                                                                                                             
161010025431702026040808000063570000000024+                                                                                                                                                             
161010025431902026040808000063570000000480+                                                                                                                                                             
161010025483802026040808000063570000001650+                                                                                                                                                             
161010025524802026040808000063560000000144+                                                                                                                                                             
161010025526402026040808000063560000000384+                                                                                                                                                             
161010025528002026040808000063560000000144+                                                                                                                                                             
161010025648902026040808000452730000000016+                                                                                                                                                             
161010025677902026040808000452730000000924+                                                                                                                                                             
161010025678102026040808000452730000000924+                                                                                                                                                             
161010025679502026040808000452730000000416+                                                                                                                                                             
161010025679602026040808000452730000000312+                                                                                                                                                             
161010025679702026040808000452730000000432+                                                                                                                                                             
161010025679802026040808000452730000000096+                                                                                                                                                             
161010025679902026040808000452730000000405+                                                                                                                                                             
161010025680202026040808000452730000000405+                                                                                                                                                             
161010025680402026040808000452730000001170+                                                                                                                                                             
