OP01161BIMF2026040812000405896V8AUTOMATIC                                                                                                                                                               
161004635461102026040808000000590000000020+                                                                                                                                                             
161004635535602026040808000000590000000613+                                                                                                                                                             
161004635540302026040808000000590000000002+                                                                                                                                                             
161004635540502026040808000000590000000020+                                                                                                                                                             
161004635542802026040808000000590000000020+                                                                                                                                                             
161004635542902026040808000000590000000120+                                                                                                                                                             
161004635543002026040808000000590000000020+                                                                                                                                                             
161004635543102026040808000000590000000020+                                                                                                                                                             
161004635763702026040808000000590000004500+                                                                                                                                                             
161004636050402026040808000220050000003990+                                                                                                                                                             
161005215980602026040808000220050000000249+                                                                                                                                                             
161005216869702026040808000000570000000294+                                                                                                                                                             
161005220440502026040808000309820000001920+                                                                                                                                                             
161005220440702026040808000309820000003040+                                                                                                                                                             
161005222397602026040808000220050000000700+                                                                                                                                                             
161005222812702026040808000000570000000003+                                                                                                                                                             
161005222930202026040808000357970000000240+                                                                                                                                                             
161005224089802026040808000000570000000126+                                                                                                                                                             
161005224929002026040808000000590000000002+                                                                                                                                                             
161005225871002026040808000000570000002499+                                                                                                                                                             
161005226938002026040808000000590000000400+                                                                                                                                                             
161005226942002026040808000000590000004500+                                                                                                                                                             
161005226942102026040808000000590000000143+                                                                                                                                                             
161005227004302026040808000000590000000062+                                                                                                                                                             
161005227004402026040808000000590000000002+                                                                                                                                                             
161005227004502026040808000000590000000002+                                                                                                                                                             
161005227247702026040808000000570000008001+                                                                                                                                                             
161005227247802026040808000000570000000024+                                                                                                                                                             
161005227247902026040808000000570000000003+                                                                                                                                                             
161005227248002026040808000000570000000036+                                                                                                                                                             
161005227248202026040808000000570000000111+                                                                                                                                                             
161005227639302026040808000000570000000132+                                                                                                                                                             
161004673880802026040808000382210000000540+                                                                                                                                                             
161005171308802026040808000382210000000320+                                                                                                                                                             
161005183595402026040808000065030000000450+                                                                                                                                                             
161005193016402026040808000382210000005280+                                                                                                                                                             
161005194999002026040808000065030000000240+                                                                                                                                                             
161005204043602026040808000065030000000252+                                                                                                                                                             
161005204549602026040808000195490000000450+                                                                                                                                                             
161005204549702026040808000195490000000450+                                                                                                                                                             
161005204652202026040808000028630000000336+                                                                                                                                                             
161005212838702026040808000431780000000840+                                                                                                                                                             
161005212868402026040808000065030000000675+                                                                                                                                                             
161005212868502026040808000065030000000900+                                                                                                                                                             
161005212868702026040808000065030000000675+                                                                                                                                                             
161005212868802026040808000065030000000900+                                                                                                                                                             
161005212884202026040808000028630000000960+                                                                                                                                                             
161005213424002026040808000028630000000980+                                                                                                                                                             
161005214271202026040808000065030000001080+                                                                                                                                                             
161005214735902026040808000028630000000280+                                                                                                                                                             
161005215056902026040808000382210000000216+                                                                                                                                                             
161005215057102026040808000382210000000192+                                                                                                                                                             
161005215057402026040808000382210000000473+                                                                                                                                                             
161005217669202026040808000167830000000252+                                                                                                                                                             
161005218454402026040808000028630000000378+                                                                                                                                                             
161005221892302026040808000382210000003024+                                                                                                                                                             
161005222013402026040808000028630000000320+                                                                                                                                                             
161005222255202026040808000028630000000500+                                                                                                                                                             
161005222293202026040808000028630000000500+                                                                                                                                                             
161005226239102026040808000431780000000840+                                                                                                                                                             
161005226239202026040808000431780000000800+                                                                                                                                                             
161005226239302026040808000431780000000800+                                                                                                                                                             
161005226876802026040808000431780000000700+                                                                                                                                                             
161005227426302026040808000065030000000320+                                                                                                                                                             
161010021676002026040808000065030000000300+                                                                                                                                                             
161010021676402026040808000065030000000300+                                                                                                                                                             
161005187716502026040808000098560000000600+                                                                                                                                                             
161005183436402026040808000063170000000100+                                                                                                                                                             
161005185101402026040808000063170000000150+                                                                                                                                                             
161005185842502026040808000063170000000200+                                                                                                                                                             
161005187735602026040808000371000000002000+                                                                                                                                                             
161005187735702026040808000371000000002000+                                                                                                                                                             
161005195050902026040808000350740000000350+                                                                                                                                                             
161005195573902026040808000061980000000864+                                                                                                                                                             
161005200434602026040808000209740000002000+                                                                                                                                                             
161005204431602026040808000350740000000540+                                                                                                                                                             
161005204611102026040808000209740000001200+                                                                                                                                                             
161005204611702026040808000209740000004000+                                                                                                                                                             
161005211517602026040808000350740000000500+                                                                                                                                                             
161005211517702026040808000350740000000500+                                                                                                                                                             
161005212736802026040808000350740000000420+                                                                                                                                                             
161005213443802026040808000350740000000200+                                                                                                                                                             
161005213443902026040808000350740000000276+                                                                                                                                                             
161005213900302026040808000350740000000385+                                                                                                                                                             
161005215667002026040808000209740000002000+                                                                                                                                                             
161005216000702026040808000061980000000408+                                                                                                                                                             
161005216000802026040808000061980000000544+                                                                                                                                                             
161005216000902026040808000061980000000272+                                                                                                                                                             
161005216001002026040808000061980000002112+                                                                                                                                                             
161005216045602026040808000425200000000750+                                                                                                                                                             
161005216128802026040808000425200000000544+                                                                                                                                                             
161005220698002026040808000350740000000400+                                                                                                                                                             
161005221321502026040808000061980000000136+                                                                                                                                                             
161005221323202026040808000061980000000264+                                                                                                                                                             
161005221374002026040808000425200000000360+                                                                                                                                                             
161005221459802026040808000425200000000220+                                                                                                                                                             
161005222478302026040808000396070000000224+                                                                                                                                                             
161005222478402026040808000396070000000224+                                                                                                                                                             
161005222799402026040808000061980000000528+                                                                                                                                                             
161005223340402026040808000396070000000180+                                                                                                                                                             
161005223931902026040808000350740000000360+                                                                                                                                                             
161005225251602026040808000350740000000800+                                                                                                                                                             
161010026439402026040808000063970000000600+                                                                                                                                                             
161010026536002026040808000063970000000630+                                                                                                                                                             
161010026684702026040808000063970000000200+                                                                                                                                                             
161005204582602026040808000276180000000660+                                                                                                                                                             
161005204582702026040808000276180000000504+                                                                                                                                                             
161005204582802026040808000276180000000300+                                                                                                                                                             
161005204582902026040808000276180000000504+                                                                                                                                                             
161005204583002026040808000276180000000336+                                                                                                                                                             
161005206353202026040808000276180000000328+                                                                                                                                                             
161005206353302026040808000276180000000328+                                                                                                                                                             
161005223258302026040808000276180000000390+                                                                                                                                                             
161005227669002026040808000276180000000112+                                                                                                                                                             
161005227680302026040808000276180000000240+                                                                                                                                                             
161010025700902026040808000063350000000030+                                                                                                                                                             
161010026911102026040808000063350000000120+                                                                                                                                                             
161010028057302026040808000063350000000030+                                                                                                                                                             
161010028057602026040808000063350000000150+                                                                                                                                                             
161010028057702026040808000063350000000060+                                                                                                                                                             
161010028516402026040808000063350000000240+                                                                                                                                                             
161000418993002026040808000058480000001500+                                                                                                                                                             
161000763953402026040808000058480000003000+                                                                                                                                                             
161000772942402026040808000058480000021000+                                                                                                                                                             
161000775438702026040808000058480000002000+                                                                                                                                                             
161001314258702026040808000057400000000400+                                                                                                                                                             
161001456018702026040808000058480000004200+                                                                                                                                                             
161001457248002026040808000058480000003000+                                                                                                                                                             
161004635231702026040808000062730000001560+                                                                                                                                                             
161004635251002026040808000062730000001200+                                                                                                                                                             
161004635357702026040808000062730000000800+                                                                                                                                                             
161004635357802026040808000062730000000600+                                                                                                                                                             
161004636252502026040808000057400000000750+                                                                                                                                                             
161004641615502026040808000058480000004400+                                                                                                                                                             
161004642587302026040808000058480000002000+                                                                                                                                                             
161004646154002026040808000057400000001600+                                                                                                                                                             
161004676686902026040808000058480000002000+                                                                                                                                                             
161004682004902026040808000058480000002100+                                                                                                                                                             
161005000016102026040808000057400000003000+                                                                                                                                                             
161005171449802026040808000057400000000700+                                                                                                                                                             
161005183398402026040808000451440000000060+                                                                                                                                                             
161005184885102026040808000057400000000520+                                                                                                                                                             
161005187800002026040808000233530000000160+                                                                                                                                                             
161005187800102026040808000233530000000080+                                                                                                                                                             
161005187800502026040808000233530000000280+                                                                                                                                                             
161005187987002026040808000489200000002730+                                                                                                                                                             
161005189820002026040808000057400000000180+                                                                                                                                                             
161005194607102026040808000451440000000200+                                                                                                                                                             
161005200557002026040808000058480000000340+                                                                                                                                                             
161005200576702026040808000233530000001080+                                                                                                                                                             
161005200579102026040808000233530000000648+                                                                                                                                                             
161005201030702026040808000233530000000648+                                                                                                                                                             
161005201030802026040808000233530000000324+                                                                                                                                                             
161005201937702026040808000058480000004000+                                                                                                                                                             
161005202284502026040808000489200000013000+                                                                                                                                                             
161005204588202026040808000058480000000920+                                                                                                                                                             
161005204590502026040808000058480000000920+                                                                                                                                                             
161005204591102026040808000058480000000900+                                                                                                                                                             
161005204591202026040808000058480000000720+                                                                                                                                                             
161005204619702026040808000233530000000880+                                                                                                                                                             
161005204619802026040808000233530000000960+                                                                                                                                                             
161005204621102026040808000058480000000720+                                                                                                                                                             
161005204621202026040808000058480000000432+                                                                                                                                                             
161005204644002026040808000057400000001092+                                                                                                                                                             
161005204935802026040808000058480000002000+                                                                                                                                                             
161005205288502026040808000058480000001980+                                                                                                                                                             
161005205288602026040808000058480000000484+                                                                                                                                                             
161005205535402026040808000058480000000504+                                                                                                                                                             
161005208372302026040808000057400000000350+                                                                                                                                                             
161005209083302026040808000057400000003600+                                                                                                                                                             
161005210074702026040808000057400000001280+                                                                                                                                                             
161005212940502026040808000233530000000810+                                                                                                                                                             
161005212940602026040808000233530000000720+                                                                                                                                                             
161005213991002026040808000233530000000990+                                                                                                                                                             
161005213991102026040808000233530000000990+                                                                                                                                                             
161005214992802026040808000359170000000150+                                                                                                                                                             
161005215009302026040808000057400000000240+                                                                                                                                                             
161005217012002026040808000233530000000080+                                                                                                                                                             
161005217012102026040808000233530000000080+                                                                                                                                                             
161005217014902026040808000233530000000080+                                                                                                                                                             
161005217015002026040808000233530000000080+                                                                                                                                                             
161005217409702026040808000057400000001848+                                                                                                                                                             
161005217464802026040808000233530000000080+                                                                                                                                                             
161005217464902026040808000233530000000080+                                                                                                                                                             
161005217621302026040808000057400000000400+                                                                                                                                                             
161005217621402026040808000057400000000200+                                                                                                                                                             
161005217621702026040808000057400000000200+                                                                                                                                                             
161005217860502026040808000233530000000180+                                                                                                                                                             
161005217860602026040808000233530000000360+                                                                                                                                                             
161005217860702026040808000233530000000210+                                                                                                                                                             
161005217860802026040808000233530000000210+                                                                                                                                                             
161005219669702026040808000057400000000350+                                                                                                                                                             
161005219940802026040808000359170000000756+                                                                                                                                                             
161005220188102026040808000057400000002100+                                                                                                                                                             
161005220188202026040808000057400000001500+                                                                                                                                                             
161005221211602026040808000058480000000300+                                                                                                                                                             
161005221678802026040808000057400000000100+                                                                                                                                                             
161005222144902026040808000233530000000704+                                                                                                                                                             
161005222145002026040808000233530000000044+                                                                                                                                                             
161005222145102026040808000233530000000704+                                                                                                                                                             
161005223020502026040808000065060000002720+                                                                                                                                                             
161005223020602026040808000065060000000960+                                                                                                                                                             
161005223020702026040808000065060000002160+                                                                                                                                                             
161005223020802026040808000065060000000540+                                                                                                                                                             
161005223158502026040808000062730000004000+                                                                                                                                                             
161005223173802026040808000058480000001000+                                                                                                                                                             
161005223629702026040808000065060000002970+                                                                                                                                                             
161005223733302026040808000057400000000320+                                                                                                                                                             
161005526679902026040808000062730000001200+                                                                                                                                                             
161005526680002026040808000062730000006000+                                                                                                                                                             
161005526795402026040808000467820000002205+                                                                                                                                                             
161005528250102026040808000062730000000360+                                                                                                                                                             
161006065411602026040808000058480000011100+                                                                                                                                                             
161008245686402026040808000058480000029700+                                                                                                                                                             
161010023171102026040808000058480000001000+                                                                                                                                                             
161010023195002026040808000058480000020000+                                                                                                                                                             
161010023778102026040808000058480000000500+                                                                                                                                                             
161010024713602026040808000058480000003000+                                                                                                                                                             
161010025704102026040808000058480000000800+                                                                                                                                                             
161010025793502026040808000058480000001000+                                                                                                                                                             
161010025984702026040808000057400000000900+                                                                                                                                                             
161010026491602026040808000058480000002000+                                                                                                                                                             
161010026491802026040808000058480000002000+                                                                                                                                                             
161010028457402026040808000058480000000840+                                                                                                                                                             
161013086400802026040808000058480000002000+                                                                                                                                                             
161073536274702026040808000058480000001800+                                                                                                                                                             
161073559779102026040808000058480000001980+                                                                                                                                                             
161005219729402026040808000064080000000320+                                                                                                                                                             
161005221559502026040808000064080000000060+                                                                                                                                                             
161005221736002026040808000064080000000400+                                                                                                                                                             
161005221736102026040808000064080000001100+                                                                                                                                                             
161005222276002026040808000064080000000100+                                                                                                                                                             
161005222491202026040808000064080000000560+                                                                                                                                                             
161010028141302026040808000038200000000080+                                                                                                                                                             
161010028141602026040808000038200000000080+                                                                                                                                                             
161010028141902026040808000038200000000080+                                                                                                                                                             
161010028142202026040808000038200000000080+                                                                                                                                                             
161010028142502026040808000038200000000080+                                                                                                                                                             
161010028142802026040808000038200000000080+                                                                                                                                                             
161010028143102026040808000038200000000080+                                                                                                                                                             
161010028143402026040808000038200000000080+                                                                                                                                                             
161010028146802026040808000038200000000088+                                                                                                                                                             
161010028147002026040808000038200000000088+                                                                                                                                                             
161010028147202026040808000038200000000088+                                                                                                                                                             
161010028147402026040808000038200000000088+                                                                                                                                                             
161010028147602026040808000038200000000088+                                                                                                                                                             
161010028147802026040808000038200000000088+                                                                                                                                                             
161010028148002026040808000038200000000088+                                                                                                                                                             
161010028148202026040808000038200000000088+                                                                                                                                                             
161010028148902026040808000038200000000088+                                                                                                                                                             
161010028149202026040808000038200000000088+                                                                                                                                                             
161010028149502026040808000038200000000088+                                                                                                                                                             
161010028149802026040808000038200000000088+                                                                                                                                                             
161010028150102026040808000038200000000088+                                                                                                                                                             
161010028150402026040808000038200000000088+                                                                                                                                                             
161010028150702026040808000038200000000088+                                                                                                                                                             
161010028151002026040808000038200000000088+                                                                                                                                                             
161010028151302026040808000038200000000088+                                                                                                                                                             
161010028151602026040808000038200000000088+                                                                                                                                                             
161010028151902026040808000038200000000088+                                                                                                                                                             
161010028152202026040808000038200000000088+                                                                                                                                                             
161010028152502026040808000038200000000088+                                                                                                                                                             
161010028152802026040808000038200000000088+                                                                                                                                                             
161010028153102026040808000038200000000088+                                                                                                                                                             
161010028153402026040808000038200000000088+                                                                                                                                                             
161010028815702026040808000038200000000088+                                                                                                                                                             
161010028816002026040808000038200000000088+                                                                                                                                                             
161010028816302026040808000038200000000088+                                                                                                                                                             
161010028816602026040808000038200000000088+                                                                                                                                                             
161010028908302026040808000038200000000090+                                                                                                                                                             
161010028908502026040808000038200000000090+                                                                                                                                                             
161010028909002026040808000038200000000090+                                                                                                                                                             
161010028909202026040808000038200000000090+                                                                                                                                                             
161010028909602026040808000038200000000096+                                                                                                                                                             
161010028909902026040808000038200000000080+                                                                                                                                                             
161010028910402026040808000038200000000080+                                                                                                                                                             
161010028910702026040808000038200000000080+                                                                                                                                                             
161010028911002026040808000038200000000088+                                                                                                                                                             
161010028911302026040808000038200000000088+                                                                                                                                                             
161010028911602026040808000038200000000088+                                                                                                                                                             
161010028911902026040808000038200000000088+                                                                                                                                                             
161010029075902026040808000038200000000088+                                                                                                                                                             
161010029076102026040808000038200000000088+                                                                                                                                                             
161010029076302026040808000038200000000088+                                                                                                                                                             
161010029076602026040808000038200000000088+                                                                                                                                                             
161010029076902026040808000038200000000088+                                                                                                                                                             
161010029077202026040808000038200000000088+                                                                                                                                                             
161010029077502026040808000038200000000088+                                                                                                                                                             
161010029077802026040808000038200000000088+                                                                                                                                                             
CL99161BIMF2026040812000405896V8AUTOMATIC 0000291                                                                                                                                                       
