OP01161BIMF2026040814000305897V8AUTOMATIC                                                                                                                                                               
161005204056702026040808000059450000000308+                                                                                                                                                             
161005213826102026040808000059450000000600+                                                                                                                                                             
161005216268502026040808000037520000008400+                                                                                                                                                             
161005216870102026040808000059450000000720+                                                                                                                                                             
161005219028202026040808000059450000000160+                                                                                                                                                             
161005221968202026040808000059450000000400+                                                                                                                                                             
161005222994702026040808000059450000000280+                                                                                                                                                             
161005224777902026040808000192700000000104+                                                                                                                                                             
161005225915302026040808000192700000000162+                                                                                                                                                             
161005225915602026040808000192700000000150+                                                                                                                                                             
161005225915702026040808000192700000000150+                                                                                                                                                             
161005183613202026040808000060940000000600+                                                                                                                                                             
161005187716502026040808000060940000000400+                                                                                                                                                             
161005216170402026040808000025530000003450+                                                                                                                                                             
161005216170402026040808000060940000004500+                                                                                                                                                             
161004634857202026040808000088550000002400+                                                                                                                                                             
161004634967102026040808000061920000003080+                                                                                                                                                             
161005193411402026040808000168590000002988+                                                                                                                                                             
161005202509802026040808000468980000001260+                                                                                                                                                             
161005203568302026040808000003770000003000+                                                                                                                                                             
161005204492802026040808000003770000000012+                                                                                                                                                             
161005204615602026040808000349270000001050+                                                                                                                                                             
161005204615702026040808000349270000000700+                                                                                                                                                             
161005204620102026040808000349270000000500+                                                                                                                                                             
161005204647302026040808000349270000000450+                                                                                                                                                             
161005204647402026040808000349270000000450+                                                                                                                                                             
161005212817902026040808000003770000003402+                                                                                                                                                             
161005212870402026040808000349270000000300+                                                                                                                                                             
161005212872102026040808000349270000000300+                                                                                                                                                             
161005212908102026040808000349270000000600+                                                                                                                                                             
161005212908202026040808000349270000000750+                                                                                                                                                             
161005212908602026040808000025530000003015+                                                                                                                                                             
161005213796602026040808000168590000000720+                                                                                                                                                             
161005214903402026040808000061920000001600+                                                                                                                                                             
161005215009402026040808000288260000001590+                                                                                                                                                             
161005215448702026040808000025530000000108+                                                                                                                                                             
161005215779202026040808000003770000002034+                                                                                                                                                             
161005216155502026040808000349270000000385+                                                                                                                                                             
161005217297402026040808000336650000003000+                                                                                                                                                             
161005220656002026040808000139880000001890+                                                                                                                                                             
161005220712602026040808000349270000000450+                                                                                                                                                             
161005220753602026040808000027350000004800+                                                                                                                                                             
161005220942402026040808000168590000000378+                                                                                                                                                             
161005220942502026040808000168590000000054+                                                                                                                                                             
161005222179602026040808000288260000000030+                                                                                                                                                             
161005222201202026040808000463740000002000+                                                                                                                                                             
161005222201302026040808000463740000003000+                                                                                                                                                             
161005223024002026040808000168590000000240+                                                                                                                                                             
161005223024102026040808000168590000000336+                                                                                                                                                             
161005223024302026040808000168590000000108+                                                                                                                                                             
161005223703402026040808000129390000003040+                                                                                                                                                             
161005224319502026040808000168590000002000+                                                                                                                                                             
161005224319602026040808000168590000002000+                                                                                                                                                             
161005224319702026040808000168590000002000+                                                                                                                                                             
161005224319902026040808000168590000002000+                                                                                                                                                             
161005224942302026040808000027350000002000+                                                                                                                                                             
161005224942402026040808000027350000004000+                                                                                                                                                             
161010024518302026040808000320560000000056+                                                                                                                                                             
161010024518702026040808000320560000000048+                                                                                                                                                             
161010024556402026040808000222390000000810+                                                                                                                                                             
161010024852702026040808000320560000000364+                                                                                                                                                             
161010024852902026040808000320560000000392+                                                                                                                                                             
161010025700902026040808000063350000003000+                                                                                                                                                             
161010025735702026040808000320560000000192+                                                                                                                                                             
161010026029102026040808000320560000000384+                                                                                                                                                             
161010026029302026040808000320560000000693+                                                                                                                                                             
161010026029602026040808000320560000000480+                                                                                                                                                             
161010026351402026040808000222390000000900+                                                                                                                                                             
161010026600702026040808000003770000000120+                                                                                                                                                             
161010026601002026040808000003770000000180+                                                                                                                                                             
161010026601102026040808000003770000000510+                                                                                                                                                             
161010026680702026040808000003770000002960+                                                                                                                                                             
161010026682402026040808000320560000000480+                                                                                                                                                             
161010026682502026040808000320560000000480+                                                                                                                                                             
161010026682602026040808000320560000000480+                                                                                                                                                             
161010026726302026040808000222390000000100+                                                                                                                                                             
161010026856702026040808000003770000000010+                                                                                                                                                             
161010027104002026040808000003770000000960+                                                                                                                                                             
161010027583902026040808000320560000002016+                                                                                                                                                             
161010027668802026040808000139880000001800+                                                                                                                                                             
161010028307102026040808000003770000000160+                                                                                                                                                             
161010028335102026040808000003770000000090+                                                                                                                                                             
161010028531702026040808000222390000001640+                                                                                                                                                             
161010028617402026040808000222390000000340+                                                                                                                                                             
161010028617702026040808000222390000000100+                                                                                                                                                             
161010028617902026040808000222390000004260+                                                                                                                                                             
161010028618002026040808000222390000000500+                                                                                                                                                             
161010028618202026040808000222390000000380+                                                                                                                                                             
161010028627602026040808000003770000001840+                                                                                                                                                             
161010028627702026040808000003770000001840+                                                                                                                                                             
161010028665502026040808000003770000001560+                                                                                                                                                             
161010028665602026040808000003770000001368+                                                                                                                                                             
161010028674402026040808000003770000000420+                                                                                                                                                             
161010028674502026040808000003770000000470+                                                                                                                                                             
161010028712902026040808000003770000000030+                                                                                                                                                             
161010028726302026040808000003770000000120+                                                                                                                                                             
161004634743102026040808000057410000000100+                                                                                                                                                             
161005200523502026040808000005070000000300+                                                                                                                                                             
161005200578802026040808000005070000000390+                                                                                                                                                             
161005200584502026040808000005070000000170+                                                                                                                                                             
161005201030502026040808000005070000000640+                                                                                                                                                             
161005201030602026040808000005070000000960+                                                                                                                                                             
161005204588902026040808000005070000001045+                                                                                                                                                             
161005204589002026040808000005070000001045+                                                                                                                                                             
161005204589102026040808000005070000000760+                                                                                                                                                             
161005204589202026040808000005070000000665+                                                                                                                                                             
161005204605802026040808000005070000000810+                                                                                                                                                             
161005204616202026040808000005070000000900+                                                                                                                                                             
161005204616302026040808000005070000000600+                                                                                                                                                             
161005204649602026040808000005070000000600+                                                                                                                                                             
161005204649702026040808000005070000000600+                                                                                                                                                             
161005204713402026040808000057410000000520+                                                                                                                                                             
161005204935002026040808000057410000001300+                                                                                                                                                             
161005204935202026040808000057410000000850+                                                                                                                                                             
161005207059302026040808000057410000000100+                                                                                                                                                             
161005211235102026040808000057410000000960+                                                                                                                                                             
161005212630202026040808000057410000000400+                                                                                                                                                             
161005213047802026040808000005070000000224+                                                                                                                                                             
161005213047902026040808000005070000000896+                                                                                                                                                             
161005213048002026040808000005070000000112+                                                                                                                                                             
161005213048102026040808000005070000000112+                                                                                                                                                             
161005213154202026040808000057410000000120+                                                                                                                                                             
161005216073502026040808000057410000000240+                                                                                                                                                             
161005216073802026040808000057410000000390+                                                                                                                                                             
161005216074802026040808000057410000000400+                                                                                                                                                             
161005216075002026040808000057410000000300+                                                                                                                                                             
161005216075302026040808000057410000000840+                                                                                                                                                             
161005216075402026040808000057410000000480+                                                                                                                                                             
161005216076502026040808000057410000000240+                                                                                                                                                             
161005216191502026040808000005070000000600+                                                                                                                                                             
161005217468502026040808000057410000000080+                                                                                                                                                             
161005217469302026040808000057410000000120+                                                                                                                                                             
161005217598702026040808000005070000000225+                                                                                                                                                             
161005217599902026040808000005070000000448+                                                                                                                                                             
161005217600002026040808000005070000000336+                                                                                                                                                             
161005217733802026040808000005070000000120+                                                                                                                                                             
161005217733902026040808000005070000000120+                                                                                                                                                             
161005217780702026040808000005070000000900+                                                                                                                                                             
161005217780802026040808000005070000001200+                                                                                                                                                             
161005217780902026040808000005070000000300+                                                                                                                                                             
161005217781002026040808000005070000000600+                                                                                                                                                             
161005217860302026040808000005070000000285+                                                                                                                                                             
161005217860402026040808000005070000000285+                                                                                                                                                             
161005218315002026040808000057410000000300+                                                                                                                                                             
161005220807102026040808000057410000000600+                                                                                                                                                             
161005220807202026040808000057410000000500+                                                                                                                                                             
161005220807402026040808000057410000000100+                                                                                                                                                             
161005221961202026040808000005070000000400+                                                                                                                                                             
161005221961302026040808000005070000000400+                                                                                                                                                             
161005222337502026040808000057410000000120+                                                                                                                                                             
161005222337602026040808000057410000000240+                                                                                                                                                             
161005222337702026040808000057410000000260+                                                                                                                                                             
161005222337902026040808000057410000000450+                                                                                                                                                             
161005222338002026040808000057410000000480+                                                                                                                                                             
161005222338102026040808000057410000000300+                                                                                                                                                             
161005222338202026040808000057410000000360+                                                                                                                                                             
161005222338302026040808000057410000000480+                                                                                                                                                             
161005222435902026040808000057410000000120+                                                                                                                                                             
161005223169802026040808000057410000000200+                                                                                                                                                             
161005223630002026040808000057410000000200+                                                                                                                                                             
161005223974102026040808000057410000000720+                                                                                                                                                             
161005223974202026040808000057410000000960+                                                                                                                                                             
161005223974402026040808000057410000000720+                                                                                                                                                             
161005223974702026040808000057410000000240+                                                                                                                                                             
161005527553202026040808000057410000000600+                                                                                                                                                             
161005528216902026040808000057410000000250+                                                                                                                                                             
161010023633002026040808000005070000000288+                                                                                                                                                             
161010023633102026040808000005070000000072+                                                                                                                                                             
161010024488302026040808000005070000000432+                                                                                                                                                             
161010024488402026040808000005070000000432+                                                                                                                                                             
161010028462002026040808000005070000000072+                                                                                                                                                             
161010028462102026040808000005070000000072+                                                                                                                                                             
161005348952502026040808000037520000002400+                                                                                                                                                             
161005349062302026040808000037520000000120+                                                                                                                                                             
161005216414702026040808000336650000003480+                                                                                                                                                             
161005216414802026040808000336650000003480+                                                                                                                                                             
161005220672902026040808000336650000000960+                                                                                                                                                             
161005220673002026040808000336650000000960+                                                                                                                                                             
161005225036002026040808000336650000000196+                                                                                                                                                             
161010025177702026040808000336650000004080+                                                                                                                                                             
161010026661702026040808000336650000002400+                                                                                                                                                             
161010026661802026040808000336650000001728+                                                                                                                                                             
161010026663702026040808000336650000001512+                                                                                                                                                             
161010026663802026040808000336650000002320+                                                                                                                                                             
161010027704302026040808000336650000002560+                                                                                                                                                             
161010027704402026040808000336650000002304+                                                                                                                                                             
161010027704502026040808000336650000002200+                                                                                                                                                             
161010028944302026040808000336650000000216+                                                                                                                                                             
161005192506102026040808000371000000022000+                                                                                                                                                             
CL99161BIMF2026040814000305897V8AUTOMATIC 0000191                                                                                                                                                       
