OP01161BIMF2026040614001905891V8AUTOMATIC                                                                                                                                                               
161005199013702026040608000062150000005040+                                                                                                                                                             
161005204056702026040608000059450000000196+                                                                                                                                                             
161005213826102026040608000059450000000400+                                                                                                                                                             
161005216870102026040608000059450000000320+                                                                                                                                                             
161005219028202026040608000059450000000160+                                                                                                                                                             
161005221968202026040608000059450000000450+                                                                                                                                                             
161005222994702026040608000059450000000120+                                                                                                                                                             
161001426169102026040608000063890000050000+                                                                                                                                                             
161005000458202026040608000063890000006000+                                                                                                                                                             
161005204615602026040608000349270000001050+                                                                                                                                                             
161005204615702026040608000349270000000700+                                                                                                                                                             
161005204620102026040608000349270000001000+                                                                                                                                                             
161005204647302026040608000349270000000450+                                                                                                                                                             
161005204647402026040608000349270000000450+                                                                                                                                                             
161005216155502026040608000349270000000605+                                                                                                                                                             
161005220712502026040608000349270000000450+                                                                                                                                                             
161005220712602026040608000349270000000450+                                                                                                                                                             
161005220753602026040608000027350000002400+                                                                                                                                                             
161005224942302026040608000027350000001000+                                                                                                                                                             
161010024518302026040608000320560000000028+                                                                                                                                                             
161010024518702026040608000320560000000048+                                                                                                                                                             
161010024556402026040608000222390000001110+                                                                                                                                                             
161010024852702026040608000320560000000392+                                                                                                                                                             
161010024852902026040608000320560000000392+                                                                                                                                                             
161010025644902026040608000320560000000100+                                                                                                                                                             
161010025735702026040608000320560000000144+                                                                                                                                                             
161010026029102026040608000320560000000320+                                                                                                                                                             
161010026029302026040608000320560000001001+                                                                                                                                                             
161010026029602026040608000320560000000480+                                                                                                                                                             
161010026351402026040608000222390000000060+                                                                                                                                                             
161010026682402026040608000320560000000480+                                                                                                                                                             
161010026682502026040608000320560000000480+                                                                                                                                                             
161010026682602026040608000320560000000480+                                                                                                                                                             
161010026726302026040608000222390000000200+                                                                                                                                                             
161010027583902026040608000320560000001512+                                                                                                                                                             
161010028304402026040608000320560000000432+                                                                                                                                                             
161010028304602026040608000320560000000096+                                                                                                                                                             
161010028531702026040608000222390000001660+                                                                                                                                                             
161010028617402026040608000222390000000340+                                                                                                                                                             
161010028617702026040608000222390000000020+                                                                                                                                                             
161010028618202026040608000222390000000380+                                                                                                                                                             
161004634743102026040608000057410000000200+                                                                                                                                                             
161005196840702026040608000057410000000240+                                                                                                                                                             
161005203612402026040608000057410000000600+                                                                                                                                                             
161005204713402026040608000057410000001200+                                                                                                                                                             
161005204935002026040608000057410000002600+                                                                                                                                                             
161005204935102026040608000057410000000200+                                                                                                                                                             
161005204935202026040608000057410000001700+                                                                                                                                                             
161005211235002026040608000057410000000480+                                                                                                                                                             
161005211235102026040608000057410000001440+                                                                                                                                                             
161005212630202026040608000057410000001600+                                                                                                                                                             
161005213154202026040608000057410000000480+                                                                                                                                                             
161005216073502026040608000057410000000640+                                                                                                                                                             
161005216073802026040608000057410000000650+                                                                                                                                                             
161005216074802026040608000057410000000300+                                                                                                                                                             
161005216075002026040608000057410000000150+                                                                                                                                                             
161005216075302026040608000057410000000480+                                                                                                                                                             
161005216075402026040608000057410000000240+                                                                                                                                                             
161005216076502026040608000057410000000240+                                                                                                                                                             
161005217469202026040608000057410000000200+                                                                                                                                                             
161005217469302026040608000057410000000240+                                                                                                                                                             
161005217469402026040608000057410000000120+                                                                                                                                                             
161005218314902026040608000057410000000300+                                                                                                                                                             
161005218315002026040608000057410000000150+                                                                                                                                                             
161005220807102026040608000057410000001900+                                                                                                                                                             
161005220807202026040608000057410000001300+                                                                                                                                                             
161005220807402026040608000057410000000100+                                                                                                                                                             
161005222337502026040608000057410000000240+                                                                                                                                                             
161005222337702026040608000057410000000390+                                                                                                                                                             
161005222337902026040608000057410000000300+                                                                                                                                                             
161005222338002026040608000057410000000360+                                                                                                                                                             
161005222338102026040608000057410000000300+                                                                                                                                                             
161005222338202026040608000057410000000600+                                                                                                                                                             
161005222338302026040608000057410000000360+                                                                                                                                                             
161005222435902026040608000057410000000120+                                                                                                                                                             
161005223169802026040608000057410000000100+                                                                                                                                                             
161005223630002026040608000057410000000100+                                                                                                                                                             
161005223974102026040608000057410000000120+                                                                                                                                                             
161005223974202026040608000057410000000480+                                                                                                                                                             
161005223974302026040608000057410000000120+                                                                                                                                                             
161005223974402026040608000057410000000480+                                                                                                                                                             
161005223974502026040608000057410000000120+                                                                                                                                                             
161005223974702026040608000057410000000240+                                                                                                                                                             
161005223974802026040608000057410000000240+                                                                                                                                                             
161005224363902026040608000057410000000600+                                                                                                                                                             
161005527553202026040608000057410000003500+                                                                                                                                                             
161005528216902026040608000057410000001000+                                                                                                                                                             
CL99161BIMF2026040614001905891V8AUTOMATIC 0000089                                                                                                                                                       
