OP01161BIMF2026040612002005890V8AUTOMATIC                                                                                                                                                               
161004634844802026040608000000590000000072+                                                                                                                                                             
161004634844902026040608000000590000000081+                                                                                                                                                             
161004635461102026040608000000590000000080+                                                                                                                                                             
161004635535602026040608000000590000003500+                                                                                                                                                             
161004635540302026040608000000590000000010+                                                                                                                                                             
161004635540502026040608000000590000000020+                                                                                                                                                             
161004635542702026040608000000590000000200+                                                                                                                                                             
161004635542802026040608000000590000000020+                                                                                                                                                             
161004635542902026040608000000590000000200+                                                                                                                                                             
161004635543102026040608000000590000000020+                                                                                                                                                             
161004635763702026040608000000590000000380+                                                                                                                                                             
161004635766702026040608000000590000001500+                                                                                                                                                             
161004636050402026040608000220050000000960+                                                                                                                                                             
161004674288002026040608000000570000002500+                                                                                                                                                             
161005183501102026040608000063050000000600+                                                                                                                                                             
161005183501302026040608000063050000000600+                                                                                                                                                             
161005202308502026040608000057130000001000+                                                                                                                                                             
161005202481402026040608000057130000000600+                                                                                                                                                             
161005215098102026040608000220050000001470+                                                                                                                                                             
161005215246102026040608000000570000000909+                                                                                                                                                             
161005215702902026040608000057130000001000+                                                                                                                                                             
161005215703102026040608000057130000000800+                                                                                                                                                             
161005215980602026040608000220050000000264+                                                                                                                                                             
161005216869702026040608000000570000000133+                                                                                                                                                             
161005216869802026040608000000570000001900+                                                                                                                                                             
161005218033402026040608000057130000000800+                                                                                                                                                             
161005219266202026040608000057130000000160+                                                                                                                                                             
161005220440502026040608000309820000001920+                                                                                                                                                             
161005220440702026040608000309820000003520+                                                                                                                                                             
161005221884302026040608000063050000000195+                                                                                                                                                             
161005221884402026040608000063050000000212+                                                                                                                                                             
161005222389502026040608000057130000000140+                                                                                                                                                             
161005222389702026040608000057130000002024+                                                                                                                                                             
161005222390102026040608000057130000001000+                                                                                                                                                             
161005222397602026040608000220050000000120+                                                                                                                                                             
161005222436202026040608000220050000000060+                                                                                                                                                             
161005222930202026040608000357970000000320+                                                                                                                                                             
161005223119402026040608000057130000000700+                                                                                                                                                             
161005223968302026040608000000570000002500+                                                                                                                                                             
161005224089802026040608000000570000000252+                                                                                                                                                             
161005224858502026040608000000570000000075+                                                                                                                                                             
161005224936002026040608000000570000003500+                                                                                                                                                             
161005226419402026040608000057130000001000+                                                                                                                                                             
161005226557202026040608000057130000000400+                                                                                                                                                             
161005226557402026040608000057130000001000+                                                                                                                                                             
161005226938002026040608000000590000000800+                                                                                                                                                             
161005226938102026040608000000590000000200+                                                                                                                                                             
161005226942002026040608000000590000002800+                                                                                                                                                             
161005226942102026040608000000590000000172+                                                                                                                                                             
161005227004302026040608000000590000000210+                                                                                                                                                             
161005227247702026040608000000570000000354+                                                                                                                                                             
161005227247802026040608000000570000000177+                                                                                                                                                             
161005227247902026040608000000570000000036+                                                                                                                                                             
161005227248102026040608000000570000000138+                                                                                                                                                             
161005227248202026040608000000570000000060+                                                                                                                                                             
161005227639302026040608000000570000002499+                                                                                                                                                             
161010027444102026040608000063050000000960+                                                                                                                                                             
161004635024302026040608000028630000000720+                                                                                                                                                             
161004673880802026040608000382210000000180+                                                                                                                                                             
161005029016602026040608000030270000000500+                                                                                                                                                             
161005171308802026040608000382210000000320+                                                                                                                                                             
161005183595402026040608000065030000000450+                                                                                                                                                             
161005184424502026040608000065030000000360+                                                                                                                                                             
161005194999002026040608000065030000000400+                                                                                                                                                             
161005204043602026040608000065030000000252+                                                                                                                                                             
161005204549602026040608000195490000000450+                                                                                                                                                             
161005204549702026040608000195490000000450+                                                                                                                                                             
161005204652402026040608000028630000000420+                                                                                                                                                             
161005212838702026040608000431780000000840+                                                                                                                                                             
161005212868402026040608000065030000000675+                                                                                                                                                             
161005212868502026040608000065030000000675+                                                                                                                                                             
161005212868702026040608000065030000000675+                                                                                                                                                             
161005212868802026040608000065030000000675+                                                                                                                                                             
161005212884202026040608000028630000000288+                                                                                                                                                             
161005213424002026040608000028630000001610+                                                                                                                                                             
161005214271202026040608000065030000001800+                                                                                                                                                             
161005214735902026040608000028630000001120+                                                                                                                                                             
161005215057002026040608000382210000000230+                                                                                                                                                             
161005215057302026040608000382210000000200+                                                                                                                                                             
161005218454302026040608000028630000000486+                                                                                                                                                             
161005218454402026040608000028630000000630+                                                                                                                                                             
161005219329602026040608000028630000000280+                                                                                                                                                             
161005221892302026040608000382210000002520+                                                                                                                                                             
161005222013402026040608000028630000000160+                                                                                                                                                             
161005222255102026040608000028630000000500+                                                                                                                                                             
161005222293202026040608000028630000000500+                                                                                                                                                             
161005222542402026040608000028630000000800+                                                                                                                                                             
161005226239102026040608000431780000000840+                                                                                                                                                             
161005226239202026040608000431780000000800+                                                                                                                                                             
161005226239302026040608000431780000000800+                                                                                                                                                             
161005226876802026040608000431780000000700+                                                                                                                                                             
161010021676002026040608000065030000000200+                                                                                                                                                             
161010021676402026040608000065030000000200+                                                                                                                                                             
161005183613202026040608000060940000001000+                                                                                                                                                             
161005187716502026040608000060940000000600+                                                                                                                                                             
161005216170402026040608000025530000006000+                                                                                                                                                             
161005216170402026040608000060940000007950+                                                                                                                                                             
161005222007602026040608000025530000000328+                                                                                                                                                             
161004634181702026040608000025530000002975+                                                                                                                                                             
161004634857202026040608000088550000002400+                                                                                                                                                             
161004634967102026040608000061920000003080+                                                                                                                                                             
161004634985302026040608000336650000050000+                                                                                                                                                             
161005181153202026040608000336650000003200+                                                                                                                                                             
161005193411402026040608000168590000002988+                                                                                                                                                             
161005202509802026040608000468980000001260+                                                                                                                                                             
161005202946902026040608000276180000000062+                                                                                                                                                             
161005203568302026040608000003770000003000+                                                                                                                                                             
161005203609202026040608000061920000000315+                                                                                                                                                             
161005204492802026040608000003770000000006+                                                                                                                                                             
161005204582002026040608000276180000000546+                                                                                                                                                             
161005204582602026040608000276180000000240+                                                                                                                                                             
161005204582702026040608000276180000000336+                                                                                                                                                             
161005204582802026040608000276180000000360+                                                                                                                                                             
161005204582902026040608000276180000000336+                                                                                                                                                             
161005204583002026040608000276180000000224+                                                                                                                                                             
161005206353202026040608000276180000000164+                                                                                                                                                             
161005206353302026040608000276180000000164+                                                                                                                                                             
161005212814802026040608000336650000000150+                                                                                                                                                             
161005212814902026040608000336650000000150+                                                                                                                                                             
161005212817902026040608000003770000003012+                                                                                                                                                             
161005212843502026040608000336650000000720+                                                                                                                                                             
161005212908602026040608000025530000003015+                                                                                                                                                             
161005213796602026040608000168590000000504+                                                                                                                                                             
161005214903402026040608000061920000001600+                                                                                                                                                             
161005215009402026040608000288260000001500+                                                                                                                                                             
161005215448702026040608000025530000000216+                                                                                                                                                             
161005215562002026040608000061920000000360+                                                                                                                                                             
161005215779202026040608000003770000001944+                                                                                                                                                             
161005215979002026040608000336650000000300+                                                                                                                                                             
161005216324202026040608000336650000000180+                                                                                                                                                             
161005217297402026040608000336650000002040+                                                                                                                                                             
161005217297902026040608000336650000000180+                                                                                                                                                             
161005217298002026040608000336650000000274+                                                                                                                                                             
161005217298102026040608000336650000000137+                                                                                                                                                             
161005217615902026040608000336650000000168+                                                                                                                                                             
161005217616102026040608000336650000000168+                                                                                                                                                             
161005217616502026040608000336650000000090+                                                                                                                                                             
161005217617002026040608000336650000000045+                                                                                                                                                             
161005217617202026040608000336650000000040+                                                                                                                                                             
161005220116702026040608000336650000000540+                                                                                                                                                             
161005220942302026040608000168590000000048+                                                                                                                                                             
161005220942402026040608000168590000000594+                                                                                                                                                             
161005222179502026040608000288260000000060+                                                                                                                                                             
161005222201202026040608000463740000005000+                                                                                                                                                             
161005222201302026040608000463740000002000+                                                                                                                                                             
161005222529502026040608000168590000000072+                                                                                                                                                             
161005222968202026040608000288260000000090+                                                                                                                                                             
161005223024002026040608000168590000000144+                                                                                                                                                             
161005223024102026040608000168590000000528+                                                                                                                                                             
161005223024202026040608000168590000000108+                                                                                                                                                             
161005223024302026040608000168590000000108+                                                                                                                                                             
161005223258302026040608000276180000000390+                                                                                                                                                             
161005223703402026040608000129390000003040+                                                                                                                                                             
161005224319502026040608000168590000002000+                                                                                                                                                             
161005224319602026040608000168590000002000+                                                                                                                                                             
161005224319702026040608000168590000002000+                                                                                                                                                             
161005224319902026040608000168590000002000+                                                                                                                                                             
161005224320002026040608000168590000001000+                                                                                                                                                             
161005224457702026040608000336650000000210+                                                                                                                                                             
161005224457802026040608000336650000000210+                                                                                                                                                             
161005227669002026040608000276180000000392+                                                                                                                                                             
161010025700902026040608000063350000003000+                                                                                                                                                             
161010025713902026040608000336650000000280+                                                                                                                                                             
161010026600702026040608000003770000000060+                                                                                                                                                             
161010026601002026040608000003770000000270+                                                                                                                                                             
161010026601102026040608000003770000000600+                                                                                                                                                             
161010026680702026040608000003770000002240+                                                                                                                                                             
161010026856702026040608000003770000000100+                                                                                                                                                             
161010026911102026040608000063350000000060+                                                                                                                                                             
161010027104002026040608000003770000000780+                                                                                                                                                             
161010027938002026040608000063350000000060+                                                                                                                                                             
161010028072102026040608000063350000000090+                                                                                                                                                             
161010028307102026040608000003770000000160+                                                                                                                                                             
161010028307202026040608000003770000000080+                                                                                                                                                             
161010028335102026040608000003770000000090+                                                                                                                                                             
161010028516402026040608000063350000000060+                                                                                                                                                             
161010028627602026040608000003770000001390+                                                                                                                                                             
161010028627702026040608000003770000001390+                                                                                                                                                             
161010028665502026040608000003770000000924+                                                                                                                                                             
161010028665602026040608000003770000000468+                                                                                                                                                             
161010028674402026040608000003770000000430+                                                                                                                                                             
161010028674502026040608000003770000000330+                                                                                                                                                             
161010028726102026040608000003770000000060+                                                                                                                                                             
161010028726302026040608000003770000000150+                                                                                                                                                             
161010029277202026040608000003770000000040+                                                                                                                                                             
161073537843202026040608000003770000000480+                                                                                                                                                             
161000762723402026040608000058480000006000+                                                                                                                                                             
161000763953402026040608000058480000006000+                                                                                                                                                             
161000772942402026040608000058480000003000+                                                                                                                                                             
161000775438702026040608000058480000020000+                                                                                                                                                             
161001044149002026040608000028870000003000+                                                                                                                                                             
161001044179002026040608000028870000003000+                                                                                                                                                             
161001314258702026040608000057400000000800+                                                                                                                                                             
161001343570802026040608000028870000005200+                                                                                                                                                             
161001456018702026040608000058480000003600+                                                                                                                                                             
161001457248002026040608000058480000003000+                                                                                                                                                             
161004635544202026040608000025880000000540+                                                                                                                                                             
161004636252502026040608000057400000004000+                                                                                                                                                             
161004642587302026040608000058480000002000+                                                                                                                                                             
161004643199202026040608000058480000001024+                                                                                                                                                             
161004644057102026040608000058480000002400+                                                                                                                                                             
161004645128802026040608000058480000000720+                                                                                                                                                             
161004646154002026040608000057400000001200+                                                                                                                                                             
161004676686902026040608000058480000010000+                                                                                                                                                             
161005000016102026040608000057400000007000+                                                                                                                                                             
161005170815102026040608000354110000009000+                                                                                                                                                             
161005171449802026040608000057400000000700+                                                                                                                                                             
161005179979502026040608000057400000000924+                                                                                                                                                             
161005183149402026040608000058480000001950+                                                                                                                                                             
161005183320102026040608000058480000004500+                                                                                                                                                             
161005184885102026040608000057400000000520+                                                                                                                                                             
161005187800002026040608000233530000000080+                                                                                                                                                             
161005187800102026040608000233530000000080+                                                                                                                                                             
161005187800502026040608000233530000000280+                                                                                                                                                             
161005189110302026040608000354110000003000+                                                                                                                                                             
161005189820002026040608000057400000001440+                                                                                                                                                             
161005194914602026040608000058480000000750+                                                                                                                                                             
161005195621502026040608000057400000000600+                                                                                                                                                             
161005200523502026040608000005070000002100+                                                                                                                                                             
161005200557002026040608000058480000000680+                                                                                                                                                             
161005200576702026040608000233530000001512+                                                                                                                                                             
161005200578802026040608000005070000003510+                                                                                                                                                             
161005200579102026040608000233530000001620+                                                                                                                                                             
161005200584502026040608000005070000000255+                                                                                                                                                             
161005201030502026040608000005070000001280+                                                                                                                                                             
161005201030602026040608000005070000000480+                                                                                                                                                             
161005201030702026040608000233530000000648+                                                                                                                                                             
161005201030802026040608000233530000000540+                                                                                                                                                             
161005201885102026040608000354110000000880+                                                                                                                                                             
161005201937702026040608000058480000010000+                                                                                                                                                             
161005204588202026040608000058480000001000+                                                                                                                                                             
161005204588902026040608000005070000000855+                                                                                                                                                             
161005204589002026040608000005070000000760+                                                                                                                                                             
161005204589102026040608000005070000001235+                                                                                                                                                             
161005204589202026040608000005070000001045+                                                                                                                                                             
161005204590502026040608000058480000000920+                                                                                                                                                             
161005204591102026040608000058480000000900+                                                                                                                                                             
161005204591202026040608000058480000000900+                                                                                                                                                             
161005204605802026040608000005070000000450+                                                                                                                                                             
161005204616202026040608000005070000000900+                                                                                                                                                             
161005204616302026040608000005070000000900+                                                                                                                                                             
161005204619702026040608000233530000000720+                                                                                                                                                             
161005204619802026040608000233530000000800+                                                                                                                                                             
161005204621102026040608000058480000000792+                                                                                                                                                             
161005204621202026040608000058480000000792+                                                                                                                                                             
161005204644002026040608000057400000001092+                                                                                                                                                             
161005204649602026040608000005070000000400+                                                                                                                                                             
161005204649702026040608000005070000000200+                                                                                                                                                             
161005204935802026040608000058480000002000+                                                                                                                                                             
161005205288502026040608000058480000000880+                                                                                                                                                             
161005205288602026040608000058480000000880+                                                                                                                                                             
161005205535402026040608000058480000000504+                                                                                                                                                             
161005205535502026040608000058480000000504+                                                                                                                                                             
161005209083302026040608000057400000003600+                                                                                                                                                             
161005210074702026040608000057400000001280+                                                                                                                                                             
161005212940502026040608000233530000000360+                                                                                                                                                             
161005212940602026040608000233530000000450+                                                                                                                                                             
161005213047802026040608000005070000002240+                                                                                                                                                             
161005213047902026040608000005070000000896+                                                                                                                                                             
161005213048002026040608000005070000000224+                                                                                                                                                             
161005213048102026040608000005070000000336+                                                                                                                                                             
161005213991002026040608000233530000000630+                                                                                                                                                             
161005213991102026040608000233530000000720+                                                                                                                                                             
161005214992802026040608000359170000000375+                                                                                                                                                             
161005215009302026040608000057400000000384+                                                                                                                                                             
161005216191502026040608000005070000000900+                                                                                                                                                             
161005217012002026040608000233530000000080+                                                                                                                                                             
161005217012102026040608000233530000000080+                                                                                                                                                             
161005217300402026040608000233530000000078+                                                                                                                                                             
161005217300502026040608000233530000000078+                                                                                                                                                             
161005217409702026040608000057400000002310+                                                                                                                                                             
161005217464802026040608000233530000000160+                                                                                                                                                             
161005217464902026040608000233530000000160+                                                                                                                                                             
161005217598702026040608000005070000000300+                                                                                                                                                             
161005217599902026040608000005070000000224+                                                                                                                                                             
161005217600002026040608000005070000000672+                                                                                                                                                             
161005217621402026040608000057400000000400+                                                                                                                                                             
161005217621702026040608000057400000000800+                                                                                                                                                             
161005217733802026040608000005070000000120+                                                                                                                                                             
161005217733902026040608000005070000000240+                                                                                                                                                             
161005217780702026040608000005070000000900+                                                                                                                                                             
161005217780802026040608000005070000000900+                                                                                                                                                             
161005217780902026040608000005070000000300+                                                                                                                                                             
161005217781002026040608000005070000000300+                                                                                                                                                             
161005217860302026040608000005070000000380+                                                                                                                                                             
161005217860402026040608000005070000000285+                                                                                                                                                             
161005217860502026040608000233530000000180+                                                                                                                                                             
161005217860602026040608000233530000000180+                                                                                                                                                             
161005217860702026040608000233530000000180+                                                                                                                                                             
161005217860802026040608000233530000000180+                                                                                                                                                             
161005219500102026040608000057400000001200+                                                                                                                                                             
161005219669702026040608000057400000000350+                                                                                                                                                             
161005219669902026040608000354110000003120+                                                                                                                                                             
161005219940802026040608000359170000001638+                                                                                                                                                             
161005220188102026040608000057400000001500+                                                                                                                                                             
161005220188202026040608000057400000001500+                                                                                                                                                             
161005220535702026040608000057400000001500+                                                                                                                                                             
161005221961202026040608000005070000000600+                                                                                                                                                             
161005221961302026040608000005070000001800+                                                                                                                                                             
161005222144902026040608000233530000000308+                                                                                                                                                             
161005222145002026040608000233530000000044+                                                                                                                                                             
161005222145102026040608000233530000000352+                                                                                                                                                             
161005223159402026040608000025880000000400+                                                                                                                                                             
161005223174502026040608000058480000003000+                                                                                                                                                             
161005223733302026040608000057400000000160+                                                                                                                                                             
161005570385202026040608000058480000000750+                                                                                                                                                             
161008245686402026040608000058480000029700+                                                                                                                                                             
161010021782602026040608000057400000000300+                                                                                                                                                             
161010021782802026040608000057400000000100+                                                                                                                                                             
161010023195002026040608000058480000040000+                                                                                                                                                             
161010023633002026040608000005070000000288+                                                                                                                                                             
161010023633102026040608000005070000000288+                                                                                                                                                             
161010023828202026040608000005070000000200+                                                                                                                                                             
161010024488302026040608000005070000000252+                                                                                                                                                             
161010024488402026040608000005070000000684+                                                                                                                                                             
161010024546202026040608000058480000028400+                                                                                                                                                             
161010025704002026040608000058480000000800+                                                                                                                                                             
161010025704102026040608000058480000001200+                                                                                                                                                             
161010025984702026040608000057400000000450+                                                                                                                                                             
161010026491602026040608000058480000004000+                                                                                                                                                             
161010026491802026040608000058480000002000+                                                                                                                                                             
161010027290502026040608000057440000000056+                                                                                                                                                             
161010027724602026040608000057440000000400+                                                                                                                                                             
161010028462002026040608000005070000000072+                                                                                                                                                             
161010028957402026040608000057440000000160+                                                                                                                                                             
161073559779102026040608000058480000001800+                                                                                                                                                             
161005216946002026040608000220050000002000+                                                                                                                                                             
161005216414702026040608000336650000003720+                                                                                                                                                             
161005216414802026040608000336650000003720+                                                                                                                                                             
161005219729302026040608000064080000000320+                                                                                                                                                             
161005219729402026040608000064080000000320+                                                                                                                                                             
161005220672902026040608000336650000001140+                                                                                                                                                             
161005220673002026040608000336650000001140+                                                                                                                                                             
161005221559502026040608000064080000000060+                                                                                                                                                             
161005221736002026040608000064080000000240+                                                                                                                                                             
161005221736102026040608000064080000001100+                                                                                                                                                             
161005222276002026040608000064080000000100+                                                                                                                                                             
161005222491202026040608000064080000000240+                                                                                                                                                             
161005223704502026040608000064080000000120+                                                                                                                                                             
161005225036002026040608000336650000000196+                                                                                                                                                             
161010025177702026040608000336650000003720+                                                                                                                                                             
161010026661702026040608000336650000002352+                                                                                                                                                             
161010026661802026040608000336650000001728+                                                                                                                                                             
161010026663702026040608000336650000001440+                                                                                                                                                             
161010026663802026040608000336650000002288+                                                                                                                                                             
161010027704302026040608000336650000002304+                                                                                                                                                             
161010027704402026040608000336650000002304+                                                                                                                                                             
161010027704502026040608000336650000002200+                                                                                                                                                             
161010028944302026040608000336650000000216+                                                                                                                                                             
CL99161BIMF2026040612002005890V8AUTOMATIC 0000351                                                                                                                                                       
