OP01161BIMF2026040210001805886V8AUTOMATIC                                                                                                                                                               
161000752049602026040208000063720000010000+                                                                                                                                                             
161000752754502026040208000063720000002000+                                                                                                                                                             
161000752849102026040208000063720000004000+                                                                                                                                                             
161000752865502026040208000063720000003200+                                                                                                                                                             
161000756019702026040208000063300000010000+                                                                                                                                                             
161000762544502026040208000063720000010000+                                                                                                                                                             
161000775014702026040208000284580000001000+                                                                                                                                                             
161001314118702026040208000063720000003000+                                                                                                                                                             
161001314208702026040208000063720000001500+                                                                                                                                                             
161001450678702026040208000063720000014400+                                                                                                                                                             
161001450758702026040208000063720000006900+                                                                                                                                                             
161001450768702026040208000063720000011000+                                                                                                                                                             
161001462238702026040208000063720000008260+                                                                                                                                                             
161004636040002026040208000284580000002000+                                                                                                                                                             
161004640135602026040208000056930000000936+                                                                                                                                                             
161004641658802026040208000063720000001200+                                                                                                                                                             
161004642981902026040208000063720000004290+                                                                                                                                                             
161004643638502026040208000063720000003060+                                                                                                                                                             
161004643638602026040208000063720000006000+                                                                                                                                                             
161004644010292026040208000369040000000600+                                                                                                                                                             
161004644635902026040208000063720000001500+                                                                                                                                                             
161004645151802026040208000063720000002550+                                                                                                                                                             
161004645589202026040208000056930000000480+                                                                                                                                                             
161004646412402026040208000063720000015000+                                                                                                                                                             
161004652839202026040208000063300000017500+                                                                                                                                                             
161004653859302026040208000063300000003000+                                                                                                                                                             
161004675886492026040208000369040000001559+                                                                                                                                                             
161004676360502026040208000063720000002000+                                                                                                                                                             
161004678350002026040208000063300000003500+                                                                                                                                                             
161004678476602026040208000063720000007200+                                                                                                                                                             
161004679266002026040208000027000000000168+                                                                                                                                                             
161004680426302026040208000063720000021000+                                                                                                                                                             
161004681831702026040208000036020000006600+                                                                                                                                                             
161004683451802026040208000462990000001500+                                                                                                                                                             
161005001044002026040208000063300000012500+                                                                                                                                                             
161005170815202026040208000063720000000400+                                                                                                                                                             
161005171698802026040208000284580000002000+                                                                                                                                                             
161005174912402026040208000056930000001120+                                                                                                                                                             
161005174995502026040208000063720000001000+                                                                                                                                                             
161005176182402026040208000063720000004250+                                                                                                                                                             
161005176445702026040208000063720000000600+                                                                                                                                                             
161005176650802026040208000462990000001000+                                                                                                                                                             
161005179306002026040208000462990000001900+                                                                                                                                                             
161005180698202026040208000063720000003200+                                                                                                                                                             
161005182260202026040208000063300000003000+                                                                                                                                                             
161005183660202026040208000063300000000960+                                                                                                                                                             
161005183692002026040208000056930000001120+                                                                                                                                                             
161005185542102026040208000462990000001500+                                                                                                                                                             
161005187166702026040208000063720000002600+                                                                                                                                                             
161005189724502026040208000056930000001170+                                                                                                                                                             
161005191119902026040208000466990000000150+                                                                                                                                                             
161005192491802026040208000056930000000864+                                                                                                                                                             
161005192491902026040208000056930000002340+                                                                                                                                                             
161005194009302026040208000098560000002000+                                                                                                                                                             
161005194999102026040208000063720000001200+                                                                                                                                                             
161005198012902026040208000027000000000792+                                                                                                                                                             
161005198013102026040208000027000000000800+                                                                                                                                                             
161005198406402026040208000466990000001440+                                                                                                                                                             
161005198406502026040208000466990000001360+                                                                                                                                                             
161005200481102026040208000369040000000020+                                                                                                                                                             
161005200583802026040208000386910000000160+                                                                                                                                                             
161005200591402026040208000386910000000500+                                                                                                                                                             
161005201935302026040208000027000000000180+                                                                                                                                                             
161005202308502026040208000057130000001000+                                                                                                                                                             
161005202353102026040208000284580000004000+                                                                                                                                                             
161005202481402026040208000057130000000100+                                                                                                                                                             
161005202588702026040208000063720000005000+                                                                                                                                                             
161005203886802026040208000063720000002000+                                                                                                                                                             
161005204473702026040208000063720000004800+                                                                                                                                                             
161005204583102026040208000462990000001206+                                                                                                                                                             
161005204583202026040208000462990000001206+                                                                                                                                                             
161005204789402026040208000063720000001200+                                                                                                                                                             
161005205320102026040208000057130000000400+                                                                                                                                                             
161005205627002026040208000063720000004000+                                                                                                                                                             
161005206633402026040208000369040000000090+                                                                                                                                                             
161005206740002026040208000063720000003000+                                                                                                                                                             
161005207292902026040208000063720000000900+                                                                                                                                                             
161005207293002026040208000063720000000600+                                                                                                                                                             
161005207990002026040208000063720000004000+                                                                                                                                                             
161005209293602026040208000027000000001080+                                                                                                                                                             
161005209465802026040208000027000000000210+                                                                                                                                                             
161005209660402026040208000062480000000480+                                                                                                                                                             
161005209660602026040208000062480000000480+                                                                                                                                                             
161005212735502026040208000369040000001640+                                                                                                                                                             
161005212736602026040208000369040000000390+                                                                                                                                                             
161005212802902026040208000462990000001500+                                                                                                                                                             
161005212807002026040208000066480000000500+                                                                                                                                                             
161005212807102026040208000066480000000513+                                                                                                                                                             
161005212851402026040208000063300000000300+                                                                                                                                                             
161005212851402026040208000386910000000300+                                                                                                                                                             
161005212851502026040208000063300000000420+                                                                                                                                                             
161005212851502026040208000386910000000420+                                                                                                                                                             
161005212884002026040208000027000000000350+                                                                                                                                                             
161005212910102026040208000063720000004620+                                                                                                                                                             
161005213800402026040208000027000000000050+                                                                                                                                                             
161005213800502026040208000027000000000480+                                                                                                                                                             
161005213994602026040208000098560000000600+                                                                                                                                                             
161005214808902026040208000063720000001200+                                                                                                                                                             
161005214841702026040208000462990000001900+                                                                                                                                                             
161005214982102026040208000036020000000616+                                                                                                                                                             
161005214982202026040208000036020000000336+                                                                                                                                                             
161005215436602026040208000032410000000300+                                                                                                                                                             
161005215436802026040208000032410000000630+                                                                                                                                                             
161005215450402026040208000386910000001200+                                                                                                                                                             
161005215451102026040208000060420000001500+                                                                                                                                                             
161005215567302026040208000063720000002000+                                                                                                                                                             
161005215702902026040208000057130000000900+                                                                                                                                                             
161005215703102026040208000057130000000960+                                                                                                                                                             
161005215788602026040208000369040000001022+                                                                                                                                                             
161005215789102026040208000369040000000540+                                                                                                                                                             
161005215964802026040208000066480000000072+                                                                                                                                                             
161005215964902026040208000066480000000232+                                                                                                                                                             
161005216099702026040208000066480000000200+                                                                                                                                                             
161005216218502026040208000066480000000206+                                                                                                                                                             
161005216279202026040208000063720000002300+                                                                                                                                                             
161005216338302026040208000063720000004200+                                                                                                                                                             
161005216402402026040208000386910000000200+                                                                                                                                                             
161005216402502026040208000386910000000600+                                                                                                                                                             
161005216424202026040208000063720000001500+                                                                                                                                                             
161005216843102026040208000032410000000300+                                                                                                                                                             
161005216843302026040208000032410000000300+                                                                                                                                                             
161005216869902026040208000060420000001500+                                                                                                                                                             
161005216872702026040208000063300000000900+                                                                                                                                                             
161005217297302026040208000056930000000420+                                                                                                                                                             
161005217298202026040208000098560000000400+                                                                                                                                                             
161005217441102026040208000056930000000720+                                                                                                                                                             
161005217441502026040208000056930000000700+                                                                                                                                                             
161005217598802026040208000060420000000500+                                                                                                                                                             
161005217651402026040208000252810000000196+                                                                                                                                                             
161005217883502026040208000027000000000150+                                                                                                                                                             
161005218033402026040208000057130000000384+                                                                                                                                                             
161005218247602026040208000386910000000900+                                                                                                                                                             
161005218379802026040208000062480000000480+                                                                                                                                                             
161005218380002026040208000062480000000480+                                                                                                                                                             
161005218963502026040208000284580000000330+                                                                                                                                                             
161005219174502026040208000252810000000056+                                                                                                                                                             
161005219345602026040208000369040000000776+                                                                                                                                                             
161005219409502026040208000060420000000200+                                                                                                                                                             
161005220218102026040208000027000000001200+                                                                                                                                                             
161005220712102026040208000062480000001284+                                                                                                                                                             
161005220916202026040208000027310000000120+                                                                                                                                                             
161005221105902026040208000063300000000300+                                                                                                                                                             
161005221106002026040208000063300000000150+                                                                                                                                                             
161005221106202026040208000063300000000150+                                                                                                                                                             
161005221106302026040208000063300000000300+                                                                                                                                                             
161005221106502026040208000063300000000300+                                                                                                                                                             
161005221107302026040208000063300000000150+                                                                                                                                                             
161005221107502026040208000063300000000150+                                                                                                                                                             
161005221107702026040208000063300000000150+                                                                                                                                                             
161005221107802026040208000063300000000150+                                                                                                                                                             
161005221108002026040208000063300000000150+                                                                                                                                                             
161005221207402026040208000462990000001500+                                                                                                                                                             
161005221226802026040208000063720000001000+                                                                                                                                                             
161005221266902026040208000027000000000250+                                                                                                                                                             
161005221609302026040208000063300000000300+                                                                                                                                                             
161005221609402026040208000063300000000300+                                                                                                                                                             
161005222201502026040208000252810000000100+                                                                                                                                                             
161005222201702026040208000252810000000100+                                                                                                                                                             
161005222202102026040208000252810000000100+                                                                                                                                                             
161005222202202026040208000252810000000100+                                                                                                                                                             
161005222202302026040208000252810000000200+                                                                                                                                                             
161005222202502026040208000252810000000200+                                                                                                                                                             
161005222219502026040208000063300000000700+                                                                                                                                                             
161005222219602026040208000063300000000700+                                                                                                                                                             
161005222219702026040208000063300000000500+                                                                                                                                                             
161005222219802026040208000063300000000500+                                                                                                                                                             
161005222256402026040208000443730000000210+                                                                                                                                                             
161005222256602026040208000443730000000210+                                                                                                                                                             
161005222256802026040208000443730000000210+                                                                                                                                                             
161005222257002026040208000443730000000210+                                                                                                                                                             
161005222297002026040208000032410000000486+                                                                                                                                                             
161005222297102026040208000032410000000270+                                                                                                                                                             
161005222387602026040208000027310000000480+                                                                                                                                                             
161005222387702026040208000027310000000192+                                                                                                                                                             
161005222389702026040208000057130000001288+                                                                                                                                                             
161005222390302026040208000057130000000820+                                                                                                                                                             
161005222397802026040208000066480000000250+                                                                                                                                                             
161005222398002026040208000066480000000175+                                                                                                                                                             
161005222402302026040208000369040000000090+                                                                                                                                                             
161005222421102026040208000252810000000120+                                                                                                                                                             
161005222510102026040208000098560000000300+                                                                                                                                                             
161005222510202026040208000098560000000300+                                                                                                                                                             
161005222716502026040208000466990000000784+                                                                                                                                                             
161005222926402026040208000386910000000720+                                                                                                                                                             
161005223104002026040208000032410000000270+                                                                                                                                                             
161005223104102026040208000032410000000180+                                                                                                                                                             
161005223119402026040208000057130000000700+                                                                                                                                                             
161005223337902026040208000063720000001200+                                                                                                                                                             
161005223338902026040208000063720000002000+                                                                                                                                                             
161005223553902026040208000060420000002500+                                                                                                                                                             
161005223554002026040208000060420000001500+                                                                                                                                                             
161005223577602026040208000063300000000120+                                                                                                                                                             
161005223577702026040208000063300000000240+                                                                                                                                                             
161005223627102026040208000060420000000250+                                                                                                                                                             
161005223930002026040208000060420000000350+                                                                                                                                                             
161005223938102026040208000066480000000320+                                                                                                                                                             
161005223968802026040208000060420000001897+                                                                                                                                                             
161005224369602026040208000252810000000192+                                                                                                                                                             
161005224658902026040208000386910000000100+                                                                                                                                                             
161005224856602026040208000027310000001020+                                                                                                                                                             
161005224944602026040208000027310000000480+                                                                                                                                                             
161005224944702026040208000027310000000240+                                                                                                                                                             
161005225108202026040208000063300000000300+                                                                                                                                                             
161005225108302026040208000063300000000450+                                                                                                                                                             
161005225108402026040208000063300000001200+                                                                                                                                                             
161005225108502026040208000063300000000750+                                                                                                                                                             
161005225507002026040208000060420000001498+                                                                                                                                                             
161005225550802026040208000060420000001500+                                                                                                                                                             
161005225762502026040208000060420000002500+                                                                                                                                                             
161005226018802026040208000331280000002640+                                                                                                                                                             
161005226018902026040208000331280000000320+                                                                                                                                                             
161005226019002026040208000331280000000240+                                                                                                                                                             
161005226019102026040208000331280000000960+                                                                                                                                                             
161005226077102026040208000331280000000240+                                                                                                                                                             
161005226419402026040208000057130000002000+                                                                                                                                                             
161005226557202026040208000057130000000300+                                                                                                                                                             
161005227055902026040208000063300000000200+                                                                                                                                                             
161005227651702026040208000252810000000480+                                                                                                                                                             
161005526819002026040208000284580000000900+                                                                                                                                                             
161010017627802026040208000462990000000798+                                                                                                                                                             
161010020128602026040208000063300000000760+                                                                                                                                                             
161010021505302026040208000462990000000810+                                                                                                                                                             
161010022110502026040208000462990000001600+                                                                                                                                                             
161010022118602026040208000462990000001000+                                                                                                                                                             
161010022343902026040208000063300000000200+                                                                                                                                                             
161010023329402026040208000036020000000240+                                                                                                                                                             
161010023329502026040208000036020000000240+                                                                                                                                                             
161010023662802026040208000036020000000300+                                                                                                                                                             
161010023662902026040208000036020000000450+                                                                                                                                                             
161010023663002026040208000036020000000728+                                                                                                                                                             
161010023663102026040208000036020000000420+                                                                                                                                                             
161010024432702026040208000063300000000390+                                                                                                                                                             
161010024432702026040208000386910000000325+                                                                                                                                                             
161010024438702026040208000030630000001800+                                                                                                                                                             
161010024439002026040208000030630000000720+                                                                                                                                                             
161010024443702026040208000432350000001500+                                                                                                                                                             
161010024456602026040208000063300000001560+                                                                                                                                                             
161010024561402026040208000462990000001500+                                                                                                                                                             
161010024855302026040208000030630000001080+                                                                                                                                                             
161010025214402026040208000432350000001500+                                                                                                                                                             
161010025361002026040208000432350000001512+                                                                                                                                                             
161010025475602026040208000432350000000460+                                                                                                                                                             
161010025628602026040208000432350000000300+                                                                                                                                                             
161010025721502026040208000036020000000300+                                                                                                                                                             
161010025721602026040208000036020000000300+                                                                                                                                                             
161010025737202026040208000036020000000792+                                                                                                                                                             
161010025737402026040208000036020000000800+                                                                                                                                                             
161010025782502026040208000063300000000209+                                                                                                                                                             
161010025843302026040208000386910000000120+                                                                                                                                                             
161010025844402026040208000462990000001500+                                                                                                                                                             
161010025877002026040208000062480000000241+                                                                                                                                                             
161010025895002026040208000462990000001900+                                                                                                                                                             
161010025901402026040208000036020000000456+                                                                                                                                                             
161010025901502026040208000036020000000456+                                                                                                                                                             
161010025901602026040208000036020000000616+                                                                                                                                                             
161010025901702026040208000036020000000616+                                                                                                                                                             
161010025941302026040208000062480000000450+                                                                                                                                                             
161010025954102026040208000386910000000200+                                                                                                                                                             
161010025954202026040208000386910000000320+                                                                                                                                                             
161010026347902026040208000462990000001470+                                                                                                                                                             
161010026364002026040208000036020000000280+                                                                                                                                                             
161010026364202026040208000036020000000280+                                                                                                                                                             
161010026367402026040208000063300000000192+                                                                                                                                                             
161010026439202026040208000063300000000200+                                                                                                                                                             
161010026532902026040208000036020000000050+                                                                                                                                                             
161010026533102026040208000036020000000050+                                                                                                                                                             
161010026534202026040208000032410000000200+                                                                                                                                                             
161010026588502026040208000462990000000500+                                                                                                                                                             
161010026620502026040208000404890000001200+                                                                                                                                                             
161010026632302026040208000063300000000260+                                                                                                                                                             
161010026637902026040208000432350000001896+                                                                                                                                                             
161010026759402026040208000404890000002000+                                                                                                                                                             
161010026877302026040208000063300000000090+                                                                                                                                                             
161010026958302026040208000036020000001400+                                                                                                                                                             
161010026958402026040208000036020000000280+                                                                                                                                                             
161010027048102026040208000432350000000152+                                                                                                                                                             
161010027048302026040208000432350000000252+                                                                                                                                                             
161010027062202026040208000036020000000330+                                                                                                                                                             
161010027069102026040208000036020000000220+                                                                                                                                                             
161010027069202026040208000036020000000140+                                                                                                                                                             
161010027069302026040208000036020000000210+                                                                                                                                                             
161010027224702026040208000060420000001500+                                                                                                                                                             
161010027225802026040208000066480000000621+                                                                                                                                                             
161010027269602026040208000386910000000070+                                                                                                                                                             
161010027631502026040208000062480000000645+                                                                                                                                                             
161010027631602026040208000062480000000225+                                                                                                                                                             
161010027631802026040208000062480000000141+                                                                                                                                                             
161010027631902026040208000062480000000335+                                                                                                                                                             
161010027711702026040208000036020000000300+                                                                                                                                                             
161010027711902026040208000036020000000300+                                                                                                                                                             
161010027828702026040208000060420000001000+                                                                                                                                                             
161010027999002026040208000062480000000200+                                                                                                                                                             
161010027999202026040208000062480000000140+                                                                                                                                                             
161010028266602026040208000036020000000220+                                                                                                                                                             
161010028381002026040208000062480000000300+                                                                                                                                                             
161010028396102026040208000432350000000300+                                                                                                                                                             
161010028398202026040208000462990000001584+                                                                                                                                                             
161010028398302026040208000462990000001512+                                                                                                                                                             
161010028458602026040208000386910000000080+                                                                                                                                                             
161010028458702026040208000386910000000080+                                                                                                                                                             
161010028477602026040208000432350000000852+                                                                                                                                                             
161010028477702026040208000432350000000452+                                                                                                                                                             
161010028536802026040208000066480000000800+                                                                                                                                                             
161010028698202026040208000062480000000226+                                                                                                                                                             
161010028713002026040208000062480000000300+                                                                                                                                                             
161010029015702026040208000432350000001500+                                                                                                                                                             
161010029015802026040208000432350000001352+                                                                                                                                                             
161010029246302026040208000386910000000200+                                                                                                                                                             
161010029246402026040208000386910000000200+                                                                                                                                                             
161073579228702026040208000036020000000792+                                                                                                                                                             
161000751492102026040208000152290000001200+                                                                                                                                                             
161000757768002026040208000063570000001200+                                                                                                                                                             
161001450348702026040208000063570000002400+                                                                                                                                                             
161001463138702026040208000063570000000800+                                                                                                                                                             
161004634188402026040208000063570000000087+                                                                                                                                                             
161004644074102026040208000063570000001820+                                                                                                                                                             
161004644456502026040208000063570000004000+                                                                                                                                                             
161005202897002026040208000063570000000224+                                                                                                                                                             
161005203903102026040208000063570000002000+                                                                                                                                                             
161005204652202026040208000028630000000192+                                                                                                                                                             
161005204652402026040208000028630000000140+                                                                                                                                                             
161005208799002026040208000063570000000720+                                                                                                                                                             
161005209642302026040208000063570000006000+                                                                                                                                                             
161005209642302026040208000152290000006000+                                                                                                                                                             
161005209642502026040208000063570000009000+                                                                                                                                                             
161005209642502026040208000152290000009000+                                                                                                                                                             
161005210401902026040208000063570000001000+                                                                                                                                                             
161005212884202026040208000028630000000288+                                                                                                                                                             
161005213424002026040208000028630000001750+                                                                                                                                                             
161005214735902026040208000028630000001470+                                                                                                                                                             
161005216219602026040208000308340000000174+                                                                                                                                                             
161005216228302026040208000308340000000087+                                                                                                                                                             
161005216342402026040208000452730000000350+                                                                                                                                                             
161005218414202026040208000308340000000216+                                                                                                                                                             
161005218454302026040208000028630000000324+                                                                                                                                                             
161005218454402026040208000028630000000252+                                                                                                                                                             
161005219247502026040208000452730000000420+                                                                                                                                                             
161005219247702026040208000452730000000060+                                                                                                                                                             
161005219247902026040208000452730000000360+                                                                                                                                                             
161005219329602026040208000028630000000140+                                                                                                                                                             
161005220455602026040208000063570000000540+                                                                                                                                                             
161005222013402026040208000028630000000320+                                                                                                                                                             
161005222255102026040208000028630000000500+                                                                                                                                                             
161005222292102026040208000308340000000174+                                                                                                                                                             
161005222554602026040208000452730000000288+                                                                                                                                                             
161005222554802026040208000452730000000216+                                                                                                                                                             
161005223581102026040208000063570000000280+                                                                                                                                                             
161005225894702026040208000308340000000216+                                                                                                                                                             
161005225895002026040208000308340000000150+                                                                                                                                                             
161005225895202026040208000308340000000352+                                                                                                                                                             
161005225895302026040208000308340000000376+                                                                                                                                                             
161005225895402026040208000308340000000188+                                                                                                                                                             
161005225895502026040208000308340000000188+                                                                                                                                                             
161005225895602026040208000308340000000396+                                                                                                                                                             
161005225895702026040208000308340000000396+                                                                                                                                                             
161005225895802026040208000308340000000352+                                                                                                                                                             
161005225895902026040208000308340000000352+                                                                                                                                                             
161005227090002026040208000466990000000048+                                                                                                                                                             
161005227090102026040208000466990000000104+                                                                                                                                                             
161005227090202026040208000466990000000148+                                                                                                                                                             
161005227090302026040208000466990000000100+                                                                                                                                                             
161005227090402026040208000466990000000052+                                                                                                                                                             
161005227154802026040208000466990000000012+                                                                                                                                                             
161005227168702026040208000466990000000228+                                                                                                                                                             
161010018527202026040208000063570000000252+                                                                                                                                                             
161010019585902026040208000063570000000140+                                                                                                                                                             
161010023289302026040208000152290000000060+                                                                                                                                                             
161010023289302026040208000452730000000300+                                                                                                                                                             
161010023289402026040208000152290000000060+                                                                                                                                                             
161010023289502026040208000152290000000060+                                                                                                                                                             
161010023289502026040208000452730000000060+                                                                                                                                                             
161010023292702026040208000452730000000108+                                                                                                                                                             
161010023292902026040208000452730000000048+                                                                                                                                                             
161010023293702026040208000063570000000100+                                                                                                                                                             
161010023304602026040208000452730000000108+                                                                                                                                                             
161010023304802026040208000452730000000048+                                                                                                                                                             
161010023306302026040208000063570000000072+                                                                                                                                                             
161010024103602026040208000063570000000084+                                                                                                                                                             
161010024433002026040208000452730000000840+                                                                                                                                                             
161010024433202026040208000452730000000744+                                                                                                                                                             
161010024433402026040208000452730000000840+                                                                                                                                                             
161010024433602026040208000452730000000840+                                                                                                                                                             
161010024434702026040208000452730000001352+                                                                                                                                                             
161010024435302026040208000452730000001352+                                                                                                                                                             
161010024435702026040208000063560000000576+                                                                                                                                                             
161010024435902026040208000063560000000576+                                                                                                                                                             
161010024436202026040208000452730000000840+                                                                                                                                                             
161010024436402026040208000452730000000840+                                                                                                                                                             
161010024437702026040208000452730000000726+                                                                                                                                                             
161010024438302026040208000452730000001122+                                                                                                                                                             
161010024440402026040208000452730000000320+                                                                                                                                                             
161010024456402026040208000063570000000396+                                                                                                                                                             
161010024457102026040208000063570000000360+                                                                                                                                                             
161010024457802026040208000452730000000324+                                                                                                                                                             
161010024458602026040208000063570000000480+                                                                                                                                                             
161010024458802026040208000063570000000392+                                                                                                                                                             
161010024459102026040208000063570000000432+                                                                                                                                                             
161010024459302026040208000063570000000072+                                                                                                                                                             
161010024459402026040208000063570000000192+                                                                                                                                                             
161010024517302026040208000452730000000360+                                                                                                                                                             
161010024517602026040208000063570000000240+                                                                                                                                                             
161010024517702026040208000063570000000300+                                                                                                                                                             
161010024558702026040208000063570000000952+                                                                                                                                                             
161010024558802026040208000063570000001008+                                                                                                                                                             
161010024559002026040208000063570000000300+                                                                                                                                                             
161010024559202026040208000063570000000900+                                                                                                                                                             
161010024561902026040208000452730000000576+                                                                                                                                                             
161010025431702026040208000063570000000312+                                                                                                                                                             
161010025483802026040208000063570000000660+                                                                                                                                                             
161010025524802026040208000063560000000048+                                                                                                                                                             
161010025526402026040208000063560000000336+                                                                                                                                                             
161010025528002026040208000063560000000216+                                                                                                                                                             
161010025677902026040208000452730000000588+                                                                                                                                                             
161010025678102026040208000452730000000672+                                                                                                                                                             
161010025679502026040208000452730000000624+                                                                                                                                                             
161010025679602026040208000452730000000104+                                                                                                                                                             
161010025679702026040208000452730000000480+                                                                                                                                                             
161010025679802026040208000452730000000192+                                                                                                                                                             
161010025679902026040208000452730000000594+                                                                                                                                                             
161010025680202026040208000452730000000459+                                                                                                                                                             
161010025680402026040208000452730000000585+                                                                                                                                                             
161010025680602026040208000063560000000320+                                                                                                                                                             
161010025680702026040208000063560000000320+                                                                                                                                                             
161010025680802026040208000063560000000180+                                                                                                                                                             
161010025681002026040208000063560000000180+                                                                                                                                                             
161010025681202026040208000452730000000476+                                                                                                                                                             
161010025681402026040208000452730000000364+                                                                                                                                                             
161010025681602026040208000452730000000480+                                                                                                                                                             
161010025681902026040208000452730000000390+                                                                                                                                                             
161010025701802026040208000452730000000162+                                                                                                                                                             
161010025702002026040208000063560000000612+                                                                                                                                                             
161010025702102026040208000452730000000160+                                                                                                                                                             
161010025702302026040208000452730000000840+                                                                                                                                                             
161010025702702026040208000452730000000324+                                                                                                                                                             
161010025703202026040208000452730000000135+                                                                                                                                                             
161010025704402026040208000452730000001332+                                                                                                                                                             
161010025705002026040208000063570000000560+                                                                                                                                                             
161010025706102026040208000063570000000144+                                                                                                                                                             
161010025735502026040208000452730000000045+                                                                                                                                                             
161010025736802026040208000452730000000690+                                                                                                                                                             
161010025791402026040208000063570000000630+                                                                                                                                                             
161010025801002026040208000063560000000054+                                                                                                                                                             
161010026078102026040208000063560000000024+                                                                                                                                                             
161010026106402026040208000452730000000320+                                                                                                                                                             
161010026271202026040208000063570000000512+                                                                                                                                                             
161010026351302026040208000452730000000360+                                                                                                                                                             
161010026367802026040208000452730000000460+                                                                                                                                                             
161010026530302026040208000062140000000040+                                                                                                                                                             
161010026600602026040208000062140000000020+                                                                                                                                                             
161010026610902026040208000063560000000040+                                                                                                                                                             
161010026611302026040208000063560000000040+                                                                                                                                                             
161010026611602026040208000063560000000220+                                                                                                                                                             
161010026612202026040208000063560000000040+                                                                                                                                                             
161010026618702026040208000452730000000238+                                                                                                                                                             
161010026622802026040208000452730000000190+                                                                                                                                                             
161010026623502026040208000452730000000252+                                                                                                                                                             
161010026623802026040208000452730000000160+                                                                                                                                                             
161010026624402026040208000452730000000080+                                                                                                                                                             
161010026624602026040208000452730000000200+                                                                                                                                                             
161010026625202026040208000452730000000400+                                                                                                                                                             
161010026625402026040208000452730000000432+                                                                                                                                                             
161010026625602026040208000452730000000360+                                                                                                                                                             
161010026626502026040208000452730000000540+                                                                                                                                                             
161010026626602026040208000452730000000408+                                                                                                                                                             
161010026626802026040208000452730000000090+                                                                                                                                                             
161010026627002026040208000452730000000360+                                                                                                                                                             
161010026628502026040208000452730000000560+                                                                                                                                                             
161010026629702026040208000063570000000660+                                                                                                                                                             
161010026636802026040208000452730000000064+                                                                                                                                                             
161010026665002026040208000452730000000624+                                                                                                                                                             
161010026682202026040208000452730000000210+                                                                                                                                                             
161010026682902026040208000062140000000180+                                                                                                                                                             
161010026683102026040208000062140000000070+                                                                                                                                                             
161010026683802026040208000062140000000180+                                                                                                                                                             
161010026683902026040208000062140000000060+                                                                                                                                                             
161010026684002026040208000062140000000070+                                                                                                                                                             
161010026685202026040208000452730000000100+                                                                                                                                                             
161010026686102026040208000452730000000040+                                                                                                                                                             
161010026799402026040208000452730000000378+                                                                                                                                                             
161010026799602026040208000452730000000042+                                                                                                                                                             
161010026799802026040208000452730000000308+                                                                                                                                                             
161010026800002026040208000452730000000077+                                                                                                                                                             
161010026876102026040208000452730000000130+                                                                                                                                                             
161010026876202026040208000452730000000130+                                                                                                                                                             
161010026876802026040208000452730000000120+                                                                                                                                                             
161010026876902026040208000452730000000144+                                                                                                                                                             
161010026877102026040208000452730000000144+                                                                                                                                                             
161010026910302026040208000063570000000363+                                                                                                                                                             
161010026911302026040208000452730000000135+                                                                                                                                                             
161010026958902026040208000452730000000224+                                                                                                                                                             
161010027030702026040208000063570000000192+                                                                                                                                                             
161010027109902026040208000466990000000564+                                                                                                                                                             
161010027110002026040208000466990000000004+                                                                                                                                                             
161010027124702026040208000466990000000352+                                                                                                                                                             
161010027170202026040208000452730000000060+                                                                                                                                                             
161010027183102026040208000063570000000480+                                                                                                                                                             
