OP01161BIMF2026040610001805889V8AUTOMATIC                                                                                                                                                               
161000752049602026040608000063720000002000+                                                                                                                                                             
161000752754502026040608000063720000002000+                                                                                                                                                             
161000752848002026040608000063300000001600+                                                                                                                                                             
161000752849102026040608000063720000003000+                                                                                                                                                             
161000752865502026040608000063720000001600+                                                                                                                                                             
161000755208702026040608000063720000002400+                                                                                                                                                             
161000756019702026040608000063300000012000+                                                                                                                                                             
161000756858702026040608000284580000004900+                                                                                                                                                             
161000762544502026040608000063720000008000+                                                                                                                                                             
161001314198702026040608000063720000012000+                                                                                                                                                             
161001450758702026040608000063720000006900+                                                                                                                                                             
161001450768702026040608000063720000004400+                                                                                                                                                             
161001462238702026040608000063720000005900+                                                                                                                                                             
161004635428802026040608000063300000000360+                                                                                                                                                             
161004640135602026040608000056930000000936+                                                                                                                                                             
161004641658802026040608000063720000001200+                                                                                                                                                             
161004642981902026040608000063720000002640+                                                                                                                                                             
161004643638502026040608000063720000003400+                                                                                                                                                             
161004643638602026040608000063720000003600+                                                                                                                                                             
161004644635902026040608000063720000006000+                                                                                                                                                             
161004645151802026040608000063720000002550+                                                                                                                                                             
161004645589202026040608000056930000000800+                                                                                                                                                             
161004646412402026040608000063720000013800+                                                                                                                                                             
161004651444102026040608000063300000001080+                                                                                                                                                             
161004653859302026040608000063300000008400+                                                                                                                                                             
161004675886492026040608000369040000000636+                                                                                                                                                             
161004676360502026040608000063720000002000+                                                                                                                                                             
161004678350002026040608000063300000003500+                                                                                                                                                             
161004678476602026040608000063720000002400+                                                                                                                                                             
161004679266002026040608000027000000000168+                                                                                                                                                             
161004680426302026040608000063720000014000+                                                                                                                                                             
161004681831702026040608000036020000004400+                                                                                                                                                             
161004683451802026040608000462990000001500+                                                                                                                                                             
161004684535102026040608000063300000008400+                                                                                                                                                             
161005001044002026040608000063300000012000+                                                                                                                                                             
161005170815202026040608000063720000001000+                                                                                                                                                             
161005174912402026040608000056930000001568+                                                                                                                                                             
161005174995502026040608000063720000001500+                                                                                                                                                             
161005176004702026040608000063300000003000+                                                                                                                                                             
161005176182402026040608000063720000002500+                                                                                                                                                             
161005176445702026040608000063720000001000+                                                                                                                                                             
161005176650802026040608000462990000001500+                                                                                                                                                             
161005178551602026040608000450910000001128+                                                                                                                                                             
161005179306002026040608000462990000002500+                                                                                                                                                             
161005180698202026040608000063720000002400+                                                                                                                                                             
161005182260202026040608000063300000005000+                                                                                                                                                             
161005183660202026040608000063300000001400+                                                                                                                                                             
161005183692002026040608000056930000001568+                                                                                                                                                             
161005185542102026040608000462990000001500+                                                                                                                                                             
161005187166702026040608000063720000002600+                                                                                                                                                             
161005187314502026040608000063300000001560+                                                                                                                                                             
161005187703902026040608000386910000000080+                                                                                                                                                             
161005189724502026040608000056930000001560+                                                                                                                                                             
161005192491802026040608000056930000000864+                                                                                                                                                             
161005192491902026040608000056930000002340+                                                                                                                                                             
161005194009302026040608000098560000001500+                                                                                                                                                             
161005194999102026040608000063720000001200+                                                                                                                                                             
161005196425402026040608000063300000000240+                                                                                                                                                             
161005197955802026040608000063300000000120+                                                                                                                                                             
161005198012902026040608000027000000000648+                                                                                                                                                             
161005198013102026040608000027000000001200+                                                                                                                                                             
161005198111802026040608000063300000000200+                                                                                                                                                             
161005198406302026040608000466990000000080+                                                                                                                                                             
161005198406402026040608000466990000001280+                                                                                                                                                             
161005198406502026040608000466990000001600+                                                                                                                                                             
161005200423102026040608000284580000001950+                                                                                                                                                             
161005200423202026040608000284580000001950+                                                                                                                                                             
161005200583802026040608000386910000000240+                                                                                                                                                             
161005200591402026040608000386910000000500+                                                                                                                                                             
161005200610602026040608000284580000002025+                                                                                                                                                             
161005200685802026040608000065230000000006+                                                                                                                                                             
161005202377002026040608000065230000000041+                                                                                                                                                             
161005202588702026040608000063720000002500+                                                                                                                                                             
161005204452302026040608000027000000000350+                                                                                                                                                             
161005204473702026040608000063720000002000+                                                                                                                                                             
161005204583102026040608000462990000002294+                                                                                                                                                             
161005204583202026040608000462990000002294+                                                                                                                                                             
161005204987502026040608000284580000006000+                                                                                                                                                             
161005205627002026040608000063720000003200+                                                                                                                                                             
161005206633402026040608000369040000000172+                                                                                                                                                             
161005206740002026040608000063720000000600+                                                                                                                                                             
161005207292902026040608000063720000001500+                                                                                                                                                             
161005207293002026040608000063720000001200+                                                                                                                                                             
161005207990002026040608000063720000001500+                                                                                                                                                             
161005208434402026040608000284580000003000+                                                                                                                                                             
161005209085502026040608000027000000000210+                                                                                                                                                             
161005209094002026040608000369040000000093+                                                                                                                                                             
161005209293602026040608000027000000000960+                                                                                                                                                             
161005209465802026040608000027000000000084+                                                                                                                                                             
161005209660602026040608000062480000000480+                                                                                                                                                             
161005210397202026040608000062480000000480+                                                                                                                                                             
161005212735502026040608000369040000001588+                                                                                                                                                             
161005212736602026040608000369040000000485+                                                                                                                                                             
161005212807002026040608000066480000000729+                                                                                                                                                             
161005212807102026040608000066480000000228+                                                                                                                                                             
161005212811902026040608000450910000001528+                                                                                                                                                             
161005212851402026040608000063300000000600+                                                                                                                                                             
161005212851402026040608000386910000000600+                                                                                                                                                             
161005212851502026040608000063300000000560+                                                                                                                                                             
161005212851502026040608000386910000000490+                                                                                                                                                             
161005212884002026040608000027000000000350+                                                                                                                                                             
161005212910102026040608000063720000005390+                                                                                                                                                             
161005213800402026040608000027000000000100+                                                                                                                                                             
161005213814402026040608000284580000000960+                                                                                                                                                             
161005213994602026040608000098560000000600+                                                                                                                                                             
161005213994802026040608000066480000000636+                                                                                                                                                             
161005213995002026040608000066480000000436+                                                                                                                                                             
161005214808902026040608000063720000001500+                                                                                                                                                             
161005214841702026040608000462990000001900+                                                                                                                                                             
161005215127202026040608000065230000002154+                                                                                                                                                             
161005215128102026040608000065230000001754+                                                                                                                                                             
161005215436602026040608000032410000000400+                                                                                                                                                             
161005215436802026040608000032410000000390+                                                                                                                                                             
161005215450402026040608000386910000001260+                                                                                                                                                             
161005215451102026040608000060420000001000+                                                                                                                                                             
161005215567302026040608000063720000002000+                                                                                                                                                             
161005215788602026040608000369040000000608+                                                                                                                                                             
161005215789102026040608000369040000000608+                                                                                                                                                             
161005215964802026040608000066480000000836+                                                                                                                                                             
161005215964902026040608000066480000000756+                                                                                                                                                             
161005216001802026040608000450910000000382+                                                                                                                                                             
161005216070702026040608000450910000001152+                                                                                                                                                             
161005216070802026040608000450910000001152+                                                                                                                                                             
161005216218502026040608000066480000000084+                                                                                                                                                             
161005216279202026040608000063720000001150+                                                                                                                                                             
161005216338302026040608000063720000001200+                                                                                                                                                             
161005216402402026040608000386910000001100+                                                                                                                                                             
161005216402502026040608000386910000000900+                                                                                                                                                             
161005216424202026040608000063720000001500+                                                                                                                                                             
161005216843102026040608000032410000000400+                                                                                                                                                             
161005216843302026040608000032410000000400+                                                                                                                                                             
161005216869902026040608000060420000001500+                                                                                                                                                             
161005216872702026040608000063300000002400+                                                                                                                                                             
161005217297302026040608000056930000000350+                                                                                                                                                             
161005217298202026040608000098560000000400+                                                                                                                                                             
161005217441102026040608000056930000000720+                                                                                                                                                             
161005217441502026040608000056930000000700+                                                                                                                                                             
161005217478002026040608000450910000000288+                                                                                                                                                             
161005217478202026040608000450910000000288+                                                                                                                                                             
161005217598802026040608000060420000000400+                                                                                                                                                             
161005217651402026040608000252810000000056+                                                                                                                                                             
161005217883502026040608000027000000000150+                                                                                                                                                             
161005218247602026040608000386910000000900+                                                                                                                                                             
161005218257502026040608000450910000000764+                                                                                                                                                             
161005218379802026040608000062480000001280+                                                                                                                                                             
161005218963502026040608000284580000000090+                                                                                                                                                             
161005218967102026040608000027000000000100+                                                                                                                                                             
161005218989102026040608000066480000000018+                                                                                                                                                             
161005219017302026040608000060420000000350+                                                                                                                                                             
161005219345602026040608000369040000000446+                                                                                                                                                             
161005219409502026040608000060420000000213+                                                                                                                                                             
161005220218102026040608000027000000000720+                                                                                                                                                             
161005220517902026040608000369040000000310+                                                                                                                                                             
161005220712102026040608000062480000000240+                                                                                                                                                             
161005220916202026040608000027310000000240+                                                                                                                                                             
161005221021802026040608000065230000000204+                                                                                                                                                             
161005221105902026040608000063300000000600+                                                                                                                                                             
161005221106002026040608000063300000000150+                                                                                                                                                             
161005221106102026040608000063300000000600+                                                                                                                                                             
161005221106202026040608000063300000000300+                                                                                                                                                             
161005221106302026040608000063300000000300+                                                                                                                                                             
161005221106502026040608000063300000000600+                                                                                                                                                             
161005221107302026040608000063300000000300+                                                                                                                                                             
161005221107502026040608000063300000000150+                                                                                                                                                             
161005221107602026040608000063300000000250+                                                                                                                                                             
161005221107702026040608000063300000000300+                                                                                                                                                             
161005221107802026040608000063300000000150+                                                                                                                                                             
161005221108002026040608000063300000000150+                                                                                                                                                             
161005221207402026040608000462990000001900+                                                                                                                                                             
161005221226802026040608000063720000001200+                                                                                                                                                             
161005221266902026040608000027000000000150+                                                                                                                                                             
161005221609302026040608000063300000000300+                                                                                                                                                             
161005221609402026040608000063300000000300+                                                                                                                                                             
161005221609502026040608000063300000000300+                                                                                                                                                             
161005221837702026040608000063300000000400+                                                                                                                                                             
161005222201502026040608000252810000000200+                                                                                                                                                             
161005222201702026040608000252810000000200+                                                                                                                                                             
161005222202102026040608000252810000000100+                                                                                                                                                             
161005222202202026040608000252810000000100+                                                                                                                                                             
161005222202302026040608000252810000000200+                                                                                                                                                             
161005222202502026040608000252810000000200+                                                                                                                                                             
161005222219502026040608000063300000001400+                                                                                                                                                             
161005222219602026040608000063300000001400+                                                                                                                                                             
161005222219702026040608000063300000000500+                                                                                                                                                             
161005222219802026040608000063300000000500+                                                                                                                                                             
161005222256402026040608000443730000000210+                                                                                                                                                             
161005222256602026040608000443730000000210+                                                                                                                                                             
161005222256802026040608000443730000000210+                                                                                                                                                             
161005222257002026040608000443730000000210+                                                                                                                                                             
161005222297002026040608000032410000000405+                                                                                                                                                             
161005222297102026040608000032410000000405+                                                                                                                                                             
161005222339302026040608000066480000000800+                                                                                                                                                             
161005222387602026040608000027310000000480+                                                                                                                                                             
161005222387702026040608000027310000000480+                                                                                                                                                             
161005222397802026040608000066480000000269+                                                                                                                                                             
161005222398002026040608000066480000000170+                                                                                                                                                             
161005222400402026040608000065230000000727+                                                                                                                                                             
161005222400602026040608000065230000001207+                                                                                                                                                             
161005222421102026040608000252810000000200+                                                                                                                                                             
161005222436602026040608000450910000000764+                                                                                                                                                             
161005222510102026040608000098560000000300+                                                                                                                                                             
161005222510202026040608000098560000000300+                                                                                                                                                             
161005222716502026040608000466990000001008+                                                                                                                                                             
161005222926402026040608000386910000000880+                                                                                                                                                             
161005223104002026040608000032410000000630+                                                                                                                                                             
161005223104102026040608000032410000000630+                                                                                                                                                             
161005223337902026040608000063720000001200+                                                                                                                                                             
161005223338902026040608000063720000002200+                                                                                                                                                             
161005223553902026040608000060420000001000+                                                                                                                                                             
161005223554002026040608000060420000002500+                                                                                                                                                             
161005223577602026040608000063300000000600+                                                                                                                                                             
161005223577702026040608000063300000000600+                                                                                                                                                             
161005223627102026040608000060420000000500+                                                                                                                                                             
161005223689902026040608000063300000000300+                                                                                                                                                             
161005223930002026040608000060420000000651+                                                                                                                                                             
161005223938102026040608000066480000000096+                                                                                                                                                             
161005223968802026040608000060420000000749+                                                                                                                                                             
161005224369602026040608000252810000000120+                                                                                                                                                             
161005224658902026040608000063300000000450+                                                                                                                                                             
161005224658902026040608000386910000000400+                                                                                                                                                             
161005224856602026040608000027310000001056+                                                                                                                                                             
161005224944602026040608000027310000000540+                                                                                                                                                             
161005224944702026040608000027310000000360+                                                                                                                                                             
161005225108202026040608000063300000000900+                                                                                                                                                             
161005225108302026040608000063300000000900+                                                                                                                                                             
161005225108402026040608000063300000001500+                                                                                                                                                             
161005225108502026040608000063300000001500+                                                                                                                                                             
161005225507002026040608000060420000000504+                                                                                                                                                             
161005225678702026040608000443730000000112+                                                                                                                                                             
161005225678902026040608000443730000000112+                                                                                                                                                             
161005225679302026040608000443730000000112+                                                                                                                                                             
161005225762502026040608000060420000002000+                                                                                                                                                             
161005225968002026040608000065230000001450+                                                                                                                                                             
161005225968102026040608000065230000000233+                                                                                                                                                             
161005225968202026040608000065230000000622+                                                                                                                                                             
161005226018802026040608000331280000001840+                                                                                                                                                             
161005226018902026040608000331280000000400+                                                                                                                                                             
161005226019102026040608000331280000000320+                                                                                                                                                             
161005227055902026040608000063300000000600+                                                                                                                                                             
161005227595502026040608000065230000000431+                                                                                                                                                             
161005227651702026040608000252810000000480+                                                                                                                                                             
161005349405902026040608000284580000000050+                                                                                                                                                             
161005527591702026040608000284580000003000+                                                                                                                                                             
161010017478202026040608000063300000000300+                                                                                                                                                             
161010017627802026040608000462990000000798+                                                                                                                                                             
161010017708202026040608000063300000000150+                                                                                                                                                             
161010020128602026040608000063300000000741+                                                                                                                                                             
161010020128702026040608000063300000000150+                                                                                                                                                             
161010021505302026040608000462990000000810+                                                                                                                                                             
161010022110502026040608000462990000001500+                                                                                                                                                             
161010022118602026040608000462990000000650+                                                                                                                                                             
161010022343902026040608000063300000000450+                                                                                                                                                             
161010023329402026040608000036020000000240+                                                                                                                                                             
161010023329502026040608000036020000000240+                                                                                                                                                             
161010023662802026040608000036020000000300+                                                                                                                                                             
161010023662902026040608000036020000000600+                                                                                                                                                             
161010023663002026040608000036020000000280+                                                                                                                                                             
161010023663102026040608000036020000000560+                                                                                                                                                             
161010024395002026040608000063300000000150+                                                                                                                                                             
161010024432702026040608000063300000000390+                                                                                                                                                             
161010024432702026040608000386910000000390+                                                                                                                                                             
161010024438702026040608000030630000001800+                                                                                                                                                             
161010024439002026040608000030630000000360+                                                                                                                                                             
161010024443702026040608000432350000001500+                                                                                                                                                             
161010024456602026040608000063300000001500+                                                                                                                                                             
161010024561402026040608000462990000001900+                                                                                                                                                             
161010024855302026040608000030630000000720+                                                                                                                                                             
161010024978702026040608000063300000000650+                                                                                                                                                             
161010025214402026040608000432350000001500+                                                                                                                                                             
161010025361002026040608000432350000001512+                                                                                                                                                             
161010025628602026040608000432350000000500+                                                                                                                                                             
161010025721502026040608000036020000000300+                                                                                                                                                             
161010025721602026040608000036020000000300+                                                                                                                                                             
161010025728402026040608000066480000000144+                                                                                                                                                             
161010025737202026040608000036020000000792+                                                                                                                                                             
161010025737402026040608000036020000001000+                                                                                                                                                             
161010025782502026040608000063300000000494+                                                                                                                                                             
161010025782602026040608000063300000000600+                                                                                                                                                             
161010025843302026040608000386910000000120+                                                                                                                                                             
161010025843402026040608000386910000000160+                                                                                                                                                             
161010025844402026040608000462990000001600+                                                                                                                                                             
161010025874202026040608000062480000000150+                                                                                                                                                             
161010025877002026040608000062480000000164+                                                                                                                                                             
161010025895002026040608000462990000001900+                                                                                                                                                             
161010025901402026040608000036020000000456+                                                                                                                                                             
161010025901502026040608000036020000000456+                                                                                                                                                             
161010025901602026040608000036020000000616+                                                                                                                                                             
161010025901702026040608000036020000000616+                                                                                                                                                             
161010025941002026040608000062480000000600+                                                                                                                                                             
161010025941302026040608000062480000000600+                                                                                                                                                             
161010025954102026040608000386910000000200+                                                                                                                                                             
161010025954202026040608000386910000000280+                                                                                                                                                             
161010026102002026040608000063300000000300+                                                                                                                                                             
161010026303302026040608000066480000000480+                                                                                                                                                             
161010026347902026040608000462990000001470+                                                                                                                                                             
161010026364202026040608000036020000000140+                                                                                                                                                             
161010026367402026040608000063300000000336+                                                                                                                                                             
161010026532902026040608000036020000000100+                                                                                                                                                             
161010026533102026040608000036020000000100+                                                                                                                                                             
161010026550402026040608000066480000001768+                                                                                                                                                             
161010026588502026040608000462990000000800+                                                                                                                                                             
161010026620502026040608000404890000000900+                                                                                                                                                             
161010026632302026040608000063300000000260+                                                                                                                                                             
161010026632402026040608000063300000000130+                                                                                                                                                             
161010026637902026040608000432350000001896+                                                                                                                                                             
161010026759402026040608000404890000003000+                                                                                                                                                             
161010026833702026040608000432350000000145+                                                                                                                                                             
161010026833802026040608000432350000000087+                                                                                                                                                             
161010026877302026040608000063300000000090+                                                                                                                                                             
161010026911602026040608000063300000000144+                                                                                                                                                             
161010026958302026040608000036020000000700+                                                                                                                                                             
161010027048102026040608000432350000000060+                                                                                                                                                             
161010027048302026040608000432350000000052+                                                                                                                                                             
161010027062202026040608000036020000000110+                                                                                                                                                             
161010027069102026040608000036020000000220+                                                                                                                                                             
161010027069202026040608000036020000000140+                                                                                                                                                             
161010027069302026040608000036020000000140+                                                                                                                                                             
161010027224702026040608000060420000001100+                                                                                                                                                             
161010027269602026040608000386910000000300+                                                                                                                                                             
161010027338602026040608000063300000000300+                                                                                                                                                             
161010027631502026040608000062480000000249+                                                                                                                                                             
161010027631602026040608000062480000000300+                                                                                                                                                             
161010027631802026040608000062480000000459+                                                                                                                                                             
161010027631902026040608000062480000000450+                                                                                                                                                             
161010027711702026040608000036020000000300+                                                                                                                                                             
161010027711902026040608000036020000000300+                                                                                                                                                             
161010027828702026040608000060420000000700+                                                                                                                                                             
161010027999002026040608000062480000000240+                                                                                                                                                             
161010027999202026040608000062480000000220+                                                                                                                                                             
161010028266602026040608000036020000000220+                                                                                                                                                             
161010028266702026040608000036020000000140+                                                                                                                                                             
161010028266902026040608000036020000000070+                                                                                                                                                             
161010028396102026040608000432350000000360+                                                                                                                                                             
161010028398202026040608000462990000001512+                                                                                                                                                             
161010028398302026040608000462990000001584+                                                                                                                                                             
161010028458602026040608000386910000000040+                                                                                                                                                             
161010028458702026040608000386910000000040+                                                                                                                                                             
161010028477602026040608000432350000000352+                                                                                                                                                             
161010028477702026040608000432350000000452+                                                                                                                                                             
161010028536802026040608000066480000000920+                                                                                                                                                             
161010028587902026040608000404890000001000+                                                                                                                                                             
161010028698202026040608000062480000000300+                                                                                                                                                             
161010029015702026040608000432350000000650+                                                                                                                                                             
161010029015802026040608000432350000001900+                                                                                                                                                             
161010029246302026040608000386910000000240+                                                                                                                                                             
161010029246402026040608000386910000000220+                                                                                                                                                             
161073579228702026040608000036020000000792+                                                                                                                                                             
161000751492102026040608000152290000001200+                                                                                                                                                             
161000757768002026040608000063570000001200+                                                                                                                                                             
161001450348702026040608000063570000002000+                                                                                                                                                             
161001463138702026040608000063570000000800+                                                                                                                                                             
161004634188402026040608000063570000000609+                                                                                                                                                             
161004642059202026040608000063570000000200+                                                                                                                                                             
161004644074102026040608000063570000001610+                                                                                                                                                             
161004654443602026040608000059020000000188+                                                                                                                                                             
161005000774402026040608000063570000000900+                                                                                                                                                             
161005000774402026040608000152290000000900+                                                                                                                                                             
161005179114902026040608000059020000000500+                                                                                                                                                             
161005180109802026040608000063560000002500+                                                                                                                                                             
161005182736402026040608000059020000000195+                                                                                                                                                             
161005188299402026040608000063570000000600+                                                                                                                                                             
161005189479502026040608000059020000008800+                                                                                                                                                             
161005197702802026040608000167830000000126+                                                                                                                                                             
161005200237702026040608000059020000000232+                                                                                                                                                             
161005203903102026040608000063570000001200+                                                                                                                                                             
161005204175802026040608000059020000000066+                                                                                                                                                             
161005205731102026040608000059020000000288+                                                                                                                                                             
161005208679502026040608000059020000001056+                                                                                                                                                             
161005208679602026040608000059020000001320+                                                                                                                                                             
161005208799002026040608000063570000000720+                                                                                                                                                             
161005209642302026040608000063570000009000+                                                                                                                                                             
161005209642302026040608000152290000012000+                                                                                                                                                             
161005209642502026040608000063570000003000+                                                                                                                                                             
161005209642502026040608000152290000007500+                                                                                                                                                             
161005209978502026040608000059020000000256+                                                                                                                                                             
161005210401902026040608000063570000001000+                                                                                                                                                             
161005210404402026040608000064460000001000+                                                                                                                                                             
161005212684802026040608000059020000001122+                                                                                                                                                             
161005214990202026040608000167830000000480+                                                                                                                                                             
161005215190502026040608000059020000000168+                                                                                                                                                             
161005216219602026040608000308340000000203+                                                                                                                                                             
161005216342402026040608000452730000000350+                                                                                                                                                             
161005216419702026040608000059020000000480+                                                                                                                                                             
161005216419802026040608000059020000000540+                                                                                                                                                             
161005216419902026040608000059020000000480+                                                                                                                                                             
161005217449602026040608000059020000000120+                                                                                                                                                             
161005217594702026040608000064460000000125+                                                                                                                                                             
161005217669202026040608000167830000000252+                                                                                                                                                             
161005217997602026040608000064460000000100+                                                                                                                                                             
161005218038202026040608000064460000000088+                                                                                                                                                             
161005218038302026040608000064460000000088+                                                                                                                                                             
161005218414202026040608000308340000000210+                                                                                                                                                             
161005218984302026040608000059020000000363+                                                                                                                                                             
161005219185502026040608000059020000000429+                                                                                                                                                             
161005219185602026040608000059020000000066+                                                                                                                                                             
161005219247502026040608000452730000000240+                                                                                                                                                             
161005219247902026040608000452730000000240+                                                                                                                                                             
161005219248302026040608000452730000000048+                                                                                                                                                             
161005220036602026040608000305490000002250+                                                                                                                                                             
161005220455602026040608000063570000000540+                                                                                                                                                             
161005221261302026040608000059020000000064+                                                                                                                                                             
161005222166802026040608000064460000000046+                                                                                                                                                             
161005222166902026040608000064460000000120+                                                                                                                                                             
161005222167102026040608000064460000000138+                                                                                                                                                             
161005222167202026040608000064460000000230+                                                                                                                                                             
161005222167302026040608000064460000000368+                                                                                                                                                             
161005222167402026040608000064460000000396+                                                                                                                                                             
161005222167502026040608000064460000000396+                                                                                                                                                             
161005222172902026040608000064460000000528+                                                                                                                                                             
161005222173102026040608000064460000000528+                                                                                                                                                             
161005222190702026040608000064460000000188+                                                                                                                                                             
161005222190802026040608000064460000000300+                                                                                                                                                             
161005222292102026040608000308340000000145+                                                                                                                                                             
161005222554602026040608000452730000000540+                                                                                                                                                             
161005222611502026040608000059020000000150+                                                                                                                                                             
161005223511302026040608000059020000000384+                                                                                                                                                             
161005225894702026040608000308340000000144+                                                                                                                                                             
161005225895002026040608000308340000000200+                                                                                                                                                             
161005225895202026040608000308340000000352+                                                                                                                                                             
161005225895302026040608000308340000000376+                                                                                                                                                             
161005225895402026040608000308340000000094+                                                                                                                                                             
161005225895502026040608000308340000000094+                                                                                                                                                             
161005225895602026040608000308340000000396+                                                                                                                                                             
161005225895702026040608000308340000000396+                                                                                                                                                             
161005225895802026040608000308340000000176+                                                                                                                                                             
161005225895902026040608000308340000000176+                                                                                                                                                             
161005225941802026040608000064460000000376+                                                                                                                                                             
161005225941902026040608000064460000000376+                                                                                                                                                             
161005225942002026040608000064460000000470+                                                                                                                                                             
161005225942102026040608000064460000000470+                                                                                                                                                             
161005225942202026040608000064460000000940+                                                                                                                                                             
161005225942302026040608000064460000000940+                                                                                                                                                             
161005225942402026040608000064460000000470+                                                                                                                                                             
161005225942502026040608000064460000000470+                                                                                                                                                             
161005225942602026040608000064460000000812+                                                                                                                                                             
161005225942802026040608000064460000000058+                                                                                                                                                             
161005225943002026040608000064460000000203+                                                                                                                                                             
161005225957402026040608000064460000000100+                                                                                                                                                             
161005225957502026040608000064460000000075+                                                                                                                                                             
161005227090002026040608000466990000000020+                                                                                                                                                             
161005227090102026040608000466990000000176+                                                                                                                                                             
161005227090202026040608000466990000000044+                                                                                                                                                             
161005227090302026040608000466990000000176+                                                                                                                                                             
161005227090402026040608000466990000000072+                                                                                                                                                             
161005227154802026040608000466990000000016+                                                                                                                                                             
161005227168702026040608000466990000000276+                                                                                                                                                             
161005227629002026040608000452730000000144+                                                                                                                                                             
161005227629502026040608000452730000000036+                                                                                                                                                             
161010019585902026040608000063570000000140+                                                                                                                                                             
161010020033202026040608000063570000000900+                                                                                                                                                             
161010023289302026040608000152290000000060+                                                                                                                                                             
161010023289302026040608000452730000000120+                                                                                                                                                             
161010023289502026040608000152290000000060+                                                                                                                                                             
161010023289902026040608000152290000000072+                                                                                                                                                             
161010023289902026040608000452730000000072+                                                                                                                                                             
161010023290002026040608000452730000000072+                                                                                                                                                             
161010023292702026040608000452730000000144+                                                                                                                                                             
161010023292902026040608000452730000000096+                                                                                                                                                             
161010023293702026040608000063570000000100+                                                                                                                                                             
161010023304602026040608000452730000000216+                                                                                                                                                             
161010023304802026040608000452730000000144+                                                                                                                                                             
161010023306302026040608000063570000000072+                                                                                                                                                             
161010023308202026040608000063570000000344+                                                                                                                                                             
161010023327502026040608000062140000000120+                                                                                                                                                             
161010023691102026040608000062140000000108+                                                                                                                                                             
161010024180802026040608000059020000000174+                                                                                                                                                             
161010024433002026040608000452730000000504+                                                                                                                                                             
161010024433202026040608000452730000000792+                                                                                                                                                             
161010024433402026040608000452730000000600+                                                                                                                                                             
161010024433602026040608000452730000000540+                                                                                                                                                             
161010024434702026040608000452730000001248+                                                                                                                                                             
161010024435302026040608000452730000000416+                                                                                                                                                             
161010024435702026040608000063560000000468+                                                                                                                                                             
161010024435902026040608000063560000000468+                                                                                                                                                             
161010024436202026040608000452730000000480+                                                                                                                                                             
161010024436402026040608000452730000000840+                                                                                                                                                             
161010024436802026040608000059020000000512+                                                                                                                                                             
161010024437202026040608000059020000000288+                                                                                                                                                             
161010024437702026040608000452730000000924+                                                                                                                                                             
161010024438302026040608000452730000001122+                                                                                                                                                             
161010024439602026040608000062140000000500+                                                                                                                                                             
161010024440002026040608000062140000000035+                                                                                                                                                             
161010024456402026040608000063570000000576+                                                                                                                                                             
161010024457802026040608000452730000000288+                                                                                                                                                             
161010024458602026040608000063570000000480+                                                                                                                                                             
161010024458802026040608000063570000000328+                                                                                                                                                             
161010024459102026040608000063570000000648+                                                                                                                                                             
161010024483502026040608000062140000000130+                                                                                                                                                             
161010024485702026040608000062140000000160+                                                                                                                                                             
161010024517302026040608000452730000000252+                                                                                                                                                             
161010024517702026040608000063570000000180+                                                                                                                                                             
161010024558702026040608000063570000000392+                                                                                                                                                             
161010024558802026040608000063570000000392+                                                                                                                                                             
161010024559002026040608000063570000000300+                                                                                                                                                             
161010024559202026040608000063570000000300+                                                                                                                                                             
161010024561902026040608000452730000000480+                                                                                                                                                             
