OP01161BIMF2026020910000606027V8AUTOMATIC                                                                                                                                                               
161000752049602026020908000063720000008000+                                                                                                                                                             
161000752848002026020908000063300000004800+                                                                                                                                                             
161000752849102026020908000063720000004500+                                                                                                                                                             
161000752865502026020908000063720000005600+                                                                                                                                                             
161000755208702026020908000063720000009600+                                                                                                                                                             
161000756019702026020908000063300000030000+                                                                                                                                                             
161000756858702026020908000284580000007000+                                                                                                                                                             
161000762544502026020908000063720000014000+                                                                                                                                                             
161000773875102026020908000063720000002400+                                                                                                                                                             
161000775014702026020908000284580000003000+                                                                                                                                                             
161001314118702026020908000063720000007000+                                                                                                                                                             
161001314198702026020908000063720000016000+                                                                                                                                                             
161001450678702026020908000063720000014400+                                                                                                                                                             
161001450758702026020908000063720000011500+                                                                                                                                                             
161001450768702026020908000063720000011000+                                                                                                                                                             
161001462238702026020908000063720000007080+                                                                                                                                                             
161004634844802026020908000000590000000180+                                                                                                                                                             
161004634844902026020908000000590000000140+                                                                                                                                                             
161004635428802026020908000063300000000360+                                                                                                                                                             
161004635461102026020908000000590000000100+                                                                                                                                                             
161004635535602026020908000000590000000900+                                                                                                                                                             
161004635540402026020908000000590000000080+                                                                                                                                                             
161004635540502026020908000000590000000080+                                                                                                                                                             
161004635542702026020908000000590000000080+                                                                                                                                                             
161004635542802026020908000000590000000020+                                                                                                                                                             
161004635543002026020908000000590000000020+                                                                                                                                                             
161004635763702026020908000000590000000600+                                                                                                                                                             
161004635766702026020908000000590000001080+                                                                                                                                                             
161004636040002026020908000284580000002000+                                                                                                                                                             
161004640135602026020908000056930000000936+                                                                                                                                                             
161004641658802026020908000063720000001200+                                                                                                                                                             
161004642981902026020908000063720000003630+                                                                                                                                                             
161004643638502026020908000063720000005440+                                                                                                                                                             
161004643638602026020908000063720000007200+                                                                                                                                                             
161004644010292026020908000369040000000400+                                                                                                                                                             
161004644635902026020908000063720000003000+                                                                                                                                                             
161004645151802026020908000063720000005950+                                                                                                                                                             
161004645589202026020908000056930000000800+                                                                                                                                                             
161004646412402026020908000063720000018600+                                                                                                                                                             
161004651444102026020908000063300000000720+                                                                                                                                                             
161004651526702026020908000063300000015000+                                                                                                                                                             
161004673627102026020908000063300000003000+                                                                                                                                                             
161004675886492026020908000369040000001743+                                                                                                                                                             
161004676360502026020908000063720000002000+                                                                                                                                                             
161004678350002026020908000063300000004800+                                                                                                                                                             
161004678476602026020908000063720000006400+                                                                                                                                                             
161004680426302026020908000063720000031000+                                                                                                                                                             
161004681831702026020908000036020000004400+                                                                                                                                                             
161004683451802026020908000462990000001050+                                                                                                                                                             
161005001044002026020908000063300000030000+                                                                                                                                                             
161005170815202026020908000063720000001000+                                                                                                                                                             
161005174912402026020908000056930000001568+                                                                                                                                                             
161005174995502026020908000063720000001000+                                                                                                                                                             
161005176004702026020908000063300000006000+                                                                                                                                                             
161005176182402026020908000063720000005500+                                                                                                                                                             
161005176445702026020908000063720000001000+                                                                                                                                                             
161005179306002026020908000462990000001800+                                                                                                                                                             
161005180698202026020908000063720000009600+                                                                                                                                                             
161005182260202026020908000063300000001500+                                                                                                                                                             
161005183660202026020908000063300000001160+                                                                                                                                                             
161005183692002026020908000056930000001792+                                                                                                                                                             
161005185542102026020908000462990000001500+                                                                                                                                                             
161005187166702026020908000063720000006000+                                                                                                                                                             
161005187609202026020908000027000000000300+                                                                                                                                                             
161005187703902026020908000386910000000160+                                                                                                                                                             
161005189724502026020908000056930000001560+                                                                                                                                                             
161005192491802026020908000056930000000864+                                                                                                                                                             
161005192491902026020908000056930000002340+                                                                                                                                                             
161005194009302026020908000098560000002000+                                                                                                                                                             
161005194999102026020908000063720000000600+                                                                                                                                                             
161005196425402026020908000063300000000120+                                                                                                                                                             
161005197955802026020908000063300000000120+                                                                                                                                                             
161005198111802026020908000063300000000100+                                                                                                                                                             
161005198406402026020908000466990000000960+                                                                                                                                                             
161005198406502026020908000466990000001120+                                                                                                                                                             
161005200423102026020908000284580000004000+                                                                                                                                                             
161005200423202026020908000284580000004500+                                                                                                                                                             
161005200481102026020908000369040000000229+                                                                                                                                                             
161005200583802026020908000386910000000240+                                                                                                                                                             
161005200685802026020908000065230000000296+                                                                                                                                                             
161005201710702026020908000284580000000900+                                                                                                                                                             
161005201935302026020908000027000000000180+                                                                                                                                                             
161005202308502026020908000057130000002000+                                                                                                                                                             
161005202353102026020908000284580000005000+                                                                                                                                                             
161005202377002026020908000065230000000628+                                                                                                                                                             
161005202481402026020908000057130000001200+                                                                                                                                                             
161005202588702026020908000063720000001500+                                                                                                                                                             
161005202730602026020908000284580000000900+                                                                                                                                                             
161005203886802026020908000063720000002000+                                                                                                                                                             
161005204415702026020908000063300000000350+                                                                                                                                                             
161005204415702026020908000386910000000350+                                                                                                                                                             
161005204416502026020908000063300000000414+                                                                                                                                                             
161005204452302026020908000027000000000300+                                                                                                                                                             
161005204473002026020908000284580000002000+                                                                                                                                                             
161005204473702026020908000063720000003600+                                                                                                                                                             
161005204504602026020908000284580000000800+                                                                                                                                                             
161005204580502026020908000284580000000800+                                                                                                                                                             
161005204582402026020908000098560000000400+                                                                                                                                                             
161005204583102026020908000462990000002200+                                                                                                                                                             
161005204583202026020908000462990000002200+                                                                                                                                                             
161005204789402026020908000063720000002100+                                                                                                                                                             
161005204987502026020908000284580000006000+                                                                                                                                                             
161005205320102026020908000057130000002000+                                                                                                                                                             
161005205627002026020908000063720000009600+                                                                                                                                                             
161005206633402026020908000369040000000186+                                                                                                                                                             
161005206740002026020908000063720000001200+                                                                                                                                                             
161005207292902026020908000063720000001200+                                                                                                                                                             
161005207293002026020908000063720000000600+                                                                                                                                                             
161005207990002026020908000063720000003000+                                                                                                                                                             
161005209085502026020908000027000000000210+                                                                                                                                                             
161005209094002026020908000369040000000427+                                                                                                                                                             
161005209293602026020908000027000000000960+                                                                                                                                                             
161005212735502026020908000369040000001632+                                                                                                                                                             
161005212736602026020908000369040000000233+                                                                                                                                                             
161005212802902026020908000462990000000900+                                                                                                                                                             
161005212807002026020908000066480000000700+                                                                                                                                                             
161005212807102026020908000066480000000627+                                                                                                                                                             
161005212811902026020908000450910000001910+                                                                                                                                                             
161005212851402026020908000063300000000900+                                                                                                                                                             
161005212851402026020908000386910000000900+                                                                                                                                                             
161005212851502026020908000063300000000140+                                                                                                                                                             
161005212851502026020908000386910000000140+                                                                                                                                                             
161005212883902026020908000027000000000060+                                                                                                                                                             
161005212884002026020908000027000000000050+                                                                                                                                                             
161005212910102026020908000063720000007700+                                                                                                                                                             
161005213800502026020908000027000000000060+                                                                                                                                                             
161005213814402026020908000284580000000960+                                                                                                                                                             
161005213994602026020908000098560000000600+                                                                                                                                                             
161005214808902026020908000063720000003600+                                                                                                                                                             
161005214841702026020908000462990000003000+                                                                                                                                                             
161005214982102026020908000036020000000560+                                                                                                                                                             
161005214982202026020908000036020000000560+                                                                                                                                                             
161005215127202026020908000065230000003068+                                                                                                                                                             
161005215128102026020908000065230000002068+                                                                                                                                                             
161005215246102026020908000000570000000400+                                                                                                                                                             
161005215246202026020908000000570000000171+                                                                                                                                                             
161005215436602026020908000032410000000200+                                                                                                                                                             
161005215436802026020908000032410000000510+                                                                                                                                                             
161005215450402026020908000386910000001260+                                                                                                                                                             
161005215451102026020908000060420000000800+                                                                                                                                                             
161005215567302026020908000063720000001000+                                                                                                                                                             
161005215687502026020908000063300000001800+                                                                                                                                                             
161005215702902026020908000057130000001000+                                                                                                                                                             
161005215703102026020908000057130000000900+                                                                                                                                                             
161005215703202026020908000065230000000132+                                                                                                                                                             
161005215788602026020908000369040000000729+                                                                                                                                                             
161005215789102026020908000369040000000523+                                                                                                                                                             
161005215964802026020908000066480000000304+                                                                                                                                                             
161005215964902026020908000066480000000304+                                                                                                                                                             
161005216070702026020908000450910000002016+                                                                                                                                                             
161005216070802026020908000450910000002016+                                                                                                                                                             
161005216279202026020908000063720000001150+                                                                                                                                                             
161005216279302026020908000063720000001100+                                                                                                                                                             
161005216338302026020908000063720000001800+                                                                                                                                                             
161005216402402026020908000386910000000900+                                                                                                                                                             
161005216402502026020908000386910000000900+                                                                                                                                                             
161005216424202026020908000063720000001500+                                                                                                                                                             
161005216843302026020908000032410000000700+                                                                                                                                                             
161005216869702026020908000000570000000070+                                                                                                                                                             
161005216869802026020908000000570000000282+                                                                                                                                                             
161005216869902026020908000060420000000650+                                                                                                                                                             
161005216872702026020908000063300000001200+                                                                                                                                                             
161005217297302026020908000056930000000350+                                                                                                                                                             
161005217298202026020908000098560000000400+                                                                                                                                                             
161005217441102026020908000056930000000720+                                                                                                                                                             
161005217441502026020908000056930000000700+                                                                                                                                                             
161005217461402026020908000450910000000764+                                                                                                                                                             
161005217461602026020908000029780000002400+                                                                                                                                                             
161005217461702026020908000029780000000600+                                                                                                                                                             
161005217476802026020908000029780000002464+                                                                                                                                                             
161005217478002026020908000450910000000576+                                                                                                                                                             
161005217478202026020908000450910000000576+                                                                                                                                                             
161005217651402026020908000252810000000056+                                                                                                                                                             
161005218033402026020908000057130000000900+                                                                                                                                                             
161005218247602026020908000386910000000900+                                                                                                                                                             
161005218963502026020908000284580000000800+                                                                                                                                                             
161005218967102026020908000027000000000100+                                                                                                                                                             
161005218985302026020908000284580000000480+                                                                                                                                                             
161005219017302026020908000060420000000400+                                                                                                                                                             
161005219174502026020908000252810000000056+                                                                                                                                                             
161005219345602026020908000369040000001523+                                                                                                                                                             
161005220188302026020908000063300000000472+                                                                                                                                                             
161005220218102026020908000027000000001440+                                                                                                                                                             
161005220440502026020908000309820000001488+                                                                                                                                                             
161005220440702026020908000309820000003040+                                                                                                                                                             
161005220517902026020908000369040000000662+                                                                                                                                                             
161005221021802026020908000065230000000252+                                                                                                                                                             
161005221105902026020908000063300000001200+                                                                                                                                                             
161005221106002026020908000063300000000300+                                                                                                                                                             
161005221106102026020908000063300000001200+                                                                                                                                                             
161005221106202026020908000063300000000300+                                                                                                                                                             
161005221106302026020908000063300000000600+                                                                                                                                                             
161005221106502026020908000063300000001200+                                                                                                                                                             
161005221107302026020908000063300000000150+                                                                                                                                                             
161005221107402026020908000063300000000250+                                                                                                                                                             
161005221107502026020908000063300000000300+                                                                                                                                                             
161005221107602026020908000063300000000500+                                                                                                                                                             
161005221107702026020908000063300000000300+                                                                                                                                                             
161005221107802026020908000063300000000600+                                                                                                                                                             
161005221107902026020908000063300000000300+                                                                                                                                                             
161005221108002026020908000063300000000150+                                                                                                                                                             
161005221266902026020908000027000000000150+                                                                                                                                                             
161005221609502026020908000063300000000300+                                                                                                                                                             
161005221837702026020908000063300000000400+                                                                                                                                                             
161005222201502026020908000252810000000300+                                                                                                                                                             
161005222201702026020908000252810000000300+                                                                                                                                                             
161005222202102026020908000252810000000100+                                                                                                                                                             
161005222202302026020908000252810000000400+                                                                                                                                                             
161005222202502026020908000252810000000400+                                                                                                                                                             
161005222219502026020908000063300000000700+                                                                                                                                                             
161005222219602026020908000063300000001400+                                                                                                                                                             
161005222219702026020908000063300000000500+                                                                                                                                                             
161005222256802026020908000443730000000420+                                                                                                                                                             
161005222257002026020908000443730000000420+                                                                                                                                                             
161005222297002026020908000032410000000513+                                                                                                                                                             
161005222339302026020908000066480000000900+                                                                                                                                                             
161005222387702026020908000027310000000480+                                                                                                                                                             
161005222389702026020908000057130000002024+                                                                                                                                                             
161005222389902026020908000057130000001980+                                                                                                                                                             
161005222390102026020908000057130000002000+                                                                                                                                                             
161005222397802026020908000066480000000240+                                                                                                                                                             
161005222398002026020908000066480000000297+                                                                                                                                                             
161005222398202026020908000066480000000189+                                                                                                                                                             
161005222400402026020908000065230000001608+                                                                                                                                                             
161005222400602026020908000065230000001128+                                                                                                                                                             
161005222402302026020908000369040000000090+                                                                                                                                                             
161005222421102026020908000252810000000060+                                                                                                                                                             
161005222428202026020908000369040000000090+                                                                                                                                                             
161005222436602026020908000450910000000764+                                                                                                                                                             
161005222510102026020908000098560000000500+                                                                                                                                                             
161005222510202026020908000098560000000500+                                                                                                                                                             
161005222541202026020908000029780000000600+                                                                                                                                                             
161005222541602026020908000029780000000352+                                                                                                                                                             
161005222716502026020908000466990000000896+                                                                                                                                                             
161005222812702026020908000000570000000048+                                                                                                                                                             
161005222926402026020908000386910000000800+                                                                                                                                                             
161005222930202026020908000357970000000368+                                                                                                                                                             
161005223104002026020908000032410000000450+                                                                                                                                                             
161005223119402026020908000057130000001800+                                                                                                                                                             
161005223119602026020908000284580000003000+                                                                                                                                                             
161005223337902026020908000063720000003000+                                                                                                                                                             
161005223338902026020908000063720000000600+                                                                                                                                                             
161005223553902026020908000060420000001560+                                                                                                                                                             
161005223554002026020908000060420000001560+                                                                                                                                                             
161005223627102026020908000060420000000320+                                                                                                                                                             
161005223938102026020908000066480000000160+                                                                                                                                                             
161005223968802026020908000060420000000147+                                                                                                                                                             
161005224090402026020908000000570000000069+                                                                                                                                                             
161005224369302026020908000252810000000686+                                                                                                                                                             
161005224369602026020908000252810000000072+                                                                                                                                                             
161005224658902026020908000063300000000325+                                                                                                                                                             
161005224658902026020908000386910000000325+                                                                                                                                                             
161005224659002026020908000063300000000300+                                                                                                                                                             
161005224856602026020908000027310000000900+                                                                                                                                                             
161005224929002026020908000000590000000080+                                                                                                                                                             
161005224929102026020908000000590000000020+                                                                                                                                                             
161005224936002026020908000000570000000520+                                                                                                                                                             
161005224944602026020908000027310000000360+                                                                                                                                                             
161005224944702026020908000027310000000300+                                                                                                                                                             
161005225108202026020908000063300000000900+                                                                                                                                                             
161005225108302026020908000063300000000900+                                                                                                                                                             
161005225108402026020908000063300000000900+                                                                                                                                                             
161005225108502026020908000063300000001200+                                                                                                                                                             
161005225507002026020908000060420000000798+                                                                                                                                                             
161005225550802026020908000060420000001100+                                                                                                                                                             
161005225762502026020908000060420000001900+                                                                                                                                                             
161005225968002026020908000065230000002228+                                                                                                                                                             
161005225968102026020908000065230000000676+                                                                                                                                                             
161005225968202026020908000065230000000884+                                                                                                                                                             
161005226084202026020908000060420000000150+                                                                                                                                                             
161005226419402026020908000057130000002000+                                                                                                                                                             
161005226557202026020908000057130000000504+                                                                                                                                                             
161005226557402026020908000057130000002496+                                                                                                                                                             
161005226938002026020908000000590000001200+                                                                                                                                                             
161005226938102026020908000000590000000020+                                                                                                                                                             
161005226942002026020908000000590000000900+                                                                                                                                                             
161005226942102026020908000000590000000140+                                                                                                                                                             
161005227004302026020908000000590000000080+                                                                                                                                                             
161005227247602026020908000000570000000081+                                                                                                                                                             
161005227247702026020908000000570000000522+                                                                                                                                                             
161005227247802026020908000000570000001899+                                                                                                                                                             
161005227247902026020908000000570000000048+                                                                                                                                                             
161005227248102026020908000000570000001899+                                                                                                                                                             
161005227595502026020908000065230000000538+                                                                                                                                                             
161005348402302026020908000284580000002000+                                                                                                                                                             
161005349405902026020908000284580000002000+                                                                                                                                                             
161005526819002026020908000284580000000480+                                                                                                                                                             
161005527471602026020908000284580000000200+                                                                                                                                                             
161005528250902026020908000284580000001000+                                                                                                                                                             
161010017478202026020908000063300000000450+                                                                                                                                                             
161010020128602026020908000063300000000266+                                                                                                                                                             
161010021505302026020908000462990000000360+                                                                                                                                                             
161010022110502026020908000462990000000800+                                                                                                                                                             
161010022118602026020908000462990000000500+                                                                                                                                                             
161010022343902026020908000063300000000300+                                                                                                                                                             
161010023329402026020908000036020000000240+                                                                                                                                                             
161010023329502026020908000036020000000240+                                                                                                                                                             
161010023662802026020908000036020000000300+                                                                                                                                                             
161010023663002026020908000036020000000280+                                                                                                                                                             
161010023663102026020908000036020000000280+                                                                                                                                                             
161010024168102026020908000066480000000224+                                                                                                                                                             
161010024395002026020908000063300000000120+                                                                                                                                                             
161010024438702026020908000030630000000720+                                                                                                                                                             
161010024439002026020908000030630000000360+                                                                                                                                                             
161010024443702026020908000432350000001300+                                                                                                                                                             
161010024456602026020908000063300000001500+                                                                                                                                                             
161010024561402026020908000462990000001500+                                                                                                                                                             
161010024855302026020908000030630000000360+                                                                                                                                                             
161010025214302026020908000432350000000040+                                                                                                                                                             
161010025214402026020908000432350000000800+                                                                                                                                                             
161010025361002026020908000432350000000792+                                                                                                                                                             
161010025475602026020908000432350000000100+                                                                                                                                                             
161010025628602026020908000432350000000412+                                                                                                                                                             
161010025737202026020908000036020000000396+                                                                                                                                                             
161010025737402026020908000036020000000400+                                                                                                                                                             
161010025782502026020908000063300000000304+                                                                                                                                                             
161010025782602026020908000063300000000300+                                                                                                                                                             
161010025843302026020908000386910000000080+                                                                                                                                                             
161010025843402026020908000386910000000080+                                                                                                                                                             
161010025844402026020908000462990000002800+                                                                                                                                                             
161010025895002026020908000462990000001800+                                                                                                                                                             
161010025901402026020908000036020000000456+                                                                                                                                                             
161010025901502026020908000036020000000456+                                                                                                                                                             
161010025901602026020908000036020000000308+                                                                                                                                                             
161010025901702026020908000036020000000308+                                                                                                                                                             
161010025954102026020908000386910000000120+                                                                                                                                                             
161010025954202026020908000386910000000320+                                                                                                                                                             
161010026102002026020908000063300000000300+                                                                                                                                                             
161010026303302026020908000066480000000640+                                                                                                                                                             
161010026347902026020908000462990000000770+                                                                                                                                                             
161010026364002026020908000036020000000140+                                                                                                                                                             
161010026364202026020908000036020000000140+                                                                                                                                                             
161010026367402026020908000063300000000384+                                                                                                                                                             
161010026534202026020908000032410000000700+                                                                                                                                                             
161010026588502026020908000462990000001000+                                                                                                                                                             
161010026620502026020908000404890000000600+                                                                                                                                                             
161010026632402026020908000063300000000130+                                                                                                                                                             
161010026637902026020908000432350000001200+                                                                                                                                                             
161010026759402026020908000404890000002000+                                                                                                                                                             
161010026958302026020908000036020000000840+                                                                                                                                                             
161010026958402026020908000036020000000840+                                                                                                                                                             
161010027062202026020908000036020000000154+                                                                                                                                                             
161010027069102026020908000036020000000110+                                                                                                                                                             
161010027069202026020908000036020000000140+                                                                                                                                                             
161010027069302026020908000036020000000070+                                                                                                                                                             
161010027224702026020908000060420000001175+                                                                                                                                                             
161010027224902026020908000066480000000173+                                                                                                                                                             
161010027711702026020908000036020000000150+                                                                                                                                                             
161010027711902026020908000036020000000150+                                                                                                                                                             
161010027828702026020908000060420000000915+                                                                                                                                                             
161010028266602026020908000036020000000110+                                                                                                                                                             
161010028266702026020908000036020000000070+                                                                                                                                                             
161010028266902026020908000036020000000140+                                                                                                                                                             
161010028396102026020908000432350000000460+                                                                                                                                                             
161010028398202026020908000462990000002016+                                                                                                                                                             
161010028398302026020908000462990000002016+                                                                                                                                                             
161010028458602026020908000386910000000080+                                                                                                                                                             
161010028458702026020908000386910000000080+                                                                                                                                                             
161010028458802026020908000386910000000200+                                                                                                                                                             
161010028477602026020908000432350000000900+                                                                                                                                                             
161010028477702026020908000432350000000600+                                                                                                                                                             
161010028536802026020908000066480000000940+                                                                                                                                                             
161010028587902026020908000404890000002000+                                                                                                                                                             
161010029015802026020908000432350000000992+                                                                                                                                                             
161010029246302026020908000386910000000200+                                                                                                                                                             
161010029246402026020908000386910000000200+                                                                                                                                                             
161000575755302026020908000063570000002500+                                                                                                                                                             
161000757768002026020908000063570000001200+                                                                                                                                                             
161004634188402026020908000063570000000377+                                                                                                                                                             
161004644074102026020908000063570000000560+                                                                                                                                                             
161004654443602026020908000059020000000094+                                                                                                                                                             
161005182736402026020908000059020000000065+                                                                                                                                                             
161005189479502026020908000059020000006400+                                                                                                                                                             
161005195017002026020908000452730000000550+                                                                                                                                                             
161005197702802026020908000167830000000168+                                                                                                                                                             
161005200237702026020908000059020000000232+                                                                                                                                                             
161005202897102026020908000063570000000448+                                                                                                                                                             
161005203903102026020908000063570000001200+                                                                                                                                                             
161005205731102026020908000059020000000528+                                                                                                                                                             
161005208679502026020908000059020000001056+                                                                                                                                                             
161005208679602026020908000059020000001056+                                                                                                                                                             
161005209978502026020908000059020000000192+                                                                                                                                                             
161005210401902026020908000063570000003000+                                                                                                                                                             
161005210404402026020908000064460000001000+                                                                                                                                                             
161005212684802026020908000059020000001419+                                                                                                                                                             
161005215190502026020908000059020000000072+                                                                                                                                                             
161005216219602026020908000308340000000174+                                                                                                                                                             
161005216228302026020908000308340000000058+                                                                                                                                                             
161005216342402026020908000452730000000576+                                                                                                                                                             
161005216419702026020908000059020000000540+                                                                                                                                                             
161005216419802026020908000059020000000420+                                                                                                                                                             
161005216419902026020908000059020000000600+                                                                                                                                                             
161005217594702026020908000064460000000125+                                                                                                                                                             
161005217669202026020908000167830000000252+                                                                                                                                                             
161005217997602026020908000064460000000025+                                                                                                                                                             
161005218414202026020908000308340000000336+                                                                                                                                                             
161005218984302026020908000059020000000330+                                                                                                                                                             
161005219185502026020908000059020000000429+                                                                                                                                                             
161005219185602026020908000059020000000066+                                                                                                                                                             
161005219247502026020908000452730000000420+                                                                                                                                                             
161005219247902026020908000452730000000360+                                                                                                                                                             
161005219248302026020908000452730000000024+                                                                                                                                                             
161005220455602026020908000063570000002160+                                                                                                                                                             
161005221346302026020908000059020000000072+                                                                                                                                                             
161005221567002026020908000059020000000800+                                                                                                                                                             
161005222166802026020908000064460000000230+                                                                                                                                                             
161005222166902026020908000064460000000120+                                                                                                                                                             
161005222167102026020908000064460000000276+                                                                                                                                                             
161005222167202026020908000064460000000184+                                                                                                                                                             
161005222167302026020908000064460000000414+                                                                                                                                                             
161005222167402026020908000064460000000330+                                                                                                                                                             
161005222167502026020908000064460000000330+                                                                                                                                                             
161005222172902026020908000064460000000396+                                                                                                                                                             
161005222173102026020908000064460000000396+                                                                                                                                                             
161005222190702026020908000064460000000203+                                                                                                                                                             
161005222190802026020908000064460000000480+                                                                                                                                                             
161005222292102026020908000308340000000232+                                                                                                                                                             
161005222554602026020908000452730000000144+                                                                                                                                                             
161005222554802026020908000452730000000252+                                                                                                                                                             
161005222611502026020908000059020000000090+                                                                                                                                                             
161005223511302026020908000059020000000456+                                                                                                                                                             
161005225894702026020908000308340000000192+                                                                                                                                                             
161005225895002026020908000308340000000100+                                                                                                                                                             
161005225895202026020908000308340000000282+                                                                                                                                                             
161005225895302026020908000308340000000282+                                                                                                                                                             
161005225895602026020908000308340000000396+                                                                                                                                                             
161005225895702026020908000308340000000396+                                                                                                                                                             
161005225895802026020908000308340000000088+                                                                                                                                                             
161005225895902026020908000308340000000088+                                                                                                                                                             
161005225941802026020908000064460000000282+                                                                                                                                                             
161005225941902026020908000064460000000282+                                                                                                                                                             
161005225942002026020908000064460000000470+                                                                                                                                                             
161005225942102026020908000064460000000470+                                                                                                                                                             
161005225942202026020908000064460000001034+                                                                                                                                                             
161005225942302026020908000064460000001034+                                                                                                                                                             
161005225942402026020908000064460000000752+                                                                                                                                                             
161005225942502026020908000064460000000752+                                                                                                                                                             
161005225942602026020908000064460000000841+                                                                                                                                                             
161005225942802026020908000064460000000058+                                                                                                                                                             
161005225943002026020908000064460000000145+                                                                                                                                                             
161005225957402026020908000064460000000094+                                                                                                                                                             
161005225957502026020908000064460000000094+                                                                                                                                                             
161005227090002026020908000466990000000060+                                                                                                                                                             
161005227090102026020908000466990000000124+                                                                                                                                                             
161005227090202026020908000466990000000092+                                                                                                                                                             
161005227090302026020908000466990000000104+                                                                                                                                                             
161005227090402026020908000466990000000048+                                                                                                                                                             
161005227154702026020908000466990000000016+                                                                                                                                                             
161005227154802026020908000466990000000016+                                                                                                                                                             
161005227168702026020908000466990000000132+                                                                                                                                                             
161005227168802026020908000466990000000008+                                                                                                                                                             
161010018527202026020908000063570000000630+                                                                                                                                                             
161010019458802026020908000063570000000100+                                                                                                                                                             
161010019585902026020908000063570000000070+                                                                                                                                                             
161010023289202026020908000152290000000060+                                                                                                                                                             
161010023289202026020908000452730000000060+                                                                                                                                                             
161010023289302026020908000452730000000120+                                                                                                                                                             
161010023294102026020908000152290000000560+                                                                                                                                                             
161010023327502026020908000062140000000420+                                                                                                                                                             
161010023327602026020908000062140000000060+                                                                                                                                                             
161010023328102026020908000062140000000060+                                                                                                                                                             
161010023691102026020908000062140000000252+                                                                                                                                                             
161010023692602026020908000062140000000180+                                                                                                                                                             
161010024180802026020908000059020000000496+                                                                                                                                                             
161010024433002026020908000452730000000888+                                                                                                                                                             
161010024433202026020908000452730000000960+                                                                                                                                                             
161010024433402026020908000452730000001020+                                                                                                                                                             
161010024433602026020908000452730000000900+                                                                                                                                                             
161010024434702026020908000452730000000936+                                                                                                                                                             
161010024435302026020908000452730000000624+                                                                                                                                                             
161010024435702026020908000063560000001008+                                                                                                                                                             
161010024435902026020908000063560000001008+                                                                                                                                                             
161010024436202026020908000452730000000720+                                                                                                                                                             
161010024436402026020908000452730000000960+                                                                                                                                                             
161010024436802026020908000059020000001024+                                                                                                                                                             
161010024437202026020908000059020000000928+                                                                                                                                                             
161010024437702026020908000452730000000924+                                                                                                                                                             
161010024438302026020908000452730000000792+                                                                                                                                                             
161010024439602026020908000062140000000500+                                                                                                                                                             
161010024440402026020908000452730000000512+                                                                                                                                                             
161010024455602026020908000063570000001000+                                                                                                                                                             
161010024456402026020908000063570000000108+                                                                                                                                                             
161010024456702026020908000063570000000200+                                                                                                                                                             
161010024457802026020908000452730000000468+                                                                                                                                                             
161010024458602026020908000063570000000576+                                                                                                                                                             
161010024458802026020908000063570000000184+                                                                                                                                                             
161010024459102026020908000063570000000864+                                                                                                                                                             
161010024459402026020908000063570000000576+                                                                                                                                                             
161010024483502026020908000062140000000030+                                                                                                                                                             
161010024485702026020908000062140000000030+                                                                                                                                                             
161010024517302026020908000452730000000504+                                                                                                                                                             
161010024558702026020908000063570000000448+                                                                                                                                                             
161010024558802026020908000063570000000448+                                                                                                                                                             
161010024559402026020908000063570000000192+                                                                                                                                                             
161010024561902026020908000452730000000768+                                                                                                                                                             
161010025483802026020908000063570000002640+                                                                                                                                                             
